{
	"Contracts/ContractPatient.sol": {
		"Patient": {
			"abi": [
				{
					"anonymous": false,
					"inputs": [
						{
							"indexed": true,
							"internalType": "address",
							"name": "patientAddress",
							"type": "address"
						},
						{
							"indexed": true,
							"internalType": "address",
							"name": "doctorAddress",
							"type": "address"
						},
						{
							"indexed": false,
							"internalType": "string",
							"name": "recordHash",
							"type": "string"
						}
					],
					"name": "AccessGranted",
					"type": "event"
				},
				{
					"anonymous": false,
					"inputs": [
						{
							"indexed": true,
							"internalType": "address",
							"name": "patientAddress",
							"type": "address"
						},
						{
							"indexed": true,
							"internalType": "address",
							"name": "doctorAddress",
							"type": "address"
						},
						{
							"indexed": false,
							"internalType": "string",
							"name": "recordHash",
							"type": "string"
						}
					],
					"name": "AccessRevoked",
					"type": "event"
				},
				{
					"inputs": [
						{
							"internalType": "address",
							"name": "_patientAddress",
							"type": "address"
						},
						{
							"internalType": "string",
							"name": "_recordHash",
							"type": "string"
						},
						{
							"internalType": "address",
							"name": "_doctorAddress",
							"type": "address"
						}
					],
					"name": "authorizeToMedicalFolder",
					"outputs": [],
					"stateMutability": "nonpayable",
					"type": "function"
				},
				{
					"inputs": [
						{
							"internalType": "address",
							"name": "_patientAddress",
							"type": "address"
						},
						{
							"internalType": "string",
							"name": "_recordHash",
							"type": "string"
						},
						{
							"internalType": "address",
							"name": "_doctorAddress",
							"type": "address"
						}
					],
					"name": "isDoctorAuthorized",
					"outputs": [
						{
							"internalType": "bool",
							"name": "",
							"type": "bool"
						}
					],
					"stateMutability": "view",
					"type": "function"
				},
				{
					"inputs": [
						{
							"internalType": "address",
							"name": "_patientAddress",
							"type": "address"
						},
						{
							"internalType": "string",
							"name": "_recordHash",
							"type": "string"
						},
						{
							"internalType": "address",
							"name": "_doctorAddress",
							"type": "address"
						}
					],
					"name": "revokeFromMedicalFolder",
					"outputs": [],
					"stateMutability": "nonpayable",
					"type": "function"
				}
			],
			"devdoc": {
				"kind": "dev",
				"methods": {},
				"version": 1
			},
			"evm": {
				"assembly": "    /* \"Contracts/ContractPatient.sol\":60:2249  contract Patient {\r... */\n  mstore(0x40, 0x80)\n  callvalue\n  dup1\n  iszero\n  tag_1\n  jumpi\n  0x00\n  dup1\n  revert\ntag_1:\n  pop\n  dataSize(sub_0)\n  dup1\n  dataOffset(sub_0)\n  0x00\n  codecopy\n  0x00\n  return\nstop\n\nsub_0: assembly {\n        /* \"Contracts/ContractPatient.sol\":60:2249  contract Patient {\r... */\n      mstore(0x40, 0x80)\n      callvalue\n      dup1\n      iszero\n      tag_1\n      jumpi\n      0x00\n      dup1\n      revert\n    tag_1:\n      pop\n      jumpi(tag_2, lt(calldatasize, 0x04))\n      shr(0xe0, calldataload(0x00))\n      dup1\n      0x4513b2a7\n      eq\n      tag_3\n      jumpi\n      dup1\n      0x57834a1d\n      eq\n      tag_4\n      jumpi\n      dup1\n      0x93e4ee8e\n      eq\n      tag_5\n      jumpi\n    tag_2:\n      0x00\n      dup1\n      revert\n        /* \"Contracts/ContractPatient.sol\":1357:1893  function revokeFromMedicalFolder(\r... */\n    tag_3:\n      tag_6\n      0x04\n      dup1\n      calldatasize\n      sub\n      dup2\n      add\n      swap1\n      tag_7\n      swap2\n      swap1\n      tag_8\n      jump\t// in\n    tag_7:\n      tag_9\n      jump\t// in\n    tag_6:\n      stop\n        /* \"Contracts/ContractPatient.sol\":1984:2246  function isDoctorAuthorized(\r... */\n    tag_4:\n      tag_10\n      0x04\n      dup1\n      calldatasize\n      sub\n      dup2\n      add\n      swap1\n      tag_11\n      swap2\n      swap1\n      tag_8\n      jump\t// in\n    tag_11:\n      tag_12\n      jump\t// in\n    tag_10:\n      mload(0x40)\n      tag_13\n      swap2\n      swap1\n      tag_14\n      jump\t// in\n    tag_13:\n      mload(0x40)\n      dup1\n      swap2\n      sub\n      swap1\n      return\n        /* \"Contracts/ContractPatient.sol\":835:1272  function authorizeToMedicalFolder(\r... */\n    tag_5:\n      tag_15\n      0x04\n      dup1\n      calldatasize\n      sub\n      dup2\n      add\n      swap1\n      tag_16\n      swap2\n      swap1\n      tag_8\n      jump\t// in\n    tag_16:\n      tag_17\n      jump\t// in\n    tag_15:\n      stop\n        /* \"Contracts/ContractPatient.sol\":1357:1893  function revokeFromMedicalFolder(\r... */\n    tag_9:\n        /* \"Contracts/ContractPatient.sol\":1519:1534  _patientAddress */\n      dup3\n        /* \"Contracts/ContractPatient.sol\":1536:1546  msg.sender */\n      caller\n        /* \"Contracts/ContractPatient.sol\":685:692  _caller */\n      dup1\n        /* \"Contracts/ContractPatient.sol\":666:692  _patientAddress == _caller */\n      0xffffffffffffffffffffffffffffffffffffffff\n      and\n        /* \"Contracts/ContractPatient.sol\":666:681  _patientAddress */\n      dup3\n        /* \"Contracts/ContractPatient.sol\":666:692  _patientAddress == _caller */\n      0xffffffffffffffffffffffffffffffffffffffff\n      and\n      eq\n        /* \"Contracts/ContractPatient.sol\":658:741  require(_patientAddress == _caller, \"Seul le patient peut effectuer cette action.\") */\n      tag_19\n      jumpi\n      mload(0x40)\n      0x08c379a000000000000000000000000000000000000000000000000000000000\n      dup2\n      mstore\n      0x04\n      add\n      tag_20\n      swap1\n      tag_21\n      jump\t// in\n    tag_20:\n      mload(0x40)\n      dup1\n      swap2\n      sub\n      swap1\n      revert\n    tag_19:\n        /* \"Contracts/ContractPatient.sol\":1581:1588  records */\n      0x00\n        /* \"Contracts/ContractPatient.sol\":1581:1605  records[_patientAddress] */\n      dup1\n        /* \"Contracts/ContractPatient.sol\":1589:1604  _patientAddress */\n      dup7\n        /* \"Contracts/ContractPatient.sol\":1581:1605  records[_patientAddress] */\n      0xffffffffffffffffffffffffffffffffffffffff\n      and\n      0xffffffffffffffffffffffffffffffffffffffff\n      and\n      dup2\n      mstore\n      0x20\n      add\n      swap1\n      dup2\n      mstore\n      0x20\n      add\n      0x00\n      keccak256\n        /* \"Contracts/ContractPatient.sol\":1606:1617  _recordHash */\n      dup5\n        /* \"Contracts/ContractPatient.sol\":1581:1618  records[_patientAddress][_recordHash] */\n      mload(0x40)\n      tag_23\n      swap2\n      swap1\n      tag_24\n      jump\t// in\n    tag_23:\n      swap1\n      dup2\n      mstore\n      0x20\n      add\n      mload(0x40)\n      dup1\n      swap2\n      sub\n      swap1\n      keccak256\n        /* \"Contracts/ContractPatient.sol\":1581:1636  records[_patientAddress][_recordHash].authorizedDoctors */\n      0x01\n      add\n        /* \"Contracts/ContractPatient.sol\":1581:1652  records[_patientAddress][_recordHash].authorizedDoctors[_doctorAddress] */\n      0x00\n        /* \"Contracts/ContractPatient.sol\":1637:1651  _doctorAddress */\n      dup5\n        /* \"Contracts/ContractPatient.sol\":1581:1652  records[_patientAddress][_recordHash].authorizedDoctors[_doctorAddress] */\n      0xffffffffffffffffffffffffffffffffffffffff\n      and\n      0xffffffffffffffffffffffffffffffffffffffff\n      and\n      dup2\n      mstore\n      0x20\n      add\n      swap1\n      dup2\n      mstore\n      0x20\n      add\n      0x00\n      keccak256\n      0x00\n      swap1\n      sload\n      swap1\n      0x0100\n      exp\n      swap1\n      div\n      0xff\n      and\n        /* \"Contracts/ContractPatient.sol\":1559:1720  require(\r... */\n      tag_25\n      jumpi\n      mload(0x40)\n      0x08c379a000000000000000000000000000000000000000000000000000000000\n      dup2\n      mstore\n      0x04\n      add\n      tag_26\n      swap1\n      tag_27\n      jump\t// in\n    tag_26:\n      mload(0x40)\n      dup1\n      swap2\n      sub\n      swap1\n      revert\n    tag_25:\n        /* \"Contracts/ContractPatient.sol\":1805:1810  false */\n      0x00\n        /* \"Contracts/ContractPatient.sol\":1731:1738  records */\n      dup1\n        /* \"Contracts/ContractPatient.sol\":1731:1755  records[_patientAddress] */\n      0x00\n        /* \"Contracts/ContractPatient.sol\":1739:1754  _patientAddress */\n      dup8\n        /* \"Contracts/ContractPatient.sol\":1731:1755  records[_patientAddress] */\n      0xffffffffffffffffffffffffffffffffffffffff\n      and\n      0xffffffffffffffffffffffffffffffffffffffff\n      and\n      dup2\n      mstore\n      0x20\n      add\n      swap1\n      dup2\n      mstore\n      0x20\n      add\n      0x00\n      keccak256\n        /* \"Contracts/ContractPatient.sol\":1756:1767  _recordHash */\n      dup6\n        /* \"Contracts/ContractPatient.sol\":1731:1768  records[_patientAddress][_recordHash] */\n      mload(0x40)\n      tag_28\n      swap2\n      swap1\n      tag_24\n      jump\t// in\n    tag_28:\n      swap1\n      dup2\n      mstore\n      0x20\n      add\n      mload(0x40)\n      dup1\n      swap2\n      sub\n      swap1\n      keccak256\n        /* \"Contracts/ContractPatient.sol\":1731:1786  records[_patientAddress][_recordHash].authorizedDoctors */\n      0x01\n      add\n        /* \"Contracts/ContractPatient.sol\":1731:1802  records[_patientAddress][_recordHash].authorizedDoctors[_doctorAddress] */\n      0x00\n        /* \"Contracts/ContractPatient.sol\":1787:1801  _doctorAddress */\n      dup6\n        /* \"Contracts/ContractPatient.sol\":1731:1802  records[_patientAddress][_recordHash].authorizedDoctors[_doctorAddress] */\n      0xffffffffffffffffffffffffffffffffffffffff\n      and\n      0xffffffffffffffffffffffffffffffffffffffff\n      and\n      dup2\n      mstore\n      0x20\n      add\n      swap1\n      dup2\n      mstore\n      0x20\n      add\n      0x00\n      keccak256\n      0x00\n        /* \"Contracts/ContractPatient.sol\":1731:1810  records[_patientAddress][_recordHash].authorizedDoctors[_doctorAddress] = false */\n      0x0100\n      exp\n      dup2\n      sload\n      dup2\n      0xff\n      mul\n      not\n      and\n      swap1\n      dup4\n      iszero\n      iszero\n      mul\n      or\n      swap1\n      sstore\n      pop\n        /* \"Contracts/ContractPatient.sol\":1857:1871  _doctorAddress */\n      dup3\n        /* \"Contracts/ContractPatient.sol\":1826:1885  AccessRevoked(_patientAddress, _doctorAddress, _recordHash) */\n      0xffffffffffffffffffffffffffffffffffffffff\n      and\n        /* \"Contracts/ContractPatient.sol\":1840:1855  _patientAddress */\n      dup6\n        /* \"Contracts/ContractPatient.sol\":1826:1885  AccessRevoked(_patientAddress, _doctorAddress, _recordHash) */\n      0xffffffffffffffffffffffffffffffffffffffff\n      and\n      0x0a2382b7b0f44ee62df753c00034038c109332bf9b8f52418af74aa2859780fb\n        /* \"Contracts/ContractPatient.sol\":1873:1884  _recordHash */\n      dup7\n        /* \"Contracts/ContractPatient.sol\":1826:1885  AccessRevoked(_patientAddress, _doctorAddress, _recordHash) */\n      mload(0x40)\n      tag_29\n      swap2\n      swap1\n      tag_30\n      jump\t// in\n    tag_29:\n      mload(0x40)\n      dup1\n      swap2\n      sub\n      swap1\n      log3\n        /* \"Contracts/ContractPatient.sol\":1357:1893  function revokeFromMedicalFolder(\r... */\n      pop\n      pop\n      pop\n      pop\n      pop\n      jump\t// out\n        /* \"Contracts/ContractPatient.sol\":1984:2246  function isDoctorAuthorized(\r... */\n    tag_12:\n        /* \"Contracts/ContractPatient.sol\":2143:2147  bool */\n      0x00\n        /* \"Contracts/ContractPatient.sol\":2167:2174  records */\n      dup1\n        /* \"Contracts/ContractPatient.sol\":2167:2191  records[_patientAddress] */\n      0x00\n        /* \"Contracts/ContractPatient.sol\":2175:2190  _patientAddress */\n      dup6\n        /* \"Contracts/ContractPatient.sol\":2167:2191  records[_patientAddress] */\n      0xffffffffffffffffffffffffffffffffffffffff\n      and\n      0xffffffffffffffffffffffffffffffffffffffff\n      and\n      dup2\n      mstore\n      0x20\n      add\n      swap1\n      dup2\n      mstore\n      0x20\n      add\n      0x00\n      keccak256\n        /* \"Contracts/ContractPatient.sol\":2192:2203  _recordHash */\n      dup4\n        /* \"Contracts/ContractPatient.sol\":2167:2204  records[_patientAddress][_recordHash] */\n      mload(0x40)\n      tag_32\n      swap2\n      swap1\n      tag_24\n      jump\t// in\n    tag_32:\n      swap1\n      dup2\n      mstore\n      0x20\n      add\n      mload(0x40)\n      dup1\n      swap2\n      sub\n      swap1\n      keccak256\n        /* \"Contracts/ContractPatient.sol\":2167:2222  records[_patientAddress][_recordHash].authorizedDoctors */\n      0x01\n      add\n        /* \"Contracts/ContractPatient.sol\":2167:2238  records[_patientAddress][_recordHash].authorizedDoctors[_doctorAddress] */\n      0x00\n        /* \"Contracts/ContractPatient.sol\":2223:2237  _doctorAddress */\n      dup4\n        /* \"Contracts/ContractPatient.sol\":2167:2238  records[_patientAddress][_recordHash].authorizedDoctors[_doctorAddress] */\n      0xffffffffffffffffffffffffffffffffffffffff\n      and\n      0xffffffffffffffffffffffffffffffffffffffff\n      and\n      dup2\n      mstore\n      0x20\n      add\n      swap1\n      dup2\n      mstore\n      0x20\n      add\n      0x00\n      keccak256\n      0x00\n      swap1\n      sload\n      swap1\n      0x0100\n      exp\n      swap1\n      div\n      0xff\n      and\n        /* \"Contracts/ContractPatient.sol\":2160:2238  return records[_patientAddress][_recordHash].authorizedDoctors[_doctorAddress] */\n      swap1\n      pop\n        /* \"Contracts/ContractPatient.sol\":1984:2246  function isDoctorAuthorized(\r... */\n      swap4\n      swap3\n      pop\n      pop\n      pop\n      jump\t// out\n        /* \"Contracts/ContractPatient.sol\":835:1272  function authorizeToMedicalFolder(\r... */\n    tag_17:\n        /* \"Contracts/ContractPatient.sol\":998:1013  _patientAddress */\n      dup3\n        /* \"Contracts/ContractPatient.sol\":1015:1025  msg.sender */\n      caller\n        /* \"Contracts/ContractPatient.sol\":685:692  _caller */\n      dup1\n        /* \"Contracts/ContractPatient.sol\":666:692  _patientAddress == _caller */\n      0xffffffffffffffffffffffffffffffffffffffff\n      and\n        /* \"Contracts/ContractPatient.sol\":666:681  _patientAddress */\n      dup3\n        /* \"Contracts/ContractPatient.sol\":666:692  _patientAddress == _caller */\n      0xffffffffffffffffffffffffffffffffffffffff\n      and\n      eq\n        /* \"Contracts/ContractPatient.sol\":658:741  require(_patientAddress == _caller, \"Seul le patient peut effectuer cette action.\") */\n      tag_34\n      jumpi\n      mload(0x40)\n      0x08c379a000000000000000000000000000000000000000000000000000000000\n      dup2\n      mstore\n      0x04\n      add\n      tag_35\n      swap1\n      tag_21\n      jump\t// in\n    tag_35:\n      mload(0x40)\n      dup1\n      swap2\n      sub\n      swap1\n      revert\n    tag_34:\n        /* \"Contracts/ContractPatient.sol\":1089:1100  _recordHash */\n      dup4\n        /* \"Contracts/ContractPatient.sol\":1038:1045  records */\n      0x00\n        /* \"Contracts/ContractPatient.sol\":1038:1062  records[_patientAddress] */\n      dup1\n        /* \"Contracts/ContractPatient.sol\":1046:1061  _patientAddress */\n      dup8\n        /* \"Contracts/ContractPatient.sol\":1038:1062  records[_patientAddress] */\n      0xffffffffffffffffffffffffffffffffffffffff\n      and\n      0xffffffffffffffffffffffffffffffffffffffff\n      and\n      dup2\n      mstore\n      0x20\n      add\n      swap1\n      dup2\n      mstore\n      0x20\n      add\n      0x00\n      keccak256\n        /* \"Contracts/ContractPatient.sol\":1063:1074  _recordHash */\n      dup6\n        /* \"Contracts/ContractPatient.sol\":1038:1075  records[_patientAddress][_recordHash] */\n      mload(0x40)\n      tag_37\n      swap2\n      swap1\n      tag_24\n      jump\t// in\n    tag_37:\n      swap1\n      dup2\n      mstore\n      0x20\n      add\n      mload(0x40)\n      dup1\n      swap2\n      sub\n      swap1\n      keccak256\n        /* \"Contracts/ContractPatient.sol\":1038:1086  records[_patientAddress][_recordHash].recordHash */\n      0x00\n      add\n        /* \"Contracts/ContractPatient.sol\":1038:1100  records[_patientAddress][_recordHash].recordHash = _recordHash */\n      swap1\n      dup1\n      mload\n      swap1\n      0x20\n      add\n      swap1\n      tag_38\n      swap3\n      swap2\n      swap1\n      tag_39\n      jump\t// in\n    tag_38:\n      pop\n        /* \"Contracts/ContractPatient.sol\":1185:1189  true */\n      0x01\n        /* \"Contracts/ContractPatient.sol\":1111:1118  records */\n      0x00\n        /* \"Contracts/ContractPatient.sol\":1111:1135  records[_patientAddress] */\n      dup1\n        /* \"Contracts/ContractPatient.sol\":1119:1134  _patientAddress */\n      dup8\n        /* \"Contracts/ContractPatient.sol\":1111:1135  records[_patientAddress] */\n      0xffffffffffffffffffffffffffffffffffffffff\n      and\n      0xffffffffffffffffffffffffffffffffffffffff\n      and\n      dup2\n      mstore\n      0x20\n      add\n      swap1\n      dup2\n      mstore\n      0x20\n      add\n      0x00\n      keccak256\n        /* \"Contracts/ContractPatient.sol\":1136:1147  _recordHash */\n      dup6\n        /* \"Contracts/ContractPatient.sol\":1111:1148  records[_patientAddress][_recordHash] */\n      mload(0x40)\n      tag_40\n      swap2\n      swap1\n      tag_24\n      jump\t// in\n    tag_40:\n      swap1\n      dup2\n      mstore\n      0x20\n      add\n      mload(0x40)\n      dup1\n      swap2\n      sub\n      swap1\n      keccak256\n        /* \"Contracts/ContractPatient.sol\":1111:1166  records[_patientAddress][_recordHash].authorizedDoctors */\n      0x01\n      add\n        /* \"Contracts/ContractPatient.sol\":1111:1182  records[_patientAddress][_recordHash].authorizedDoctors[_doctorAddress] */\n      0x00\n        /* \"Contracts/ContractPatient.sol\":1167:1181  _doctorAddress */\n      dup6\n        /* \"Contracts/ContractPatient.sol\":1111:1182  records[_patientAddress][_recordHash].authorizedDoctors[_doctorAddress] */\n      0xffffffffffffffffffffffffffffffffffffffff\n      and\n      0xffffffffffffffffffffffffffffffffffffffff\n      and\n      dup2\n      mstore\n      0x20\n      add\n      swap1\n      dup2\n      mstore\n      0x20\n      add\n      0x00\n      keccak256\n      0x00\n        /* \"Contracts/ContractPatient.sol\":1111:1189  records[_patientAddress][_recordHash].authorizedDoctors[_doctorAddress] = true */\n      0x0100\n      exp\n      dup2\n      sload\n      dup2\n      0xff\n      mul\n      not\n      and\n      swap1\n      dup4\n      iszero\n      iszero\n      mul\n      or\n      swap1\n      sstore\n      pop\n        /* \"Contracts/ContractPatient.sol\":1236:1250  _doctorAddress */\n      dup3\n        /* \"Contracts/ContractPatient.sol\":1205:1264  AccessGranted(_patientAddress, _doctorAddress, _recordHash) */\n      0xffffffffffffffffffffffffffffffffffffffff\n      and\n        /* \"Contracts/ContractPatient.sol\":1219:1234  _patientAddress */\n      dup6\n        /* \"Contracts/ContractPatient.sol\":1205:1264  AccessGranted(_patientAddress, _doctorAddress, _recordHash) */\n      0xffffffffffffffffffffffffffffffffffffffff\n      and\n      0xc7e5c007251689b9bc3cb624f55714afc5988f3e3b4e20cc6a606d7bad6faeca\n        /* \"Contracts/ContractPatient.sol\":1252:1263  _recordHash */\n      dup7\n        /* \"Contracts/ContractPatient.sol\":1205:1264  AccessGranted(_patientAddress, _doctorAddress, _recordHash) */\n      mload(0x40)\n      tag_41\n      swap2\n      swap1\n      tag_30\n      jump\t// in\n    tag_41:\n      mload(0x40)\n      dup1\n      swap2\n      sub\n      swap1\n      log3\n        /* \"Contracts/ContractPatient.sol\":835:1272  function authorizeToMedicalFolder(\r... */\n      pop\n      pop\n      pop\n      pop\n      pop\n      jump\t// out\n    tag_39:\n      dup3\n      dup1\n      sload\n      tag_42\n      swap1\n      tag_43\n      jump\t// in\n    tag_42:\n      swap1\n      0x00\n      mstore\n      keccak256(0x00, 0x20)\n      swap1\n      0x1f\n      add\n      0x20\n      swap1\n      div\n      dup2\n      add\n      swap3\n      dup3\n      tag_45\n      jumpi\n      0x00\n      dup6\n      sstore\n      jump(tag_44)\n    tag_45:\n      dup3\n      0x1f\n      lt\n      tag_46\n      jumpi\n      dup1\n      mload\n      not(0xff)\n      and\n      dup4\n      dup1\n      add\n      or\n      dup6\n      sstore\n      jump(tag_44)\n    tag_46:\n      dup3\n      dup1\n      add\n      0x01\n      add\n      dup6\n      sstore\n      dup3\n      iszero\n      tag_44\n      jumpi\n      swap2\n      dup3\n      add\n    tag_47:\n      dup3\n      dup2\n      gt\n      iszero\n      tag_48\n      jumpi\n      dup3\n      mload\n      dup3\n      sstore\n      swap2\n      0x20\n      add\n      swap2\n      swap1\n      0x01\n      add\n      swap1\n      jump(tag_47)\n    tag_48:\n    tag_44:\n      pop\n      swap1\n      pop\n      tag_49\n      swap2\n      swap1\n      tag_50\n      jump\t// in\n    tag_49:\n      pop\n      swap1\n      jump\t// out\n    tag_50:\n    tag_51:\n      dup1\n      dup3\n      gt\n      iszero\n      tag_52\n      jumpi\n      0x00\n      dup2\n      0x00\n      swap1\n      sstore\n      pop\n      0x01\n      add\n      jump(tag_51)\n    tag_52:\n      pop\n      swap1\n      jump\t// out\n        /* \"#utility.yul\":7:351   */\n    tag_54:\n      0x00\n        /* \"#utility.yul\":110:175   */\n      tag_56\n        /* \"#utility.yul\":125:174   */\n      tag_57\n        /* \"#utility.yul\":167:173   */\n      dup5\n        /* \"#utility.yul\":125:174   */\n      tag_58\n      jump\t// in\n    tag_57:\n        /* \"#utility.yul\":110:175   */\n      tag_59\n      jump\t// in\n    tag_56:\n        /* \"#utility.yul\":101:175   */\n      swap1\n      pop\n        /* \"#utility.yul\":198:204   */\n      dup3\n        /* \"#utility.yul\":191:196   */\n      dup2\n        /* \"#utility.yul\":184:205   */\n      mstore\n        /* \"#utility.yul\":236:240   */\n      0x20\n        /* \"#utility.yul\":229:234   */\n      dup2\n        /* \"#utility.yul\":225:241   */\n      add\n        /* \"#utility.yul\":274:277   */\n      dup5\n        /* \"#utility.yul\":265:271   */\n      dup5\n        /* \"#utility.yul\":260:263   */\n      dup5\n        /* \"#utility.yul\":256:272   */\n      add\n        /* \"#utility.yul\":253:278   */\n      gt\n        /* \"#utility.yul\":250:252   */\n      iszero\n      tag_60\n      jumpi\n        /* \"#utility.yul\":291:292   */\n      0x00\n        /* \"#utility.yul\":288:289   */\n      dup1\n        /* \"#utility.yul\":281:293   */\n      revert\n        /* \"#utility.yul\":250:252   */\n    tag_60:\n        /* \"#utility.yul\":304:345   */\n      tag_61\n        /* \"#utility.yul\":338:344   */\n      dup5\n        /* \"#utility.yul\":333:336   */\n      dup3\n        /* \"#utility.yul\":328:331   */\n      dup6\n        /* \"#utility.yul\":304:345   */\n      tag_62\n      jump\t// in\n    tag_61:\n        /* \"#utility.yul\":91:351   */\n      pop\n      swap4\n      swap3\n      pop\n      pop\n      pop\n      jump\t// out\n        /* \"#utility.yul\":357:496   */\n    tag_63:\n      0x00\n        /* \"#utility.yul\":441:447   */\n      dup2\n        /* \"#utility.yul\":428:448   */\n      calldataload\n        /* \"#utility.yul\":419:448   */\n      swap1\n      pop\n        /* \"#utility.yul\":457:490   */\n      tag_65\n        /* \"#utility.yul\":484:489   */\n      dup2\n        /* \"#utility.yul\":457:490   */\n      tag_66\n      jump\t// in\n    tag_65:\n        /* \"#utility.yul\":409:496   */\n      swap3\n      swap2\n      pop\n      pop\n      jump\t// out\n        /* \"#utility.yul\":516:789   */\n    tag_67:\n      0x00\n        /* \"#utility.yul\":621:624   */\n      dup3\n        /* \"#utility.yul\":614:618   */\n      0x1f\n        /* \"#utility.yul\":606:612   */\n      dup4\n        /* \"#utility.yul\":602:619   */\n      add\n        /* \"#utility.yul\":598:625   */\n      slt\n        /* \"#utility.yul\":588:590   */\n      tag_69\n      jumpi\n        /* \"#utility.yul\":639:640   */\n      0x00\n        /* \"#utility.yul\":636:637   */\n      dup1\n        /* \"#utility.yul\":629:641   */\n      revert\n        /* \"#utility.yul\":588:590   */\n    tag_69:\n        /* \"#utility.yul\":679:685   */\n      dup2\n        /* \"#utility.yul\":666:686   */\n      calldataload\n        /* \"#utility.yul\":704:783   */\n      tag_70\n        /* \"#utility.yul\":779:782   */\n      dup5\n        /* \"#utility.yul\":771:777   */\n      dup3\n        /* \"#utility.yul\":764:768   */\n      0x20\n        /* \"#utility.yul\":756:762   */\n      dup7\n        /* \"#utility.yul\":752:769   */\n      add\n        /* \"#utility.yul\":704:783   */\n      tag_54\n      jump\t// in\n    tag_70:\n        /* \"#utility.yul\":695:783   */\n      swap2\n      pop\n        /* \"#utility.yul\":578:789   */\n      pop\n      swap3\n      swap2\n      pop\n      pop\n      jump\t// out\n        /* \"#utility.yul\":795:1460   */\n    tag_8:\n      0x00\n      dup1\n      0x00\n        /* \"#utility.yul\":947:949   */\n      0x60\n        /* \"#utility.yul\":935:944   */\n      dup5\n        /* \"#utility.yul\":926:933   */\n      dup7\n        /* \"#utility.yul\":922:945   */\n      sub\n        /* \"#utility.yul\":918:950   */\n      slt\n        /* \"#utility.yul\":915:917   */\n      iszero\n      tag_72\n      jumpi\n        /* \"#utility.yul\":963:964   */\n      0x00\n        /* \"#utility.yul\":960:961   */\n      dup1\n        /* \"#utility.yul\":953:965   */\n      revert\n        /* \"#utility.yul\":915:917   */\n    tag_72:\n        /* \"#utility.yul\":1006:1007   */\n      0x00\n        /* \"#utility.yul\":1031:1084   */\n      tag_73\n        /* \"#utility.yul\":1076:1083   */\n      dup7\n        /* \"#utility.yul\":1067:1073   */\n      dup3\n        /* \"#utility.yul\":1056:1065   */\n      dup8\n        /* \"#utility.yul\":1052:1074   */\n      add\n        /* \"#utility.yul\":1031:1084   */\n      tag_63\n      jump\t// in\n    tag_73:\n        /* \"#utility.yul\":1021:1084   */\n      swap4\n      pop\n        /* \"#utility.yul\":977:1094   */\n      pop\n        /* \"#utility.yul\":1161:1163   */\n      0x20\n        /* \"#utility.yul\":1150:1159   */\n      dup5\n        /* \"#utility.yul\":1146:1164   */\n      add\n        /* \"#utility.yul\":1133:1165   */\n      calldataload\n        /* \"#utility.yul\":1192:1210   */\n      0xffffffffffffffff\n        /* \"#utility.yul\":1184:1190   */\n      dup2\n        /* \"#utility.yul\":1181:1211   */\n      gt\n        /* \"#utility.yul\":1178:1180   */\n      iszero\n      tag_74\n      jumpi\n        /* \"#utility.yul\":1224:1225   */\n      0x00\n        /* \"#utility.yul\":1221:1222   */\n      dup1\n        /* \"#utility.yul\":1214:1226   */\n      revert\n        /* \"#utility.yul\":1178:1180   */\n    tag_74:\n        /* \"#utility.yul\":1252:1315   */\n      tag_75\n        /* \"#utility.yul\":1307:1314   */\n      dup7\n        /* \"#utility.yul\":1298:1304   */\n      dup3\n        /* \"#utility.yul\":1287:1296   */\n      dup8\n        /* \"#utility.yul\":1283:1305   */\n      add\n        /* \"#utility.yul\":1252:1315   */\n      tag_67\n      jump\t// in\n    tag_75:\n        /* \"#utility.yul\":1242:1315   */\n      swap3\n      pop\n        /* \"#utility.yul\":1104:1325   */\n      pop\n        /* \"#utility.yul\":1364:1366   */\n      0x40\n        /* \"#utility.yul\":1390:1443   */\n      tag_76\n        /* \"#utility.yul\":1435:1442   */\n      dup7\n        /* \"#utility.yul\":1426:1432   */\n      dup3\n        /* \"#utility.yul\":1415:1424   */\n      dup8\n        /* \"#utility.yul\":1411:1433   */\n      add\n        /* \"#utility.yul\":1390:1443   */\n      tag_63\n      jump\t// in\n    tag_76:\n        /* \"#utility.yul\":1380:1443   */\n      swap2\n      pop\n        /* \"#utility.yul\":1335:1453   */\n      pop\n        /* \"#utility.yul\":905:1460   */\n      swap3\n      pop\n      swap3\n      pop\n      swap3\n      jump\t// out\n        /* \"#utility.yul\":1466:1575   */\n    tag_77:\n        /* \"#utility.yul\":1547:1568   */\n      tag_79\n        /* \"#utility.yul\":1562:1567   */\n      dup2\n        /* \"#utility.yul\":1547:1568   */\n      tag_80\n      jump\t// in\n    tag_79:\n        /* \"#utility.yul\":1542:1545   */\n      dup3\n        /* \"#utility.yul\":1535:1569   */\n      mstore\n        /* \"#utility.yul\":1525:1575   */\n      pop\n      pop\n      jump\t// out\n        /* \"#utility.yul\":1581:1945   */\n    tag_81:\n      0x00\n        /* \"#utility.yul\":1697:1736   */\n      tag_83\n        /* \"#utility.yul\":1730:1735   */\n      dup3\n        /* \"#utility.yul\":1697:1736   */\n      tag_84\n      jump\t// in\n    tag_83:\n        /* \"#utility.yul\":1752:1823   */\n      tag_85\n        /* \"#utility.yul\":1816:1822   */\n      dup2\n        /* \"#utility.yul\":1811:1814   */\n      dup6\n        /* \"#utility.yul\":1752:1823   */\n      tag_86\n      jump\t// in\n    tag_85:\n        /* \"#utility.yul\":1745:1823   */\n      swap4\n      pop\n        /* \"#utility.yul\":1832:1884   */\n      tag_87\n        /* \"#utility.yul\":1877:1883   */\n      dup2\n        /* \"#utility.yul\":1872:1875   */\n      dup6\n        /* \"#utility.yul\":1865:1869   */\n      0x20\n        /* \"#utility.yul\":1858:1863   */\n      dup7\n        /* \"#utility.yul\":1854:1870   */\n      add\n        /* \"#utility.yul\":1832:1884   */\n      tag_88\n      jump\t// in\n    tag_87:\n        /* \"#utility.yul\":1909:1938   */\n      tag_89\n        /* \"#utility.yul\":1931:1937   */\n      dup2\n        /* \"#utility.yul\":1909:1938   */\n      tag_90\n      jump\t// in\n    tag_89:\n        /* \"#utility.yul\":1904:1907   */\n      dup5\n        /* \"#utility.yul\":1900:1939   */\n      add\n        /* \"#utility.yul\":1893:1939   */\n      swap2\n      pop\n        /* \"#utility.yul\":1673:1945   */\n      pop\n      swap3\n      swap2\n      pop\n      pop\n      jump\t// out\n        /* \"#utility.yul\":1951:2328   */\n    tag_91:\n      0x00\n        /* \"#utility.yul\":2085:2124   */\n      tag_93\n        /* \"#utility.yul\":2118:2123   */\n      dup3\n        /* \"#utility.yul\":2085:2124   */\n      tag_84\n      jump\t// in\n    tag_93:\n        /* \"#utility.yul\":2140:2229   */\n      tag_94\n        /* \"#utility.yul\":2222:2228   */\n      dup2\n        /* \"#utility.yul\":2217:2220   */\n      dup6\n        /* \"#utility.yul\":2140:2229   */\n      tag_95\n      jump\t// in\n    tag_94:\n        /* \"#utility.yul\":2133:2229   */\n      swap4\n      pop\n        /* \"#utility.yul\":2238:2290   */\n      tag_96\n        /* \"#utility.yul\":2283:2289   */\n      dup2\n        /* \"#utility.yul\":2278:2281   */\n      dup6\n        /* \"#utility.yul\":2271:2275   */\n      0x20\n        /* \"#utility.yul\":2264:2269   */\n      dup7\n        /* \"#utility.yul\":2260:2276   */\n      add\n        /* \"#utility.yul\":2238:2290   */\n      tag_88\n      jump\t// in\n    tag_96:\n        /* \"#utility.yul\":2315:2321   */\n      dup1\n        /* \"#utility.yul\":2310:2313   */\n      dup5\n        /* \"#utility.yul\":2306:2322   */\n      add\n        /* \"#utility.yul\":2299:2322   */\n      swap2\n      pop\n        /* \"#utility.yul\":2061:2328   */\n      pop\n      swap3\n      swap2\n      pop\n      pop\n      jump\t// out\n        /* \"#utility.yul\":2334:2706   */\n    tag_97:\n      0x00\n        /* \"#utility.yul\":2497:2564   */\n      tag_99\n        /* \"#utility.yul\":2561:2563   */\n      0x28\n        /* \"#utility.yul\":2556:2559   */\n      dup4\n        /* \"#utility.yul\":2497:2564   */\n      tag_86\n      jump\t// in\n    tag_99:\n        /* \"#utility.yul\":2490:2564   */\n      swap2\n      pop\n        /* \"#utility.yul\":2594:2628   */\n      0x4c6520646f6374657572206e2761207061732064276163636573206120636520\n        /* \"#utility.yul\":2590:2591   */\n      0x00\n        /* \"#utility.yul\":2585:2588   */\n      dup4\n        /* \"#utility.yul\":2581:2592   */\n      add\n        /* \"#utility.yul\":2574:2629   */\n      mstore\n        /* \"#utility.yul\":2660:2670   */\n      0x646f73736965722e000000000000000000000000000000000000000000000000\n        /* \"#utility.yul\":2655:2657   */\n      0x20\n        /* \"#utility.yul\":2650:2653   */\n      dup4\n        /* \"#utility.yul\":2646:2658   */\n      add\n        /* \"#utility.yul\":2639:2671   */\n      mstore\n        /* \"#utility.yul\":2697:2699   */\n      0x40\n        /* \"#utility.yul\":2692:2695   */\n      dup3\n        /* \"#utility.yul\":2688:2700   */\n      add\n        /* \"#utility.yul\":2681:2700   */\n      swap1\n      pop\n        /* \"#utility.yul\":2480:2706   */\n      swap2\n      swap1\n      pop\n      jump\t// out\n        /* \"#utility.yul\":2712:3088   */\n    tag_100:\n      0x00\n        /* \"#utility.yul\":2875:2942   */\n      tag_102\n        /* \"#utility.yul\":2939:2941   */\n      0x2c\n        /* \"#utility.yul\":2934:2937   */\n      dup4\n        /* \"#utility.yul\":2875:2942   */\n      tag_86\n      jump\t// in\n    tag_102:\n        /* \"#utility.yul\":2868:2942   */\n      swap2\n      pop\n        /* \"#utility.yul\":2972:3006   */\n      0x5365756c206c652070617469656e742070657574206566666563747565722063\n        /* \"#utility.yul\":2968:2969   */\n      0x00\n        /* \"#utility.yul\":2963:2966   */\n      dup4\n        /* \"#utility.yul\":2959:2970   */\n      add\n        /* \"#utility.yul\":2952:3007   */\n      mstore\n        /* \"#utility.yul\":3038:3052   */\n      0x6574746520616374696f6e2e0000000000000000000000000000000000000000\n        /* \"#utility.yul\":3033:3035   */\n      0x20\n        /* \"#utility.yul\":3028:3031   */\n      dup4\n        /* \"#utility.yul\":3024:3036   */\n      add\n        /* \"#utility.yul\":3017:3053   */\n      mstore\n        /* \"#utility.yul\":3079:3081   */\n      0x40\n        /* \"#utility.yul\":3074:3077   */\n      dup3\n        /* \"#utility.yul\":3070:3082   */\n      add\n        /* \"#utility.yul\":3063:3082   */\n      swap1\n      pop\n        /* \"#utility.yul\":2858:3088   */\n      swap2\n      swap1\n      pop\n      jump\t// out\n        /* \"#utility.yul\":3094:3369   */\n    tag_24:\n      0x00\n        /* \"#utility.yul\":3248:3343   */\n      tag_104\n        /* \"#utility.yul\":3339:3342   */\n      dup3\n        /* \"#utility.yul\":3330:3336   */\n      dup5\n        /* \"#utility.yul\":3248:3343   */\n      tag_91\n      jump\t// in\n    tag_104:\n        /* \"#utility.yul\":3241:3343   */\n      swap2\n      pop\n        /* \"#utility.yul\":3360:3363   */\n      dup2\n        /* \"#utility.yul\":3353:3363   */\n      swap1\n      pop\n        /* \"#utility.yul\":3230:3369   */\n      swap3\n      swap2\n      pop\n      pop\n      jump\t// out\n        /* \"#utility.yul\":3375:3585   */\n    tag_14:\n      0x00\n        /* \"#utility.yul\":3500:3502   */\n      0x20\n        /* \"#utility.yul\":3489:3498   */\n      dup3\n        /* \"#utility.yul\":3485:3503   */\n      add\n        /* \"#utility.yul\":3477:3503   */\n      swap1\n      pop\n        /* \"#utility.yul\":3513:3578   */\n      tag_106\n        /* \"#utility.yul\":3575:3576   */\n      0x00\n        /* \"#utility.yul\":3564:3573   */\n      dup4\n        /* \"#utility.yul\":3560:3577   */\n      add\n        /* \"#utility.yul\":3551:3557   */\n      dup5\n        /* \"#utility.yul\":3513:3578   */\n      tag_77\n      jump\t// in\n    tag_106:\n        /* \"#utility.yul\":3467:3585   */\n      swap3\n      swap2\n      pop\n      pop\n      jump\t// out\n        /* \"#utility.yul\":3591:3904   */\n    tag_30:\n      0x00\n        /* \"#utility.yul\":3742:3744   */\n      0x20\n        /* \"#utility.yul\":3731:3740   */\n      dup3\n        /* \"#utility.yul\":3727:3745   */\n      add\n        /* \"#utility.yul\":3719:3745   */\n      swap1\n      pop\n        /* \"#utility.yul\":3791:3800   */\n      dup2\n        /* \"#utility.yul\":3785:3789   */\n      dup2\n        /* \"#utility.yul\":3781:3801   */\n      sub\n        /* \"#utility.yul\":3777:3778   */\n      0x00\n        /* \"#utility.yul\":3766:3775   */\n      dup4\n        /* \"#utility.yul\":3762:3779   */\n      add\n        /* \"#utility.yul\":3755:3802   */\n      mstore\n        /* \"#utility.yul\":3819:3897   */\n      tag_108\n        /* \"#utility.yul\":3892:3896   */\n      dup2\n        /* \"#utility.yul\":3883:3889   */\n      dup5\n        /* \"#utility.yul\":3819:3897   */\n      tag_81\n      jump\t// in\n    tag_108:\n        /* \"#utility.yul\":3811:3897   */\n      swap1\n      pop\n        /* \"#utility.yul\":3709:3904   */\n      swap3\n      swap2\n      pop\n      pop\n      jump\t// out\n        /* \"#utility.yul\":3910:4329   */\n    tag_27:\n      0x00\n        /* \"#utility.yul\":4114:4116   */\n      0x20\n        /* \"#utility.yul\":4103:4112   */\n      dup3\n        /* \"#utility.yul\":4099:4117   */\n      add\n        /* \"#utility.yul\":4091:4117   */\n      swap1\n      pop\n        /* \"#utility.yul\":4163:4172   */\n      dup2\n        /* \"#utility.yul\":4157:4161   */\n      dup2\n        /* \"#utility.yul\":4153:4173   */\n      sub\n        /* \"#utility.yul\":4149:4150   */\n      0x00\n        /* \"#utility.yul\":4138:4147   */\n      dup4\n        /* \"#utility.yul\":4134:4151   */\n      add\n        /* \"#utility.yul\":4127:4174   */\n      mstore\n        /* \"#utility.yul\":4191:4322   */\n      tag_110\n        /* \"#utility.yul\":4317:4321   */\n      dup2\n        /* \"#utility.yul\":4191:4322   */\n      tag_97\n      jump\t// in\n    tag_110:\n        /* \"#utility.yul\":4183:4322   */\n      swap1\n      pop\n        /* \"#utility.yul\":4081:4329   */\n      swap2\n      swap1\n      pop\n      jump\t// out\n        /* \"#utility.yul\":4335:4754   */\n    tag_21:\n      0x00\n        /* \"#utility.yul\":4539:4541   */\n      0x20\n        /* \"#utility.yul\":4528:4537   */\n      dup3\n        /* \"#utility.yul\":4524:4542   */\n      add\n        /* \"#utility.yul\":4516:4542   */\n      swap1\n      pop\n        /* \"#utility.yul\":4588:4597   */\n      dup2\n        /* \"#utility.yul\":4582:4586   */\n      dup2\n        /* \"#utility.yul\":4578:4598   */\n      sub\n        /* \"#utility.yul\":4574:4575   */\n      0x00\n        /* \"#utility.yul\":4563:4572   */\n      dup4\n        /* \"#utility.yul\":4559:4576   */\n      add\n        /* \"#utility.yul\":4552:4599   */\n      mstore\n        /* \"#utility.yul\":4616:4747   */\n      tag_112\n        /* \"#utility.yul\":4742:4746   */\n      dup2\n        /* \"#utility.yul\":4616:4747   */\n      tag_100\n      jump\t// in\n    tag_112:\n        /* \"#utility.yul\":4608:4747   */\n      swap1\n      pop\n        /* \"#utility.yul\":4506:4754   */\n      swap2\n      swap1\n      pop\n      jump\t// out\n        /* \"#utility.yul\":4760:5043   */\n    tag_59:\n      0x00\n        /* \"#utility.yul\":4826:4828   */\n      0x40\n        /* \"#utility.yul\":4820:4829   */\n      mload\n        /* \"#utility.yul\":4810:4829   */\n      swap1\n      pop\n        /* \"#utility.yul\":4868:4872   */\n      dup2\n        /* \"#utility.yul\":4860:4866   */\n      dup2\n        /* \"#utility.yul\":4856:4873   */\n      add\n        /* \"#utility.yul\":4975:4981   */\n      dup2\n        /* \"#utility.yul\":4963:4973   */\n      dup2\n        /* \"#utility.yul\":4960:4982   */\n      lt\n        /* \"#utility.yul\":4939:4957   */\n      0xffffffffffffffff\n        /* \"#utility.yul\":4927:4937   */\n      dup3\n        /* \"#utility.yul\":4924:4958   */\n      gt\n        /* \"#utility.yul\":4921:4983   */\n      or\n        /* \"#utility.yul\":4918:4920   */\n      iszero\n      tag_114\n      jumpi\n        /* \"#utility.yul\":4986:5004   */\n      tag_115\n      tag_116\n      jump\t// in\n    tag_115:\n        /* \"#utility.yul\":4918:4920   */\n    tag_114:\n        /* \"#utility.yul\":5026:5036   */\n      dup1\n        /* \"#utility.yul\":5022:5024   */\n      0x40\n        /* \"#utility.yul\":5015:5037   */\n      mstore\n        /* \"#utility.yul\":4800:5043   */\n      pop\n      swap2\n      swap1\n      pop\n      jump\t// out\n        /* \"#utility.yul\":5049:5381   */\n    tag_58:\n      0x00\n        /* \"#utility.yul\":5201:5219   */\n      0xffffffffffffffff\n        /* \"#utility.yul\":5193:5199   */\n      dup3\n        /* \"#utility.yul\":5190:5220   */\n      gt\n        /* \"#utility.yul\":5187:5189   */\n      iszero\n      tag_118\n      jumpi\n        /* \"#utility.yul\":5223:5241   */\n      tag_119\n      tag_116\n      jump\t// in\n    tag_119:\n        /* \"#utility.yul\":5187:5189   */\n    tag_118:\n        /* \"#utility.yul\":5308:5312   */\n      0x1f\n        /* \"#utility.yul\":5304:5313   */\n      not\n        /* \"#utility.yul\":5297:5301   */\n      0x1f\n        /* \"#utility.yul\":5289:5295   */\n      dup4\n        /* \"#utility.yul\":5285:5302   */\n      add\n        /* \"#utility.yul\":5281:5314   */\n      and\n        /* \"#utility.yul\":5273:5314   */\n      swap1\n      pop\n        /* \"#utility.yul\":5369:5373   */\n      0x20\n        /* \"#utility.yul\":5363:5367   */\n      dup2\n        /* \"#utility.yul\":5359:5374   */\n      add\n        /* \"#utility.yul\":5351:5374   */\n      swap1\n      pop\n        /* \"#utility.yul\":5116:5381   */\n      swap2\n      swap1\n      pop\n      jump\t// out\n        /* \"#utility.yul\":5387:5486   */\n    tag_84:\n      0x00\n        /* \"#utility.yul\":5473:5478   */\n      dup2\n        /* \"#utility.yul\":5467:5479   */\n      mload\n        /* \"#utility.yul\":5457:5479   */\n      swap1\n      pop\n        /* \"#utility.yul\":5446:5486   */\n      swap2\n      swap1\n      pop\n      jump\t// out\n        /* \"#utility.yul\":5492:5661   */\n    tag_86:\n      0x00\n        /* \"#utility.yul\":5610:5616   */\n      dup3\n        /* \"#utility.yul\":5605:5608   */\n      dup3\n        /* \"#utility.yul\":5598:5617   */\n      mstore\n        /* \"#utility.yul\":5650:5654   */\n      0x20\n        /* \"#utility.yul\":5645:5648   */\n      dup3\n        /* \"#utility.yul\":5641:5655   */\n      add\n        /* \"#utility.yul\":5626:5655   */\n      swap1\n      pop\n        /* \"#utility.yul\":5588:5661   */\n      swap3\n      swap2\n      pop\n      pop\n      jump\t// out\n        /* \"#utility.yul\":5667:5815   */\n    tag_95:\n      0x00\n        /* \"#utility.yul\":5806:5809   */\n      dup2\n        /* \"#utility.yul\":5791:5809   */\n      swap1\n      pop\n        /* \"#utility.yul\":5781:5815   */\n      swap3\n      swap2\n      pop\n      pop\n      jump\t// out\n        /* \"#utility.yul\":5821:5917   */\n    tag_123:\n      0x00\n        /* \"#utility.yul\":5887:5911   */\n      tag_125\n        /* \"#utility.yul\":5905:5910   */\n      dup3\n        /* \"#utility.yul\":5887:5911   */\n      tag_126\n      jump\t// in\n    tag_125:\n        /* \"#utility.yul\":5876:5911   */\n      swap1\n      pop\n        /* \"#utility.yul\":5866:5917   */\n      swap2\n      swap1\n      pop\n      jump\t// out\n        /* \"#utility.yul\":5923:6013   */\n    tag_80:\n      0x00\n        /* \"#utility.yul\":6000:6005   */\n      dup2\n        /* \"#utility.yul\":5993:6006   */\n      iszero\n        /* \"#utility.yul\":5986:6007   */\n      iszero\n        /* \"#utility.yul\":5975:6007   */\n      swap1\n      pop\n        /* \"#utility.yul\":5965:6013   */\n      swap2\n      swap1\n      pop\n      jump\t// out\n        /* \"#utility.yul\":6019:6145   */\n    tag_126:\n      0x00\n        /* \"#utility.yul\":6096:6138   */\n      0xffffffffffffffffffffffffffffffffffffffff\n        /* \"#utility.yul\":6089:6094   */\n      dup3\n        /* \"#utility.yul\":6085:6139   */\n      and\n        /* \"#utility.yul\":6074:6139   */\n      swap1\n      pop\n        /* \"#utility.yul\":6064:6145   */\n      swap2\n      swap1\n      pop\n      jump\t// out\n        /* \"#utility.yul\":6151:6305   */\n    tag_62:\n        /* \"#utility.yul\":6235:6241   */\n      dup3\n        /* \"#utility.yul\":6230:6233   */\n      dup2\n        /* \"#utility.yul\":6225:6228   */\n      dup4\n        /* \"#utility.yul\":6212:6242   */\n      calldatacopy\n        /* \"#utility.yul\":6297:6298   */\n      0x00\n        /* \"#utility.yul\":6288:6294   */\n      dup4\n        /* \"#utility.yul\":6283:6286   */\n      dup4\n        /* \"#utility.yul\":6279:6295   */\n      add\n        /* \"#utility.yul\":6272:6299   */\n      mstore\n        /* \"#utility.yul\":6202:6305   */\n      pop\n      pop\n      pop\n      jump\t// out\n        /* \"#utility.yul\":6311:6618   */\n    tag_88:\n        /* \"#utility.yul\":6379:6380   */\n      0x00\n        /* \"#utility.yul\":6389:6502   */\n    tag_131:\n        /* \"#utility.yul\":6403:6409   */\n      dup4\n        /* \"#utility.yul\":6400:6401   */\n      dup2\n        /* \"#utility.yul\":6397:6410   */\n      lt\n        /* \"#utility.yul\":6389:6502   */\n      iszero\n      tag_133\n      jumpi\n        /* \"#utility.yul\":6488:6489   */\n      dup1\n        /* \"#utility.yul\":6483:6486   */\n      dup3\n        /* \"#utility.yul\":6479:6490   */\n      add\n        /* \"#utility.yul\":6473:6491   */\n      mload\n        /* \"#utility.yul\":6469:6470   */\n      dup2\n        /* \"#utility.yul\":6464:6467   */\n      dup5\n        /* \"#utility.yul\":6460:6471   */\n      add\n        /* \"#utility.yul\":6453:6492   */\n      mstore\n        /* \"#utility.yul\":6425:6427   */\n      0x20\n        /* \"#utility.yul\":6422:6423   */\n      dup2\n        /* \"#utility.yul\":6418:6428   */\n      add\n        /* \"#utility.yul\":6413:6428   */\n      swap1\n      pop\n        /* \"#utility.yul\":6389:6502   */\n      jump(tag_131)\n    tag_133:\n        /* \"#utility.yul\":6520:6526   */\n      dup4\n        /* \"#utility.yul\":6517:6518   */\n      dup2\n        /* \"#utility.yul\":6514:6527   */\n      gt\n        /* \"#utility.yul\":6511:6513   */\n      iszero\n      tag_134\n      jumpi\n        /* \"#utility.yul\":6600:6601   */\n      0x00\n        /* \"#utility.yul\":6591:6597   */\n      dup5\n        /* \"#utility.yul\":6586:6589   */\n      dup5\n        /* \"#utility.yul\":6582:6598   */\n      add\n        /* \"#utility.yul\":6575:6602   */\n      mstore\n        /* \"#utility.yul\":6511:6513   */\n    tag_134:\n        /* \"#utility.yul\":6360:6618   */\n      pop\n      pop\n      pop\n      pop\n      jump\t// out\n        /* \"#utility.yul\":6624:6944   */\n    tag_43:\n      0x00\n        /* \"#utility.yul\":6705:6706   */\n      0x02\n        /* \"#utility.yul\":6699:6703   */\n      dup3\n        /* \"#utility.yul\":6695:6707   */\n      div\n        /* \"#utility.yul\":6685:6707   */\n      swap1\n      pop\n        /* \"#utility.yul\":6752:6753   */\n      0x01\n        /* \"#utility.yul\":6746:6750   */\n      dup3\n        /* \"#utility.yul\":6742:6754   */\n      and\n        /* \"#utility.yul\":6773:6791   */\n      dup1\n        /* \"#utility.yul\":6763:6765   */\n      tag_136\n      jumpi\n        /* \"#utility.yul\":6829:6833   */\n      0x7f\n        /* \"#utility.yul\":6821:6827   */\n      dup3\n        /* \"#utility.yul\":6817:6834   */\n      and\n        /* \"#utility.yul\":6807:6834   */\n      swap2\n      pop\n        /* \"#utility.yul\":6763:6765   */\n    tag_136:\n        /* \"#utility.yul\":6891:6893   */\n      0x20\n        /* \"#utility.yul\":6883:6889   */\n      dup3\n        /* \"#utility.yul\":6880:6894   */\n      lt\n        /* \"#utility.yul\":6860:6878   */\n      dup2\n        /* \"#utility.yul\":6857:6895   */\n      eq\n        /* \"#utility.yul\":6854:6856   */\n      iszero\n      tag_137\n      jumpi\n        /* \"#utility.yul\":6910:6928   */\n      tag_138\n      tag_139\n      jump\t// in\n    tag_138:\n        /* \"#utility.yul\":6854:6856   */\n    tag_137:\n        /* \"#utility.yul\":6675:6944   */\n      pop\n      swap2\n      swap1\n      pop\n      jump\t// out\n        /* \"#utility.yul\":6950:7130   */\n    tag_139:\n        /* \"#utility.yul\":6998:7075   */\n      0x4e487b7100000000000000000000000000000000000000000000000000000000\n        /* \"#utility.yul\":6995:6996   */\n      0x00\n        /* \"#utility.yul\":6988:7076   */\n      mstore\n        /* \"#utility.yul\":7095:7099   */\n      0x22\n        /* \"#utility.yul\":7092:7093   */\n      0x04\n        /* \"#utility.yul\":7085:7100   */\n      mstore\n        /* \"#utility.yul\":7119:7123   */\n      0x24\n        /* \"#utility.yul\":7116:7117   */\n      0x00\n        /* \"#utility.yul\":7109:7124   */\n      revert\n        /* \"#utility.yul\":7136:7316   */\n    tag_116:\n        /* \"#utility.yul\":7184:7261   */\n      0x4e487b7100000000000000000000000000000000000000000000000000000000\n        /* \"#utility.yul\":7181:7182   */\n      0x00\n        /* \"#utility.yul\":7174:7262   */\n      mstore\n        /* \"#utility.yul\":7281:7285   */\n      0x41\n        /* \"#utility.yul\":7278:7279   */\n      0x04\n        /* \"#utility.yul\":7271:7286   */\n      mstore\n        /* \"#utility.yul\":7305:7309   */\n      0x24\n        /* \"#utility.yul\":7302:7303   */\n      0x00\n        /* \"#utility.yul\":7295:7310   */\n      revert\n        /* \"#utility.yul\":7322:7424   */\n    tag_90:\n      0x00\n        /* \"#utility.yul\":7414:7416   */\n      0x1f\n        /* \"#utility.yul\":7410:7417   */\n      not\n        /* \"#utility.yul\":7405:7407   */\n      0x1f\n        /* \"#utility.yul\":7398:7403   */\n      dup4\n        /* \"#utility.yul\":7394:7408   */\n      add\n        /* \"#utility.yul\":7390:7418   */\n      and\n        /* \"#utility.yul\":7380:7418   */\n      swap1\n      pop\n        /* \"#utility.yul\":7370:7424   */\n      swap2\n      swap1\n      pop\n      jump\t// out\n        /* \"#utility.yul\":7430:7552   */\n    tag_66:\n        /* \"#utility.yul\":7503:7527   */\n      tag_144\n        /* \"#utility.yul\":7521:7526   */\n      dup2\n        /* \"#utility.yul\":7503:7527   */\n      tag_123\n      jump\t// in\n    tag_144:\n        /* \"#utility.yul\":7496:7501   */\n      dup2\n        /* \"#utility.yul\":7493:7528   */\n      eq\n        /* \"#utility.yul\":7483:7485   */\n      tag_145\n      jumpi\n        /* \"#utility.yul\":7542:7543   */\n      0x00\n        /* \"#utility.yul\":7539:7540   */\n      dup1\n        /* \"#utility.yul\":7532:7544   */\n      revert\n        /* \"#utility.yul\":7483:7485   */\n    tag_145:\n        /* \"#utility.yul\":7473:7552   */\n      pop\n      jump\t// out\n\n    auxdata: 0xa26469706673582212207e046ca9fe95b887e35ed91aa4c98275a7b2067b3f512cebd69e9750e4f5203864736f6c63430008000033\n}\n",
				"bytecode": {
					"linkReferences": {},
					"object": "608060405234801561001057600080fd5b50610b2e806100206000396000f3fe608060405234801561001057600080fd5b50600436106100415760003560e01c80634513b2a71461004657806357834a1d1461006257806393e4ee8e14610092575b600080fd5b610060600480360381019061005b91906106f8565b6100ae565b005b61007c600480360381019061007791906106f8565b610324565b60405161008991906108bb565b60405180910390f35b6100ac60048036038101906100a791906106f8565b6103d7565b005b82338073ffffffffffffffffffffffffffffffffffffffff168273ffffffffffffffffffffffffffffffffffffffff161461011e576040517f08c379a000000000000000000000000000000000000000000000000000000000815260040161011590610918565b60405180910390fd5b6000808673ffffffffffffffffffffffffffffffffffffffff1673ffffffffffffffffffffffffffffffffffffffff1681526020019081526020016000208460405161016a91906108a4565b908152602001604051809103902060010160008473ffffffffffffffffffffffffffffffffffffffff1673ffffffffffffffffffffffffffffffffffffffff16815260200190815260200160002060009054906101000a900460ff16610205576040517f08c379a00000000000000000000000000000000000000000000000000000000081526004016101fc906108f8565b60405180910390fd5b60008060008773ffffffffffffffffffffffffffffffffffffffff1673ffffffffffffffffffffffffffffffffffffffff1681526020019081526020016000208560405161025391906108a4565b908152602001604051809103902060010160008573ffffffffffffffffffffffffffffffffffffffff1673ffffffffffffffffffffffffffffffffffffffff16815260200190815260200160002060006101000a81548160ff0219169083151502179055508273ffffffffffffffffffffffffffffffffffffffff168573ffffffffffffffffffffffffffffffffffffffff167f0a2382b7b0f44ee62df753c00034038c109332bf9b8f52418af74aa2859780fb8660405161031591906108d6565b60405180910390a35050505050565b60008060008573ffffffffffffffffffffffffffffffffffffffff1673ffffffffffffffffffffffffffffffffffffffff1681526020019081526020016000208360405161037291906108a4565b908152602001604051809103902060010160008373ffffffffffffffffffffffffffffffffffffffff1673ffffffffffffffffffffffffffffffffffffffff16815260200190815260200160002060009054906101000a900460ff1690509392505050565b82338073ffffffffffffffffffffffffffffffffffffffff168273ffffffffffffffffffffffffffffffffffffffff1614610447576040517f08c379a000000000000000000000000000000000000000000000000000000000815260040161043e90610918565b60405180910390fd5b836000808773ffffffffffffffffffffffffffffffffffffffff1673ffffffffffffffffffffffffffffffffffffffff1681526020019081526020016000208560405161049491906108a4565b908152602001604051809103902060000190805190602001906104b89291906105d8565b5060016000808773ffffffffffffffffffffffffffffffffffffffff1673ffffffffffffffffffffffffffffffffffffffff1681526020019081526020016000208560405161050791906108a4565b908152602001604051809103902060010160008573ffffffffffffffffffffffffffffffffffffffff1673ffffffffffffffffffffffffffffffffffffffff16815260200190815260200160002060006101000a81548160ff0219169083151502179055508273ffffffffffffffffffffffffffffffffffffffff168573ffffffffffffffffffffffffffffffffffffffff167fc7e5c007251689b9bc3cb624f55714afc5988f3e3b4e20cc6a606d7bad6faeca866040516105c991906108d6565b60405180910390a35050505050565b8280546105e490610a40565b90600052602060002090601f016020900481019282610606576000855561064d565b82601f1061061f57805160ff191683800117855561064d565b8280016001018555821561064d579182015b8281111561064c578251825591602001919060010190610631565b5b50905061065a919061065e565b5090565b5b8082111561067757600081600090555060010161065f565b5090565b600061068e61068984610969565b610938565b9050828152602081018484840111156106a657600080fd5b6106b18482856109fe565b509392505050565b6000813590506106c881610ae1565b92915050565b600082601f8301126106df57600080fd5b81356106ef84826020860161067b565b91505092915050565b60008060006060848603121561070d57600080fd5b600061071b868287016106b9565b935050602084013567ffffffffffffffff81111561073857600080fd5b610744868287016106ce565b9250506040610755868287016106b9565b9150509250925092565b610768816109d2565b82525050565b600061077982610999565b61078381856109a4565b9350610793818560208601610a0d565b61079c81610ad0565b840191505092915050565b60006107b282610999565b6107bc81856109b5565b93506107cc818560208601610a0d565b80840191505092915050565b60006107e56028836109a4565b91507f4c6520646f6374657572206e276120706173206427616363657320612063652060008301527f646f73736965722e0000000000000000000000000000000000000000000000006020830152604082019050919050565b600061084b602c836109a4565b91507f5365756c206c652070617469656e74207065757420656666656374756572206360008301527f6574746520616374696f6e2e00000000000000000000000000000000000000006020830152604082019050919050565b60006108b082846107a7565b915081905092915050565b60006020820190506108d0600083018461075f565b92915050565b600060208201905081810360008301526108f0818461076e565b905092915050565b60006020820190508181036000830152610911816107d8565b9050919050565b600060208201905081810360008301526109318161083e565b9050919050565b6000604051905081810181811067ffffffffffffffff8211171561095f5761095e610aa1565b5b8060405250919050565b600067ffffffffffffffff82111561098457610983610aa1565b5b601f19601f8301169050602081019050919050565b600081519050919050565b600082825260208201905092915050565b600081905092915050565b60006109cb826109de565b9050919050565b60008115159050919050565b600073ffffffffffffffffffffffffffffffffffffffff82169050919050565b82818337600083830152505050565b60005b83811015610a2b578082015181840152602081019050610a10565b83811115610a3a576000848401525b50505050565b60006002820490506001821680610a5857607f821691505b60208210811415610a6c57610a6b610a72565b5b50919050565b7f4e487b7100000000000000000000000000000000000000000000000000000000600052602260045260246000fd5b7f4e487b7100000000000000000000000000000000000000000000000000000000600052604160045260246000fd5b6000601f19601f8301169050919050565b610aea816109c0565b8114610af557600080fd5b5056fea26469706673582212207e046ca9fe95b887e35ed91aa4c98275a7b2067b3f512cebd69e9750e4f5203864736f6c63430008000033",
					"opcodes": "PUSH1 0x80 PUSH1 0x40 MSTORE CALLVALUE DUP1 ISZERO PUSH2 0x10 JUMPI PUSH1 0x0 DUP1 REVERT JUMPDEST POP PUSH2 0xB2E DUP1 PUSH2 0x20 PUSH1 0x0 CODECOPY PUSH1 0x0 RETURN INVALID PUSH1 0x80 PUSH1 0x40 MSTORE CALLVALUE DUP1 ISZERO PUSH2 0x10 JUMPI PUSH1 0x0 DUP1 REVERT JUMPDEST POP PUSH1 0x4 CALLDATASIZE LT PUSH2 0x41 JUMPI PUSH1 0x0 CALLDATALOAD PUSH1 0xE0 SHR DUP1 PUSH4 0x4513B2A7 EQ PUSH2 0x46 JUMPI DUP1 PUSH4 0x57834A1D EQ PUSH2 0x62 JUMPI DUP1 PUSH4 0x93E4EE8E EQ PUSH2 0x92 JUMPI JUMPDEST PUSH1 0x0 DUP1 REVERT JUMPDEST PUSH2 0x60 PUSH1 0x4 DUP1 CALLDATASIZE SUB DUP2 ADD SWAP1 PUSH2 0x5B SWAP2 SWAP1 PUSH2 0x6F8 JUMP JUMPDEST PUSH2 0xAE JUMP JUMPDEST STOP JUMPDEST PUSH2 0x7C PUSH1 0x4 DUP1 CALLDATASIZE SUB DUP2 ADD SWAP1 PUSH2 0x77 SWAP2 SWAP1 PUSH2 0x6F8 JUMP JUMPDEST PUSH2 0x324 JUMP JUMPDEST PUSH1 0x40 MLOAD PUSH2 0x89 SWAP2 SWAP1 PUSH2 0x8BB JUMP JUMPDEST PUSH1 0x40 MLOAD DUP1 SWAP2 SUB SWAP1 RETURN JUMPDEST PUSH2 0xAC PUSH1 0x4 DUP1 CALLDATASIZE SUB DUP2 ADD SWAP1 PUSH2 0xA7 SWAP2 SWAP1 PUSH2 0x6F8 JUMP JUMPDEST PUSH2 0x3D7 JUMP JUMPDEST STOP JUMPDEST DUP3 CALLER DUP1 PUSH20 0xFFFFFFFFFFFFFFFFFFFFFFFFFFFFFFFFFFFFFFFF AND DUP3 PUSH20 0xFFFFFFFFFFFFFFFFFFFFFFFFFFFFFFFFFFFFFFFF AND EQ PUSH2 0x11E JUMPI PUSH1 0x40 MLOAD PUSH32 0x8C379A000000000000000000000000000000000000000000000000000000000 DUP2 MSTORE PUSH1 0x4 ADD PUSH2 0x115 SWAP1 PUSH2 0x918 JUMP JUMPDEST PUSH1 0x40 MLOAD DUP1 SWAP2 SUB SWAP1 REVERT JUMPDEST PUSH1 0x0 DUP1 DUP7 PUSH20 0xFFFFFFFFFFFFFFFFFFFFFFFFFFFFFFFFFFFFFFFF AND PUSH20 0xFFFFFFFFFFFFFFFFFFFFFFFFFFFFFFFFFFFFFFFF AND DUP2 MSTORE PUSH1 0x20 ADD SWAP1 DUP2 MSTORE PUSH1 0x20 ADD PUSH1 0x0 KECCAK256 DUP5 PUSH1 0x40 MLOAD PUSH2 0x16A SWAP2 SWAP1 PUSH2 0x8A4 JUMP JUMPDEST SWAP1 DUP2 MSTORE PUSH1 0x20 ADD PUSH1 0x40 MLOAD DUP1 SWAP2 SUB SWAP1 KECCAK256 PUSH1 0x1 ADD PUSH1 0x0 DUP5 PUSH20 0xFFFFFFFFFFFFFFFFFFFFFFFFFFFFFFFFFFFFFFFF AND PUSH20 0xFFFFFFFFFFFFFFFFFFFFFFFFFFFFFFFFFFFFFFFF AND DUP2 MSTORE PUSH1 0x20 ADD SWAP1 DUP2 MSTORE PUSH1 0x20 ADD PUSH1 0x0 KECCAK256 PUSH1 0x0 SWAP1 SLOAD SWAP1 PUSH2 0x100 EXP SWAP1 DIV PUSH1 0xFF AND PUSH2 0x205 JUMPI PUSH1 0x40 MLOAD PUSH32 0x8C379A000000000000000000000000000000000000000000000000000000000 DUP2 MSTORE PUSH1 0x4 ADD PUSH2 0x1FC SWAP1 PUSH2 0x8F8 JUMP JUMPDEST PUSH1 0x40 MLOAD DUP1 SWAP2 SUB SWAP1 REVERT JUMPDEST PUSH1 0x0 DUP1 PUSH1 0x0 DUP8 PUSH20 0xFFFFFFFFFFFFFFFFFFFFFFFFFFFFFFFFFFFFFFFF AND PUSH20 0xFFFFFFFFFFFFFFFFFFFFFFFFFFFFFFFFFFFFFFFF AND DUP2 MSTORE PUSH1 0x20 ADD SWAP1 DUP2 MSTORE PUSH1 0x20 ADD PUSH1 0x0 KECCAK256 DUP6 PUSH1 0x40 MLOAD PUSH2 0x253 SWAP2 SWAP1 PUSH2 0x8A4 JUMP JUMPDEST SWAP1 DUP2 MSTORE PUSH1 0x20 ADD PUSH1 0x40 MLOAD DUP1 SWAP2 SUB SWAP1 KECCAK256 PUSH1 0x1 ADD PUSH1 0x0 DUP6 PUSH20 0xFFFFFFFFFFFFFFFFFFFFFFFFFFFFFFFFFFFFFFFF AND PUSH20 0xFFFFFFFFFFFFFFFFFFFFFFFFFFFFFFFFFFFFFFFF AND DUP2 MSTORE PUSH1 0x20 ADD SWAP1 DUP2 MSTORE PUSH1 0x20 ADD PUSH1 0x0 KECCAK256 PUSH1 0x0 PUSH2 0x100 EXP DUP2 SLOAD DUP2 PUSH1 0xFF MUL NOT AND SWAP1 DUP4 ISZERO ISZERO MUL OR SWAP1 SSTORE POP DUP3 PUSH20 0xFFFFFFFFFFFFFFFFFFFFFFFFFFFFFFFFFFFFFFFF AND DUP6 PUSH20 0xFFFFFFFFFFFFFFFFFFFFFFFFFFFFFFFFFFFFFFFF AND PUSH32 0xA2382B7B0F44EE62DF753C00034038C109332BF9B8F52418AF74AA2859780FB DUP7 PUSH1 0x40 MLOAD PUSH2 0x315 SWAP2 SWAP1 PUSH2 0x8D6 JUMP JUMPDEST PUSH1 0x40 MLOAD DUP1 SWAP2 SUB SWAP1 LOG3 POP POP POP POP POP JUMP JUMPDEST PUSH1 0x0 DUP1 PUSH1 0x0 DUP6 PUSH20 0xFFFFFFFFFFFFFFFFFFFFFFFFFFFFFFFFFFFFFFFF AND PUSH20 0xFFFFFFFFFFFFFFFFFFFFFFFFFFFFFFFFFFFFFFFF AND DUP2 MSTORE PUSH1 0x20 ADD SWAP1 DUP2 MSTORE PUSH1 0x20 ADD PUSH1 0x0 KECCAK256 DUP4 PUSH1 0x40 MLOAD PUSH2 0x372 SWAP2 SWAP1 PUSH2 0x8A4 JUMP JUMPDEST SWAP1 DUP2 MSTORE PUSH1 0x20 ADD PUSH1 0x40 MLOAD DUP1 SWAP2 SUB SWAP1 KECCAK256 PUSH1 0x1 ADD PUSH1 0x0 DUP4 PUSH20 0xFFFFFFFFFFFFFFFFFFFFFFFFFFFFFFFFFFFFFFFF AND PUSH20 0xFFFFFFFFFFFFFFFFFFFFFFFFFFFFFFFFFFFFFFFF AND DUP2 MSTORE PUSH1 0x20 ADD SWAP1 DUP2 MSTORE PUSH1 0x20 ADD PUSH1 0x0 KECCAK256 PUSH1 0x0 SWAP1 SLOAD SWAP1 PUSH2 0x100 EXP SWAP1 DIV PUSH1 0xFF AND SWAP1 POP SWAP4 SWAP3 POP POP POP JUMP JUMPDEST DUP3 CALLER DUP1 PUSH20 0xFFFFFFFFFFFFFFFFFFFFFFFFFFFFFFFFFFFFFFFF AND DUP3 PUSH20 0xFFFFFFFFFFFFFFFFFFFFFFFFFFFFFFFFFFFFFFFF AND EQ PUSH2 0x447 JUMPI PUSH1 0x40 MLOAD PUSH32 0x8C379A000000000000000000000000000000000000000000000000000000000 DUP2 MSTORE PUSH1 0x4 ADD PUSH2 0x43E SWAP1 PUSH2 0x918 JUMP JUMPDEST PUSH1 0x40 MLOAD DUP1 SWAP2 SUB SWAP1 REVERT JUMPDEST DUP4 PUSH1 0x0 DUP1 DUP8 PUSH20 0xFFFFFFFFFFFFFFFFFFFFFFFFFFFFFFFFFFFFFFFF AND PUSH20 0xFFFFFFFFFFFFFFFFFFFFFFFFFFFFFFFFFFFFFFFF AND DUP2 MSTORE PUSH1 0x20 ADD SWAP1 DUP2 MSTORE PUSH1 0x20 ADD PUSH1 0x0 KECCAK256 DUP6 PUSH1 0x40 MLOAD PUSH2 0x494 SWAP2 SWAP1 PUSH2 0x8A4 JUMP JUMPDEST SWAP1 DUP2 MSTORE PUSH1 0x20 ADD PUSH1 0x40 MLOAD DUP1 SWAP2 SUB SWAP1 KECCAK256 PUSH1 0x0 ADD SWAP1 DUP1 MLOAD SWAP1 PUSH1 0x20 ADD SWAP1 PUSH2 0x4B8 SWAP3 SWAP2 SWAP1 PUSH2 0x5D8 JUMP JUMPDEST POP PUSH1 0x1 PUSH1 0x0 DUP1 DUP8 PUSH20 0xFFFFFFFFFFFFFFFFFFFFFFFFFFFFFFFFFFFFFFFF AND PUSH20 0xFFFFFFFFFFFFFFFFFFFFFFFFFFFFFFFFFFFFFFFF AND DUP2 MSTORE PUSH1 0x20 ADD SWAP1 DUP2 MSTORE PUSH1 0x20 ADD PUSH1 0x0 KECCAK256 DUP6 PUSH1 0x40 MLOAD PUSH2 0x507 SWAP2 SWAP1 PUSH2 0x8A4 JUMP JUMPDEST SWAP1 DUP2 MSTORE PUSH1 0x20 ADD PUSH1 0x40 MLOAD DUP1 SWAP2 SUB SWAP1 KECCAK256 PUSH1 0x1 ADD PUSH1 0x0 DUP6 PUSH20 0xFFFFFFFFFFFFFFFFFFFFFFFFFFFFFFFFFFFFFFFF AND PUSH20 0xFFFFFFFFFFFFFFFFFFFFFFFFFFFFFFFFFFFFFFFF AND DUP2 MSTORE PUSH1 0x20 ADD SWAP1 DUP2 MSTORE PUSH1 0x20 ADD PUSH1 0x0 KECCAK256 PUSH1 0x0 PUSH2 0x100 EXP DUP2 SLOAD DUP2 PUSH1 0xFF MUL NOT AND SWAP1 DUP4 ISZERO ISZERO MUL OR SWAP1 SSTORE POP DUP3 PUSH20 0xFFFFFFFFFFFFFFFFFFFFFFFFFFFFFFFFFFFFFFFF AND DUP6 PUSH20 0xFFFFFFFFFFFFFFFFFFFFFFFFFFFFFFFFFFFFFFFF AND PUSH32 0xC7E5C007251689B9BC3CB624F55714AFC5988F3E3B4E20CC6A606D7BAD6FAECA DUP7 PUSH1 0x40 MLOAD PUSH2 0x5C9 SWAP2 SWAP1 PUSH2 0x8D6 JUMP JUMPDEST PUSH1 0x40 MLOAD DUP1 SWAP2 SUB SWAP1 LOG3 POP POP POP POP POP JUMP JUMPDEST DUP3 DUP1 SLOAD PUSH2 0x5E4 SWAP1 PUSH2 0xA40 JUMP JUMPDEST SWAP1 PUSH1 0x0 MSTORE PUSH1 0x20 PUSH1 0x0 KECCAK256 SWAP1 PUSH1 0x1F ADD PUSH1 0x20 SWAP1 DIV DUP2 ADD SWAP3 DUP3 PUSH2 0x606 JUMPI PUSH1 0x0 DUP6 SSTORE PUSH2 0x64D JUMP JUMPDEST DUP3 PUSH1 0x1F LT PUSH2 0x61F JUMPI DUP1 MLOAD PUSH1 0xFF NOT AND DUP4 DUP1 ADD OR DUP6 SSTORE PUSH2 0x64D JUMP JUMPDEST DUP3 DUP1 ADD PUSH1 0x1 ADD DUP6 SSTORE DUP3 ISZERO PUSH2 0x64D JUMPI SWAP2 DUP3 ADD JUMPDEST DUP3 DUP2 GT ISZERO PUSH2 0x64C JUMPI DUP3 MLOAD DUP3 SSTORE SWAP2 PUSH1 0x20 ADD SWAP2 SWAP1 PUSH1 0x1 ADD SWAP1 PUSH2 0x631 JUMP JUMPDEST JUMPDEST POP SWAP1 POP PUSH2 0x65A SWAP2 SWAP1 PUSH2 0x65E JUMP JUMPDEST POP SWAP1 JUMP JUMPDEST JUMPDEST DUP1 DUP3 GT ISZERO PUSH2 0x677 JUMPI PUSH1 0x0 DUP2 PUSH1 0x0 SWAP1 SSTORE POP PUSH1 0x1 ADD PUSH2 0x65F JUMP JUMPDEST POP SWAP1 JUMP JUMPDEST PUSH1 0x0 PUSH2 0x68E PUSH2 0x689 DUP5 PUSH2 0x969 JUMP JUMPDEST PUSH2 0x938 JUMP JUMPDEST SWAP1 POP DUP3 DUP2 MSTORE PUSH1 0x20 DUP2 ADD DUP5 DUP5 DUP5 ADD GT ISZERO PUSH2 0x6A6 JUMPI PUSH1 0x0 DUP1 REVERT JUMPDEST PUSH2 0x6B1 DUP5 DUP3 DUP6 PUSH2 0x9FE JUMP JUMPDEST POP SWAP4 SWAP3 POP POP POP JUMP JUMPDEST PUSH1 0x0 DUP2 CALLDATALOAD SWAP1 POP PUSH2 0x6C8 DUP2 PUSH2 0xAE1 JUMP JUMPDEST SWAP3 SWAP2 POP POP JUMP JUMPDEST PUSH1 0x0 DUP3 PUSH1 0x1F DUP4 ADD SLT PUSH2 0x6DF JUMPI PUSH1 0x0 DUP1 REVERT JUMPDEST DUP2 CALLDATALOAD PUSH2 0x6EF DUP5 DUP3 PUSH1 0x20 DUP7 ADD PUSH2 0x67B JUMP JUMPDEST SWAP2 POP POP SWAP3 SWAP2 POP POP JUMP JUMPDEST PUSH1 0x0 DUP1 PUSH1 0x0 PUSH1 0x60 DUP5 DUP7 SUB SLT ISZERO PUSH2 0x70D JUMPI PUSH1 0x0 DUP1 REVERT JUMPDEST PUSH1 0x0 PUSH2 0x71B DUP7 DUP3 DUP8 ADD PUSH2 0x6B9 JUMP JUMPDEST SWAP4 POP POP PUSH1 0x20 DUP5 ADD CALLDATALOAD PUSH8 0xFFFFFFFFFFFFFFFF DUP2 GT ISZERO PUSH2 0x738 JUMPI PUSH1 0x0 DUP1 REVERT JUMPDEST PUSH2 0x744 DUP7 DUP3 DUP8 ADD PUSH2 0x6CE JUMP JUMPDEST SWAP3 POP POP PUSH1 0x40 PUSH2 0x755 DUP7 DUP3 DUP8 ADD PUSH2 0x6B9 JUMP JUMPDEST SWAP2 POP POP SWAP3 POP SWAP3 POP SWAP3 JUMP JUMPDEST PUSH2 0x768 DUP2 PUSH2 0x9D2 JUMP JUMPDEST DUP3 MSTORE POP POP JUMP JUMPDEST PUSH1 0x0 PUSH2 0x779 DUP3 PUSH2 0x999 JUMP JUMPDEST PUSH2 0x783 DUP2 DUP6 PUSH2 0x9A4 JUMP JUMPDEST SWAP4 POP PUSH2 0x793 DUP2 DUP6 PUSH1 0x20 DUP7 ADD PUSH2 0xA0D JUMP JUMPDEST PUSH2 0x79C DUP2 PUSH2 0xAD0 JUMP JUMPDEST DUP5 ADD SWAP2 POP POP SWAP3 SWAP2 POP POP JUMP JUMPDEST PUSH1 0x0 PUSH2 0x7B2 DUP3 PUSH2 0x999 JUMP JUMPDEST PUSH2 0x7BC DUP2 DUP6 PUSH2 0x9B5 JUMP JUMPDEST SWAP4 POP PUSH2 0x7CC DUP2 DUP6 PUSH1 0x20 DUP7 ADD PUSH2 0xA0D JUMP JUMPDEST DUP1 DUP5 ADD SWAP2 POP POP SWAP3 SWAP2 POP POP JUMP JUMPDEST PUSH1 0x0 PUSH2 0x7E5 PUSH1 0x28 DUP4 PUSH2 0x9A4 JUMP JUMPDEST SWAP2 POP PUSH32 0x4C6520646F6374657572206E2761207061732064276163636573206120636520 PUSH1 0x0 DUP4 ADD MSTORE PUSH32 0x646F73736965722E000000000000000000000000000000000000000000000000 PUSH1 0x20 DUP4 ADD MSTORE PUSH1 0x40 DUP3 ADD SWAP1 POP SWAP2 SWAP1 POP JUMP JUMPDEST PUSH1 0x0 PUSH2 0x84B PUSH1 0x2C DUP4 PUSH2 0x9A4 JUMP JUMPDEST SWAP2 POP PUSH32 0x5365756C206C652070617469656E742070657574206566666563747565722063 PUSH1 0x0 DUP4 ADD MSTORE PUSH32 0x6574746520616374696F6E2E0000000000000000000000000000000000000000 PUSH1 0x20 DUP4 ADD MSTORE PUSH1 0x40 DUP3 ADD SWAP1 POP SWAP2 SWAP1 POP JUMP JUMPDEST PUSH1 0x0 PUSH2 0x8B0 DUP3 DUP5 PUSH2 0x7A7 JUMP JUMPDEST SWAP2 POP DUP2 SWAP1 POP SWAP3 SWAP2 POP POP JUMP JUMPDEST PUSH1 0x0 PUSH1 0x20 DUP3 ADD SWAP1 POP PUSH2 0x8D0 PUSH1 0x0 DUP4 ADD DUP5 PUSH2 0x75F JUMP JUMPDEST SWAP3 SWAP2 POP POP JUMP JUMPDEST PUSH1 0x0 PUSH1 0x20 DUP3 ADD SWAP1 POP DUP2 DUP2 SUB PUSH1 0x0 DUP4 ADD MSTORE PUSH2 0x8F0 DUP2 DUP5 PUSH2 0x76E JUMP JUMPDEST SWAP1 POP SWAP3 SWAP2 POP POP JUMP JUMPDEST PUSH1 0x0 PUSH1 0x20 DUP3 ADD SWAP1 POP DUP2 DUP2 SUB PUSH1 0x0 DUP4 ADD MSTORE PUSH2 0x911 DUP2 PUSH2 0x7D8 JUMP JUMPDEST SWAP1 POP SWAP2 SWAP1 POP JUMP JUMPDEST PUSH1 0x0 PUSH1 0x20 DUP3 ADD SWAP1 POP DUP2 DUP2 SUB PUSH1 0x0 DUP4 ADD MSTORE PUSH2 0x931 DUP2 PUSH2 0x83E JUMP JUMPDEST SWAP1 POP SWAP2 SWAP1 POP JUMP JUMPDEST PUSH1 0x0 PUSH1 0x40 MLOAD SWAP1 POP DUP2 DUP2 ADD DUP2 DUP2 LT PUSH8 0xFFFFFFFFFFFFFFFF DUP3 GT OR ISZERO PUSH2 0x95F JUMPI PUSH2 0x95E PUSH2 0xAA1 JUMP JUMPDEST JUMPDEST DUP1 PUSH1 0x40 MSTORE POP SWAP2 SWAP1 POP JUMP JUMPDEST PUSH1 0x0 PUSH8 0xFFFFFFFFFFFFFFFF DUP3 GT ISZERO PUSH2 0x984 JUMPI PUSH2 0x983 PUSH2 0xAA1 JUMP JUMPDEST JUMPDEST PUSH1 0x1F NOT PUSH1 0x1F DUP4 ADD AND SWAP1 POP PUSH1 0x20 DUP2 ADD SWAP1 POP SWAP2 SWAP1 POP JUMP JUMPDEST PUSH1 0x0 DUP2 MLOAD SWAP1 POP SWAP2 SWAP1 POP JUMP JUMPDEST PUSH1 0x0 DUP3 DUP3 MSTORE PUSH1 0x20 DUP3 ADD SWAP1 POP SWAP3 SWAP2 POP POP JUMP JUMPDEST PUSH1 0x0 DUP2 SWAP1 POP SWAP3 SWAP2 POP POP JUMP JUMPDEST PUSH1 0x0 PUSH2 0x9CB DUP3 PUSH2 0x9DE JUMP JUMPDEST SWAP1 POP SWAP2 SWAP1 POP JUMP JUMPDEST PUSH1 0x0 DUP2 ISZERO ISZERO SWAP1 POP SWAP2 SWAP1 POP JUMP JUMPDEST PUSH1 0x0 PUSH20 0xFFFFFFFFFFFFFFFFFFFFFFFFFFFFFFFFFFFFFFFF DUP3 AND SWAP1 POP SWAP2 SWAP1 POP JUMP JUMPDEST DUP3 DUP2 DUP4 CALLDATACOPY PUSH1 0x0 DUP4 DUP4 ADD MSTORE POP POP POP JUMP JUMPDEST PUSH1 0x0 JUMPDEST DUP4 DUP2 LT ISZERO PUSH2 0xA2B JUMPI DUP1 DUP3 ADD MLOAD DUP2 DUP5 ADD MSTORE PUSH1 0x20 DUP2 ADD SWAP1 POP PUSH2 0xA10 JUMP JUMPDEST DUP4 DUP2 GT ISZERO PUSH2 0xA3A JUMPI PUSH1 0x0 DUP5 DUP5 ADD MSTORE JUMPDEST POP POP POP POP JUMP JUMPDEST PUSH1 0x0 PUSH1 0x2 DUP3 DIV SWAP1 POP PUSH1 0x1 DUP3 AND DUP1 PUSH2 0xA58 JUMPI PUSH1 0x7F DUP3 AND SWAP2 POP JUMPDEST PUSH1 0x20 DUP3 LT DUP2 EQ ISZERO PUSH2 0xA6C JUMPI PUSH2 0xA6B PUSH2 0xA72 JUMP JUMPDEST JUMPDEST POP SWAP2 SWAP1 POP JUMP JUMPDEST PUSH32 0x4E487B7100000000000000000000000000000000000000000000000000000000 PUSH1 0x0 MSTORE PUSH1 0x22 PUSH1 0x4 MSTORE PUSH1 0x24 PUSH1 0x0 REVERT JUMPDEST PUSH32 0x4E487B7100000000000000000000000000000000000000000000000000000000 PUSH1 0x0 MSTORE PUSH1 0x41 PUSH1 0x4 MSTORE PUSH1 0x24 PUSH1 0x0 REVERT JUMPDEST PUSH1 0x0 PUSH1 0x1F NOT PUSH1 0x1F DUP4 ADD AND SWAP1 POP SWAP2 SWAP1 POP JUMP JUMPDEST PUSH2 0xAEA DUP2 PUSH2 0x9C0 JUMP JUMPDEST DUP2 EQ PUSH2 0xAF5 JUMPI PUSH1 0x0 DUP1 REVERT JUMPDEST POP JUMP INVALID LOG2 PUSH5 0x6970667358 0x22 SLT KECCAK256 PUSH31 0x46CA9FE95B887E35ED91AA4C98275A7B2067B3F512CEBD69E9750E4F52038 PUSH5 0x736F6C6343 STOP ADDMOD STOP STOP CALLER "
				},
				"gasEstimates": {
					"creation": {
						"codeDepositCost": "572400",
						"executionCost": "606",
						"totalCost": "573006"
					},
					"external": {
						"authorizeToMedicalFolder(address,string,address)": "infinite",
						"isDoctorAuthorized(address,string,address)": "infinite",
						"revokeFromMedicalFolder(address,string,address)": "infinite"
					}
				},
				"methodIdentifiers": {
					"authorizeToMedicalFolder(address,string,address)": "93e4ee8e",
					"isDoctorAuthorized(address,string,address)": "57834a1d",
					"revokeFromMedicalFolder(address,string,address)": "4513b2a7"
				}
			},
			"storageLayout": {
				"storage": [
					{
						"astId": 15,
						"contract": "Contracts/ContractPatient.sol:Patient",
						"label": "records",
						"offset": 0,
						"slot": "0",
						"type": "t_mapping(t_address,t_mapping(t_string_memory_ptr,t_struct(MedicalRecord)8_storage))"
					}
				],
				"types": {
					"t_address": {
						"encoding": "inplace",
						"label": "address",
						"numberOfBytes": "20"
					},
					"t_bool": {
						"encoding": "inplace",
						"label": "bool",
						"numberOfBytes": "1"
					},
					"t_mapping(t_address,t_bool)": {
						"encoding": "mapping",
						"key": "t_address",
						"label": "mapping(address => bool)",
						"numberOfBytes": "32",
						"value": "t_bool"
					},
					"t_mapping(t_address,t_mapping(t_string_memory_ptr,t_struct(MedicalRecord)8_storage))": {
						"encoding": "mapping",
						"key": "t_address",
						"label": "mapping(address => mapping(string => struct Patient.MedicalRecord))",
						"numberOfBytes": "32",
						"value": "t_mapping(t_string_memory_ptr,t_struct(MedicalRecord)8_storage)"
					},
					"t_mapping(t_string_memory_ptr,t_struct(MedicalRecord)8_storage)": {
						"encoding": "mapping",
						"key": "t_string_memory_ptr",
						"label": "mapping(string => struct Patient.MedicalRecord)",
						"numberOfBytes": "32",
						"value": "t_struct(MedicalRecord)8_storage"
					},
					"t_string_memory_ptr": {
						"encoding": "bytes",
						"label": "string",
						"numberOfBytes": "32"
					},
					"t_string_storage": {
						"encoding": "bytes",
						"label": "string",
						"numberOfBytes": "32"
					},
					"t_struct(MedicalRecord)8_storage": {
						"encoding": "inplace",
						"label": "struct Patient.MedicalRecord",
						"members": [
							{
								"astId": 3,
								"contract": "Contracts/ContractPatient.sol:Patient",
								"label": "recordHash",
								"offset": 0,
								"slot": "0",
								"type": "t_string_storage"
							},
							{
								"astId": 7,
								"contract": "Contracts/ContractPatient.sol:Patient",
								"label": "authorizedDoctors",
								"offset": 0,
								"slot": "1",
								"type": "t_mapping(t_address,t_bool)"
							}
						],
						"numberOfBytes": "64"
					}
				}
			},
			"userdoc": {
				"kind": "user",
				"methods": {},
				"version": 1
			}
		}
	}
}