{
	"Contracts/ContractPatient.sol": {
		"Patient": {
			"abi": [
				{
					"anonymous": false,
					"inputs": [
						{
							"indexed": true,
							"internalType": "address",
							"name": "patientAddress",
							"type": "address"
						},
						{
							"indexed": true,
							"internalType": "address",
							"name": "doctorAddress",
							"type": "address"
						}
					],
					"name": "AccessGranted",
					"type": "event"
				},
				{
					"anonymous": false,
					"inputs": [
						{
							"indexed": true,
							"internalType": "address",
							"name": "patientAddress",
							"type": "address"
						},
						{
							"indexed": true,
							"internalType": "address",
							"name": "doctorAddress",
							"type": "address"
						}
					],
					"name": "AccessRevoked",
					"type": "event"
				},
				{
					"anonymous": false,
					"inputs": [
						{
							"indexed": false,
							"internalType": "address",
							"name": "patientAddress",
							"type": "address"
						},
						{
							"indexed": false,
							"internalType": "string",
							"name": "name",
							"type": "string"
						}
					],
					"name": "PatientRegistered",
					"type": "event"
				},
				{
					"anonymous": false,
					"inputs": [
						{
							"indexed": true,
							"internalType": "address",
							"name": "patientAddress",
							"type": "address"
						},
						{
							"indexed": false,
							"internalType": "string",
							"name": "recordHash",
							"type": "string"
						}
					],
					"name": "RecordAdded",
					"type": "event"
				},
				{
					"inputs": [
						{
							"internalType": "string",
							"name": "_recordHash",
							"type": "string"
						}
					],
					"name": "addMedicalRecord",
					"outputs": [],
					"stateMutability": "nonpayable",
					"type": "function"
				},
				{
					"inputs": [
						{
							"internalType": "address",
							"name": "_patientAddress",
							"type": "address"
						}
					],
					"name": "getRecords",
					"outputs": [
						{
							"internalType": "string[]",
							"name": "",
							"type": "string[]"
						}
					],
					"stateMutability": "view",
					"type": "function"
				},
				{
					"inputs": [
						{
							"internalType": "address",
							"name": "_doctorAddress",
							"type": "address"
						}
					],
					"name": "grantAccess",
					"outputs": [],
					"stateMutability": "nonpayable",
					"type": "function"
				},
				{
					"inputs": [
						{
							"internalType": "address",
							"name": "_patientAddress",
							"type": "address"
						},
						{
							"internalType": "address",
							"name": "_doctorAddress",
							"type": "address"
						}
					],
					"name": "isDoctorAuthorized",
					"outputs": [
						{
							"internalType": "bool",
							"name": "",
							"type": "bool"
						}
					],
					"stateMutability": "view",
					"type": "function"
				},
				{
					"inputs": [
						{
							"internalType": "address",
							"name": "",
							"type": "address"
						}
					],
					"name": "patients",
					"outputs": [
						{
							"internalType": "address",
							"name": "patientAddress",
							"type": "address"
						},
						{
							"internalType": "string",
							"name": "name",
							"type": "string"
						},
						{
							"internalType": "bool",
							"name": "isRegistered",
							"type": "bool"
						}
					],
					"stateMutability": "view",
					"type": "function"
				},
				{
					"inputs": [
						{
							"internalType": "address",
							"name": "_patientAddress",
							"type": "address"
						},
						{
							"internalType": "string",
							"name": "_name",
							"type": "string"
						}
					],
					"name": "registerPatient",
					"outputs": [],
					"stateMutability": "nonpayable",
					"type": "function"
				},
				{
					"inputs": [
						{
							"internalType": "address",
							"name": "_doctorAddress",
							"type": "address"
						}
					],
					"name": "revokeAccess",
					"outputs": [],
					"stateMutability": "nonpayable",
					"type": "function"
				}
			],
			"devdoc": {
				"kind": "dev",
				"methods": {},
				"version": 1
			},
			"evm": {
				"assembly": "    /* \"Contracts/ContractPatient.sol\":60:2377  contract Patient {\r... */\n  mstore(0x40, 0x80)\n  callvalue\n  dup1\n  iszero\n  tag_1\n  jumpi\n  0x00\n  dup1\n  revert\ntag_1:\n  pop\n  dataSize(sub_0)\n  dup1\n  dataOffset(sub_0)\n  0x00\n  codecopy\n  0x00\n  return\nstop\n\nsub_0: assembly {\n        /* \"Contracts/ContractPatient.sol\":60:2377  contract Patient {\r... */\n      mstore(0x40, 0x80)\n      callvalue\n      dup1\n      iszero\n      tag_1\n      jumpi\n      0x00\n      dup1\n      revert\n    tag_1:\n      pop\n      jumpi(tag_2, lt(calldatasize, 0x04))\n      shr(0xe0, calldataload(0x00))\n      dup1\n      0x8048c2f0\n      gt\n      tag_10\n      jumpi\n      dup1\n      0x8048c2f0\n      eq\n      tag_6\n      jumpi\n      dup1\n      0x85e68531\n      eq\n      tag_7\n      jumpi\n      dup1\n      0xa0076e84\n      eq\n      tag_8\n      jumpi\n      dup1\n      0xe671926a\n      eq\n      tag_9\n      jumpi\n      jump(tag_2)\n    tag_10:\n      dup1\n      0x0869cfbc\n      eq\n      tag_3\n      jumpi\n      dup1\n      0x0ae5e739\n      eq\n      tag_4\n      jumpi\n      dup1\n      0x79a94bd2\n      eq\n      tag_5\n      jumpi\n    tag_2:\n      0x00\n      dup1\n      revert\n        /* \"Contracts/ContractPatient.sol\":317:364  mapping(address => PatientData) public patients */\n    tag_3:\n      tag_11\n      0x04\n      dup1\n      calldatasize\n      sub\n      dup2\n      add\n      swap1\n      tag_12\n      swap2\n      swap1\n      tag_13\n      jump\t// in\n    tag_12:\n      tag_14\n      jump\t// in\n    tag_11:\n      mload(0x40)\n      tag_15\n      swap4\n      swap3\n      swap2\n      swap1\n      tag_16\n      jump\t// in\n    tag_15:\n      mload(0x40)\n      dup1\n      swap2\n      sub\n      swap1\n      return\n        /* \"Contracts/ContractPatient.sol\":1194:1405  function grantAccess(address _doctorAddress) public onlyRegisteredPatient {\r... */\n    tag_4:\n      tag_17\n      0x04\n      dup1\n      calldatasize\n      sub\n      dup2\n      add\n      swap1\n      tag_18\n      swap2\n      swap1\n      tag_13\n      jump\t// in\n    tag_18:\n      tag_19\n      jump\t// in\n    tag_17:\n      stop\n        /* \"Contracts/ContractPatient.sol\":1784:2005  function isDoctorAuthorized(address _patientAddress, address _doctorAddress)\r... */\n    tag_5:\n      tag_20\n      0x04\n      dup1\n      calldatasize\n      sub\n      dup2\n      add\n      swap1\n      tag_21\n      swap2\n      swap1\n      tag_22\n      jump\t// in\n    tag_21:\n      tag_23\n      jump\t// in\n    tag_20:\n      mload(0x40)\n      tag_24\n      swap2\n      swap1\n      tag_25\n      jump\t// in\n    tag_24:\n      mload(0x40)\n      dup1\n      swap2\n      sub\n      swap1\n      return\n        /* \"Contracts/ContractPatient.sol\":851:1186  function registerPatient(address _patientAddress, string memory _name) public {\r... */\n    tag_6:\n      tag_26\n      0x04\n      dup1\n      calldatasize\n      sub\n      dup2\n      add\n      swap1\n      tag_27\n      swap2\n      swap1\n      tag_28\n      jump\t// in\n    tag_27:\n      tag_29\n      jump\t// in\n    tag_26:\n      stop\n        /* \"Contracts/ContractPatient.sol\":1413:1776  function revokeAccess(address _doctorAddress) public onlyRegisteredPatient {\r... */\n    tag_7:\n      tag_30\n      0x04\n      dup1\n      calldatasize\n      sub\n      dup2\n      add\n      swap1\n      tag_31\n      swap2\n      swap1\n      tag_13\n      jump\t// in\n    tag_31:\n      tag_32\n      jump\t// in\n    tag_30:\n      stop\n        /* \"Contracts/ContractPatient.sol\":2226:2374  function getRecords(address _patientAddress) public view returns (string[] memory) {\r... */\n    tag_8:\n      tag_33\n      0x04\n      dup1\n      calldatasize\n      sub\n      dup2\n      add\n      swap1\n      tag_34\n      swap2\n      swap1\n      tag_13\n      jump\t// in\n    tag_34:\n      tag_35\n      jump\t// in\n    tag_33:\n      mload(0x40)\n      tag_36\n      swap2\n      swap1\n      tag_37\n      jump\t// in\n    tag_36:\n      mload(0x40)\n      dup1\n      swap2\n      sub\n      swap1\n      return\n        /* \"Contracts/ContractPatient.sol\":2013:2218  function addMedicalRecord(string memory _recordHash) public onlyRegisteredPatient {\r... */\n    tag_9:\n      tag_38\n      0x04\n      dup1\n      calldatasize\n      sub\n      dup2\n      add\n      swap1\n      tag_39\n      swap2\n      swap1\n      tag_40\n      jump\t// in\n    tag_39:\n      tag_41\n      jump\t// in\n    tag_38:\n      stop\n        /* \"Contracts/ContractPatient.sol\":317:364  mapping(address => PatientData) public patients */\n    tag_14:\n      mstore(0x20, 0x00)\n      dup1\n      0x00\n      mstore\n      keccak256(0x00, 0x40)\n      0x00\n      swap2\n      pop\n      swap1\n      pop\n      dup1\n      0x00\n      add\n      0x00\n      swap1\n      sload\n      swap1\n      0x0100\n      exp\n      swap1\n      div\n      0xffffffffffffffffffffffffffffffffffffffff\n      and\n      swap1\n      dup1\n      0x01\n      add\n      dup1\n      sload\n      tag_42\n      swap1\n      tag_43\n      jump\t// in\n    tag_42:\n      dup1\n      0x1f\n      add\n      0x20\n      dup1\n      swap2\n      div\n      mul\n      0x20\n      add\n      mload(0x40)\n      swap1\n      dup2\n      add\n      0x40\n      mstore\n      dup1\n      swap3\n      swap2\n      swap1\n      dup2\n      dup2\n      mstore\n      0x20\n      add\n      dup3\n      dup1\n      sload\n      tag_44\n      swap1\n      tag_43\n      jump\t// in\n    tag_44:\n      dup1\n      iszero\n      tag_45\n      jumpi\n      dup1\n      0x1f\n      lt\n      tag_46\n      jumpi\n      0x0100\n      dup1\n      dup4\n      sload\n      div\n      mul\n      dup4\n      mstore\n      swap2\n      0x20\n      add\n      swap2\n      jump(tag_45)\n    tag_46:\n      dup3\n      add\n      swap2\n      swap1\n      0x00\n      mstore\n      keccak256(0x00, 0x20)\n      swap1\n    tag_47:\n      dup2\n      sload\n      dup2\n      mstore\n      swap1\n      0x01\n      add\n      swap1\n      0x20\n      add\n      dup1\n      dup4\n      gt\n      tag_47\n      jumpi\n      dup3\n      swap1\n      sub\n      0x1f\n      and\n      dup3\n      add\n      swap2\n    tag_45:\n      pop\n      pop\n      pop\n      pop\n      pop\n      swap1\n      dup1\n      0x02\n      add\n      0x00\n      swap1\n      sload\n      swap1\n      0x0100\n      exp\n      swap1\n      div\n      0xff\n      and\n      swap1\n      pop\n      dup4\n      jump\t// out\n        /* \"Contracts/ContractPatient.sol\":1194:1405  function grantAccess(address _doctorAddress) public onlyRegisteredPatient {\r... */\n    tag_19:\n        /* \"Contracts/ContractPatient.sol\":747:755  patients */\n      0x00\n        /* \"Contracts/ContractPatient.sol\":747:767  patients[msg.sender] */\n      dup1\n        /* \"Contracts/ContractPatient.sol\":756:766  msg.sender */\n      caller\n        /* \"Contracts/ContractPatient.sol\":747:767  patients[msg.sender] */\n      0xffffffffffffffffffffffffffffffffffffffff\n      and\n      0xffffffffffffffffffffffffffffffffffffffff\n      and\n      dup2\n      mstore\n      0x20\n      add\n      swap1\n      dup2\n      mstore\n      0x20\n      add\n      0x00\n      keccak256\n        /* \"Contracts/ContractPatient.sol\":747:780  patients[msg.sender].isRegistered */\n      0x02\n      add\n      0x00\n      swap1\n      sload\n      swap1\n      0x0100\n      exp\n      swap1\n      div\n      0xff\n      and\n        /* \"Contracts/ContractPatient.sol\":739:823  require(patients[msg.sender].isRegistered, \"Vous devez etre un patient enregistre.\") */\n      tag_49\n      jumpi\n      mload(0x40)\n      0x08c379a000000000000000000000000000000000000000000000000000000000\n      dup2\n      mstore\n      0x04\n      add\n      tag_50\n      swap1\n      tag_51\n      jump\t// in\n    tag_50:\n      mload(0x40)\n      dup1\n      swap2\n      sub\n      swap1\n      revert\n    tag_49:\n        /* \"Contracts/ContractPatient.sol\":1336:1340  true */\n      0x01\n        /* \"Contracts/ContractPatient.sol\":1279:1287  patients */\n      0x00\n        /* \"Contracts/ContractPatient.sol\":1279:1299  patients[msg.sender] */\n      dup1\n        /* \"Contracts/ContractPatient.sol\":1288:1298  msg.sender */\n      caller\n        /* \"Contracts/ContractPatient.sol\":1279:1299  patients[msg.sender] */\n      0xffffffffffffffffffffffffffffffffffffffff\n      and\n      0xffffffffffffffffffffffffffffffffffffffff\n      and\n      dup2\n      mstore\n      0x20\n      add\n      swap1\n      dup2\n      mstore\n      0x20\n      add\n      0x00\n      keccak256\n        /* \"Contracts/ContractPatient.sol\":1279:1317  patients[msg.sender].authorizedDoctors */\n      0x03\n      add\n        /* \"Contracts/ContractPatient.sol\":1279:1333  patients[msg.sender].authorizedDoctors[_doctorAddress] */\n      0x00\n        /* \"Contracts/ContractPatient.sol\":1318:1332  _doctorAddress */\n      dup4\n        /* \"Contracts/ContractPatient.sol\":1279:1333  patients[msg.sender].authorizedDoctors[_doctorAddress] */\n      0xffffffffffffffffffffffffffffffffffffffff\n      and\n      0xffffffffffffffffffffffffffffffffffffffff\n      and\n      dup2\n      mstore\n      0x20\n      add\n      swap1\n      dup2\n      mstore\n      0x20\n      add\n      0x00\n      keccak256\n      0x00\n        /* \"Contracts/ContractPatient.sol\":1279:1340  patients[msg.sender].authorizedDoctors[_doctorAddress] = true */\n      0x0100\n      exp\n      dup2\n      sload\n      dup2\n      0xff\n      mul\n      not\n      and\n      swap1\n      dup4\n      iszero\n      iszero\n      mul\n      or\n      swap1\n      sstore\n      pop\n        /* \"Contracts/ContractPatient.sol\":1382:1396  _doctorAddress */\n      dup1\n        /* \"Contracts/ContractPatient.sol\":1356:1397  AccessGranted(msg.sender, _doctorAddress) */\n      0xffffffffffffffffffffffffffffffffffffffff\n      and\n        /* \"Contracts/ContractPatient.sol\":1370:1380  msg.sender */\n      caller\n        /* \"Contracts/ContractPatient.sol\":1356:1397  AccessGranted(msg.sender, _doctorAddress) */\n      0xffffffffffffffffffffffffffffffffffffffff\n      and\n      0x9f520b3bfc56d06f7065d10b4683b3f57ac8895d5026cd176dee95ce1454cb8d\n      mload(0x40)\n      mload(0x40)\n      dup1\n      swap2\n      sub\n      swap1\n      log3\n        /* \"Contracts/ContractPatient.sol\":1194:1405  function grantAccess(address _doctorAddress) public onlyRegisteredPatient {\r... */\n      pop\n      jump\t// out\n        /* \"Contracts/ContractPatient.sol\":1784:2005  function isDoctorAuthorized(address _patientAddress, address _doctorAddress)\r... */\n    tag_23:\n        /* \"Contracts/ContractPatient.sol\":1909:1913  bool */\n      0x00\n        /* \"Contracts/ContractPatient.sol\":1938:1946  patients */\n      dup1\n        /* \"Contracts/ContractPatient.sol\":1938:1963  patients[_patientAddress] */\n      0x00\n        /* \"Contracts/ContractPatient.sol\":1947:1962  _patientAddress */\n      dup5\n        /* \"Contracts/ContractPatient.sol\":1938:1963  patients[_patientAddress] */\n      0xffffffffffffffffffffffffffffffffffffffff\n      and\n      0xffffffffffffffffffffffffffffffffffffffff\n      and\n      dup2\n      mstore\n      0x20\n      add\n      swap1\n      dup2\n      mstore\n      0x20\n      add\n      0x00\n      keccak256\n        /* \"Contracts/ContractPatient.sol\":1938:1981  patients[_patientAddress].authorizedDoctors */\n      0x03\n      add\n        /* \"Contracts/ContractPatient.sol\":1938:1997  patients[_patientAddress].authorizedDoctors[_doctorAddress] */\n      0x00\n        /* \"Contracts/ContractPatient.sol\":1982:1996  _doctorAddress */\n      dup4\n        /* \"Contracts/ContractPatient.sol\":1938:1997  patients[_patientAddress].authorizedDoctors[_doctorAddress] */\n      0xffffffffffffffffffffffffffffffffffffffff\n      and\n      0xffffffffffffffffffffffffffffffffffffffff\n      and\n      dup2\n      mstore\n      0x20\n      add\n      swap1\n      dup2\n      mstore\n      0x20\n      add\n      0x00\n      keccak256\n      0x00\n      swap1\n      sload\n      swap1\n      0x0100\n      exp\n      swap1\n      div\n      0xff\n      and\n        /* \"Contracts/ContractPatient.sol\":1931:1997  return patients[_patientAddress].authorizedDoctors[_doctorAddress] */\n      swap1\n      pop\n        /* \"Contracts/ContractPatient.sol\":1784:2005  function isDoctorAuthorized(address _patientAddress, address _doctorAddress)\r... */\n      swap3\n      swap2\n      pop\n      pop\n      jump\t// out\n        /* \"Contracts/ContractPatient.sol\":851:1186  function registerPatient(address _patientAddress, string memory _name) public {\r... */\n    tag_29:\n        /* \"Contracts/ContractPatient.sol\":949:957  patients */\n      0x00\n        /* \"Contracts/ContractPatient.sol\":949:974  patients[_patientAddress] */\n      dup1\n        /* \"Contracts/ContractPatient.sol\":958:973  _patientAddress */\n      dup4\n        /* \"Contracts/ContractPatient.sol\":949:974  patients[_patientAddress] */\n      0xffffffffffffffffffffffffffffffffffffffff\n      and\n      0xffffffffffffffffffffffffffffffffffffffff\n      and\n      dup2\n      mstore\n      0x20\n      add\n      swap1\n      dup2\n      mstore\n      0x20\n      add\n      0x00\n      keccak256\n        /* \"Contracts/ContractPatient.sol\":949:987  patients[_patientAddress].isRegistered */\n      0x02\n      add\n      0x00\n      swap1\n      sload\n      swap1\n      0x0100\n      exp\n      swap1\n      div\n      0xff\n      and\n        /* \"Contracts/ContractPatient.sol\":948:987  !patients[_patientAddress].isRegistered */\n      iszero\n        /* \"Contracts/ContractPatient.sol\":940:1016  require(!patients[_patientAddress].isRegistered, \"Patient deja enregistre.\") */\n      tag_55\n      jumpi\n      mload(0x40)\n      0x08c379a000000000000000000000000000000000000000000000000000000000\n      dup2\n      mstore\n      0x04\n      add\n      tag_56\n      swap1\n      tag_57\n      jump\t// in\n    tag_56:\n      mload(0x40)\n      dup1\n      swap2\n      sub\n      swap1\n      revert\n    tag_55:\n        /* \"Contracts/ContractPatient.sol\":1068:1072  true */\n      0x01\n        /* \"Contracts/ContractPatient.sol\":1027:1035  patients */\n      0x00\n        /* \"Contracts/ContractPatient.sol\":1027:1052  patients[_patientAddress] */\n      dup1\n        /* \"Contracts/ContractPatient.sol\":1036:1051  _patientAddress */\n      dup5\n        /* \"Contracts/ContractPatient.sol\":1027:1052  patients[_patientAddress] */\n      0xffffffffffffffffffffffffffffffffffffffff\n      and\n      0xffffffffffffffffffffffffffffffffffffffff\n      and\n      dup2\n      mstore\n      0x20\n      add\n      swap1\n      dup2\n      mstore\n      0x20\n      add\n      0x00\n      keccak256\n        /* \"Contracts/ContractPatient.sol\":1027:1065  patients[_patientAddress].isRegistered */\n      0x02\n      add\n      0x00\n        /* \"Contracts/ContractPatient.sol\":1027:1072  patients[_patientAddress].isRegistered = true */\n      0x0100\n      exp\n      dup2\n      sload\n      dup2\n      0xff\n      mul\n      not\n      and\n      swap1\n      dup4\n      iszero\n      iszero\n      mul\n      or\n      swap1\n      sstore\n      pop\n        /* \"Contracts/ContractPatient.sol\":1116:1121  _name */\n      dup1\n        /* \"Contracts/ContractPatient.sol\":1083:1091  patients */\n      0x00\n        /* \"Contracts/ContractPatient.sol\":1083:1108  patients[_patientAddress] */\n      dup1\n        /* \"Contracts/ContractPatient.sol\":1092:1107  _patientAddress */\n      dup5\n        /* \"Contracts/ContractPatient.sol\":1083:1108  patients[_patientAddress] */\n      0xffffffffffffffffffffffffffffffffffffffff\n      and\n      0xffffffffffffffffffffffffffffffffffffffff\n      and\n      dup2\n      mstore\n      0x20\n      add\n      swap1\n      dup2\n      mstore\n      0x20\n      add\n      0x00\n      keccak256\n        /* \"Contracts/ContractPatient.sol\":1083:1113  patients[_patientAddress].name */\n      0x01\n      add\n        /* \"Contracts/ContractPatient.sol\":1083:1121  patients[_patientAddress].name = _name */\n      swap1\n      dup1\n      mload\n      swap1\n      0x20\n      add\n      swap1\n      tag_58\n      swap3\n      swap2\n      swap1\n      tag_59\n      jump\t// in\n    tag_58:\n      pop\n        /* \"Contracts/ContractPatient.sol\":1137:1178  PatientRegistered(_patientAddress, _name) */\n      0xc85b128388b9c331a2a5485dce4cd0f3db9f7c279d327ce95d6d39d6c94644c7\n        /* \"Contracts/ContractPatient.sol\":1155:1170  _patientAddress */\n      dup3\n        /* \"Contracts/ContractPatient.sol\":1172:1177  _name */\n      dup3\n        /* \"Contracts/ContractPatient.sol\":1137:1178  PatientRegistered(_patientAddress, _name) */\n      mload(0x40)\n      tag_60\n      swap3\n      swap2\n      swap1\n      tag_61\n      jump\t// in\n    tag_60:\n      mload(0x40)\n      dup1\n      swap2\n      sub\n      swap1\n      log1\n        /* \"Contracts/ContractPatient.sol\":851:1186  function registerPatient(address _patientAddress, string memory _name) public {\r... */\n      pop\n      pop\n      jump\t// out\n        /* \"Contracts/ContractPatient.sol\":1413:1776  function revokeAccess(address _doctorAddress) public onlyRegisteredPatient {\r... */\n    tag_32:\n        /* \"Contracts/ContractPatient.sol\":747:755  patients */\n      0x00\n        /* \"Contracts/ContractPatient.sol\":747:767  patients[msg.sender] */\n      dup1\n        /* \"Contracts/ContractPatient.sol\":756:766  msg.sender */\n      caller\n        /* \"Contracts/ContractPatient.sol\":747:767  patients[msg.sender] */\n      0xffffffffffffffffffffffffffffffffffffffff\n      and\n      0xffffffffffffffffffffffffffffffffffffffff\n      and\n      dup2\n      mstore\n      0x20\n      add\n      swap1\n      dup2\n      mstore\n      0x20\n      add\n      0x00\n      keccak256\n        /* \"Contracts/ContractPatient.sol\":747:780  patients[msg.sender].isRegistered */\n      0x02\n      add\n      0x00\n      swap1\n      sload\n      swap1\n      0x0100\n      exp\n      swap1\n      div\n      0xff\n      and\n        /* \"Contracts/ContractPatient.sol\":739:823  require(patients[msg.sender].isRegistered, \"Vous devez etre un patient enregistre.\") */\n      tag_63\n      jumpi\n      mload(0x40)\n      0x08c379a000000000000000000000000000000000000000000000000000000000\n      dup2\n      mstore\n      0x04\n      add\n      tag_64\n      swap1\n      tag_51\n      jump\t// in\n    tag_64:\n      mload(0x40)\n      dup1\n      swap2\n      sub\n      swap1\n      revert\n    tag_63:\n        /* \"Contracts/ContractPatient.sol\":1521:1529  patients */\n      0x00\n        /* \"Contracts/ContractPatient.sol\":1521:1541  patients[msg.sender] */\n      dup1\n        /* \"Contracts/ContractPatient.sol\":1530:1540  msg.sender */\n      caller\n        /* \"Contracts/ContractPatient.sol\":1521:1541  patients[msg.sender] */\n      0xffffffffffffffffffffffffffffffffffffffff\n      and\n      0xffffffffffffffffffffffffffffffffffffffff\n      and\n      dup2\n      mstore\n      0x20\n      add\n      swap1\n      dup2\n      mstore\n      0x20\n      add\n      0x00\n      keccak256\n        /* \"Contracts/ContractPatient.sol\":1521:1559  patients[msg.sender].authorizedDoctors */\n      0x03\n      add\n        /* \"Contracts/ContractPatient.sol\":1521:1575  patients[msg.sender].authorizedDoctors[_doctorAddress] */\n      0x00\n        /* \"Contracts/ContractPatient.sol\":1560:1574  _doctorAddress */\n      dup3\n        /* \"Contracts/ContractPatient.sol\":1521:1575  patients[msg.sender].authorizedDoctors[_doctorAddress] */\n      0xffffffffffffffffffffffffffffffffffffffff\n      and\n      0xffffffffffffffffffffffffffffffffffffffff\n      and\n      dup2\n      mstore\n      0x20\n      add\n      swap1\n      dup2\n      mstore\n      0x20\n      add\n      0x00\n      keccak256\n      0x00\n      swap1\n      sload\n      swap1\n      0x0100\n      exp\n      swap1\n      div\n      0xff\n      and\n        /* \"Contracts/ContractPatient.sol\":1499:1638  require(\r... */\n      tag_66\n      jumpi\n      mload(0x40)\n      0x08c379a000000000000000000000000000000000000000000000000000000000\n      dup2\n      mstore\n      0x04\n      add\n      tag_67\n      swap1\n      tag_68\n      jump\t// in\n    tag_67:\n      mload(0x40)\n      dup1\n      swap2\n      sub\n      swap1\n      revert\n    tag_66:\n        /* \"Contracts/ContractPatient.sol\":1706:1711  false */\n      0x00\n        /* \"Contracts/ContractPatient.sol\":1649:1657  patients */\n      dup1\n        /* \"Contracts/ContractPatient.sol\":1649:1669  patients[msg.sender] */\n      0x00\n        /* \"Contracts/ContractPatient.sol\":1658:1668  msg.sender */\n      caller\n        /* \"Contracts/ContractPatient.sol\":1649:1669  patients[msg.sender] */\n      0xffffffffffffffffffffffffffffffffffffffff\n      and\n      0xffffffffffffffffffffffffffffffffffffffff\n      and\n      dup2\n      mstore\n      0x20\n      add\n      swap1\n      dup2\n      mstore\n      0x20\n      add\n      0x00\n      keccak256\n        /* \"Contracts/ContractPatient.sol\":1649:1687  patients[msg.sender].authorizedDoctors */\n      0x03\n      add\n        /* \"Contracts/ContractPatient.sol\":1649:1703  patients[msg.sender].authorizedDoctors[_doctorAddress] */\n      0x00\n        /* \"Contracts/ContractPatient.sol\":1688:1702  _doctorAddress */\n      dup4\n        /* \"Contracts/ContractPatient.sol\":1649:1703  patients[msg.sender].authorizedDoctors[_doctorAddress] */\n      0xffffffffffffffffffffffffffffffffffffffff\n      and\n      0xffffffffffffffffffffffffffffffffffffffff\n      and\n      dup2\n      mstore\n      0x20\n      add\n      swap1\n      dup2\n      mstore\n      0x20\n      add\n      0x00\n      keccak256\n      0x00\n        /* \"Contracts/ContractPatient.sol\":1649:1711  patients[msg.sender].authorizedDoctors[_doctorAddress] = false */\n      0x0100\n      exp\n      dup2\n      sload\n      dup2\n      0xff\n      mul\n      not\n      and\n      swap1\n      dup4\n      iszero\n      iszero\n      mul\n      or\n      swap1\n      sstore\n      pop\n        /* \"Contracts/ContractPatient.sol\":1753:1767  _doctorAddress */\n      dup1\n        /* \"Contracts/ContractPatient.sol\":1727:1768  AccessRevoked(msg.sender, _doctorAddress) */\n      0xffffffffffffffffffffffffffffffffffffffff\n      and\n        /* \"Contracts/ContractPatient.sol\":1741:1751  msg.sender */\n      caller\n        /* \"Contracts/ContractPatient.sol\":1727:1768  AccessRevoked(msg.sender, _doctorAddress) */\n      0xffffffffffffffffffffffffffffffffffffffff\n      and\n      0x825c8be24eb0df19500f63e86c29e7d0d951e73056b889b891d85e40938d9b6e\n      mload(0x40)\n      mload(0x40)\n      dup1\n      swap2\n      sub\n      swap1\n      log3\n        /* \"Contracts/ContractPatient.sol\":1413:1776  function revokeAccess(address _doctorAddress) public onlyRegisteredPatient {\r... */\n      pop\n      jump\t// out\n        /* \"Contracts/ContractPatient.sol\":2226:2374  function getRecords(address _patientAddress) public view returns (string[] memory) {\r... */\n    tag_35:\n        /* \"Contracts/ContractPatient.sol\":2292:2307  string[] memory */\n      0x60\n        /* \"Contracts/ContractPatient.sol\":2327:2335  patients */\n      0x00\n        /* \"Contracts/ContractPatient.sol\":2327:2352  patients[_patientAddress] */\n      dup1\n        /* \"Contracts/ContractPatient.sol\":2336:2351  _patientAddress */\n      dup4\n        /* \"Contracts/ContractPatient.sol\":2327:2352  patients[_patientAddress] */\n      0xffffffffffffffffffffffffffffffffffffffff\n      and\n      0xffffffffffffffffffffffffffffffffffffffff\n      and\n      dup2\n      mstore\n      0x20\n      add\n      swap1\n      dup2\n      mstore\n      0x20\n      add\n      0x00\n      keccak256\n        /* \"Contracts/ContractPatient.sol\":2327:2366  patients[_patientAddress].recordsHashes */\n      0x04\n      add\n        /* \"Contracts/ContractPatient.sol\":2320:2366  return patients[_patientAddress].recordsHashes */\n      dup1\n      sload\n      dup1\n      0x20\n      mul\n      0x20\n      add\n      mload(0x40)\n      swap1\n      dup2\n      add\n      0x40\n      mstore\n      dup1\n      swap3\n      swap2\n      swap1\n      dup2\n      dup2\n      mstore\n      0x20\n      add\n      0x00\n      swap1\n    tag_70:\n      dup3\n      dup3\n      lt\n      iszero\n      tag_71\n      jumpi\n      dup4\n      dup3\n      swap1\n      0x00\n      mstore\n      keccak256(0x00, 0x20)\n      add\n      dup1\n      sload\n      tag_73\n      swap1\n      tag_43\n      jump\t// in\n    tag_73:\n      dup1\n      0x1f\n      add\n      0x20\n      dup1\n      swap2\n      div\n      mul\n      0x20\n      add\n      mload(0x40)\n      swap1\n      dup2\n      add\n      0x40\n      mstore\n      dup1\n      swap3\n      swap2\n      swap1\n      dup2\n      dup2\n      mstore\n      0x20\n      add\n      dup3\n      dup1\n      sload\n      tag_74\n      swap1\n      tag_43\n      jump\t// in\n    tag_74:\n      dup1\n      iszero\n      tag_75\n      jumpi\n      dup1\n      0x1f\n      lt\n      tag_76\n      jumpi\n      0x0100\n      dup1\n      dup4\n      sload\n      div\n      mul\n      dup4\n      mstore\n      swap2\n      0x20\n      add\n      swap2\n      jump(tag_75)\n    tag_76:\n      dup3\n      add\n      swap2\n      swap1\n      0x00\n      mstore\n      keccak256(0x00, 0x20)\n      swap1\n    tag_77:\n      dup2\n      sload\n      dup2\n      mstore\n      swap1\n      0x01\n      add\n      swap1\n      0x20\n      add\n      dup1\n      dup4\n      gt\n      tag_77\n      jumpi\n      dup3\n      swap1\n      sub\n      0x1f\n      and\n      dup3\n      add\n      swap2\n    tag_75:\n      pop\n      pop\n      pop\n      pop\n      pop\n      dup2\n      mstore\n      0x20\n      add\n      swap1\n      0x01\n      add\n      swap1\n      jump(tag_70)\n    tag_71:\n      pop\n      pop\n      pop\n      pop\n      swap1\n      pop\n        /* \"Contracts/ContractPatient.sol\":2226:2374  function getRecords(address _patientAddress) public view returns (string[] memory) {\r... */\n      swap2\n      swap1\n      pop\n      jump\t// out\n        /* \"Contracts/ContractPatient.sol\":2013:2218  function addMedicalRecord(string memory _recordHash) public onlyRegisteredPatient {\r... */\n    tag_41:\n        /* \"Contracts/ContractPatient.sol\":747:755  patients */\n      0x00\n        /* \"Contracts/ContractPatient.sol\":747:767  patients[msg.sender] */\n      dup1\n        /* \"Contracts/ContractPatient.sol\":756:766  msg.sender */\n      caller\n        /* \"Contracts/ContractPatient.sol\":747:767  patients[msg.sender] */\n      0xffffffffffffffffffffffffffffffffffffffff\n      and\n      0xffffffffffffffffffffffffffffffffffffffff\n      and\n      dup2\n      mstore\n      0x20\n      add\n      swap1\n      dup2\n      mstore\n      0x20\n      add\n      0x00\n      keccak256\n        /* \"Contracts/ContractPatient.sol\":747:780  patients[msg.sender].isRegistered */\n      0x02\n      add\n      0x00\n      swap1\n      sload\n      swap1\n      0x0100\n      exp\n      swap1\n      div\n      0xff\n      and\n        /* \"Contracts/ContractPatient.sol\":739:823  require(patients[msg.sender].isRegistered, \"Vous devez etre un patient enregistre.\") */\n      tag_79\n      jumpi\n      mload(0x40)\n      0x08c379a000000000000000000000000000000000000000000000000000000000\n      dup2\n      mstore\n      0x04\n      add\n      tag_80\n      swap1\n      tag_51\n      jump\t// in\n    tag_80:\n      mload(0x40)\n      dup1\n      swap2\n      sub\n      swap1\n      revert\n    tag_79:\n        /* \"Contracts/ContractPatient.sol\":2106:2114  patients */\n      0x00\n        /* \"Contracts/ContractPatient.sol\":2106:2126  patients[msg.sender] */\n      dup1\n        /* \"Contracts/ContractPatient.sol\":2115:2125  msg.sender */\n      caller\n        /* \"Contracts/ContractPatient.sol\":2106:2126  patients[msg.sender] */\n      0xffffffffffffffffffffffffffffffffffffffff\n      and\n      0xffffffffffffffffffffffffffffffffffffffff\n      and\n      dup2\n      mstore\n      0x20\n      add\n      swap1\n      dup2\n      mstore\n      0x20\n      add\n      0x00\n      keccak256\n        /* \"Contracts/ContractPatient.sol\":2106:2140  patients[msg.sender].recordsHashes */\n      0x04\n      add\n        /* \"Contracts/ContractPatient.sol\":2146:2157  _recordHash */\n      dup2\n        /* \"Contracts/ContractPatient.sol\":2106:2158  patients[msg.sender].recordsHashes.push(_recordHash) */\n      swap1\n      dup1\n      0x01\n      dup2\n      sload\n      add\n      dup1\n      dup3\n      sstore\n      dup1\n      swap2\n      pop\n      pop\n      0x01\n      swap1\n      sub\n      swap1\n      0x00\n      mstore\n      keccak256(0x00, 0x20)\n      add\n      0x00\n      swap1\n      swap2\n      swap1\n      swap2\n      swap1\n      swap2\n      pop\n      swap1\n      dup1\n      mload\n      swap1\n      0x20\n      add\n      swap1\n      tag_83\n      swap3\n      swap2\n      swap1\n      tag_59\n      jump\t// in\n    tag_83:\n      pop\n        /* \"Contracts/ContractPatient.sol\":2186:2196  msg.sender */\n      caller\n        /* \"Contracts/ContractPatient.sol\":2174:2210  RecordAdded(msg.sender, _recordHash) */\n      0xffffffffffffffffffffffffffffffffffffffff\n      and\n      0x44626cfec8a165f72396cc5e247c6b96279f8c205a8d07c390df7aa5806205fa\n        /* \"Contracts/ContractPatient.sol\":2198:2209  _recordHash */\n      dup3\n        /* \"Contracts/ContractPatient.sol\":2174:2210  RecordAdded(msg.sender, _recordHash) */\n      mload(0x40)\n      tag_84\n      swap2\n      swap1\n      tag_85\n      jump\t// in\n    tag_84:\n      mload(0x40)\n      dup1\n      swap2\n      sub\n      swap1\n      log2\n        /* \"Contracts/ContractPatient.sol\":2013:2218  function addMedicalRecord(string memory _recordHash) public onlyRegisteredPatient {\r... */\n      pop\n      jump\t// out\n    tag_59:\n      dup3\n      dup1\n      sload\n      tag_86\n      swap1\n      tag_43\n      jump\t// in\n    tag_86:\n      swap1\n      0x00\n      mstore\n      keccak256(0x00, 0x20)\n      swap1\n      0x1f\n      add\n      0x20\n      swap1\n      div\n      dup2\n      add\n      swap3\n      dup3\n      tag_88\n      jumpi\n      0x00\n      dup6\n      sstore\n      jump(tag_87)\n    tag_88:\n      dup3\n      0x1f\n      lt\n      tag_89\n      jumpi\n      dup1\n      mload\n      not(0xff)\n      and\n      dup4\n      dup1\n      add\n      or\n      dup6\n      sstore\n      jump(tag_87)\n    tag_89:\n      dup3\n      dup1\n      add\n      0x01\n      add\n      dup6\n      sstore\n      dup3\n      iszero\n      tag_87\n      jumpi\n      swap2\n      dup3\n      add\n    tag_90:\n      dup3\n      dup2\n      gt\n      iszero\n      tag_91\n      jumpi\n      dup3\n      mload\n      dup3\n      sstore\n      swap2\n      0x20\n      add\n      swap2\n      swap1\n      0x01\n      add\n      swap1\n      jump(tag_90)\n    tag_91:\n    tag_87:\n      pop\n      swap1\n      pop\n      tag_92\n      swap2\n      swap1\n      tag_93\n      jump\t// in\n    tag_92:\n      pop\n      swap1\n      jump\t// out\n    tag_93:\n    tag_94:\n      dup1\n      dup3\n      gt\n      iszero\n      tag_95\n      jumpi\n      0x00\n      dup2\n      0x00\n      swap1\n      sstore\n      pop\n      0x01\n      add\n      jump(tag_94)\n    tag_95:\n      pop\n      swap1\n      jump\t// out\n        /* \"#utility.yul\":7:351   */\n    tag_97:\n      0x00\n        /* \"#utility.yul\":110:175   */\n      tag_99\n        /* \"#utility.yul\":125:174   */\n      tag_100\n        /* \"#utility.yul\":167:173   */\n      dup5\n        /* \"#utility.yul\":125:174   */\n      tag_101\n      jump\t// in\n    tag_100:\n        /* \"#utility.yul\":110:175   */\n      tag_102\n      jump\t// in\n    tag_99:\n        /* \"#utility.yul\":101:175   */\n      swap1\n      pop\n        /* \"#utility.yul\":198:204   */\n      dup3\n        /* \"#utility.yul\":191:196   */\n      dup2\n        /* \"#utility.yul\":184:205   */\n      mstore\n        /* \"#utility.yul\":236:240   */\n      0x20\n        /* \"#utility.yul\":229:234   */\n      dup2\n        /* \"#utility.yul\":225:241   */\n      add\n        /* \"#utility.yul\":274:277   */\n      dup5\n        /* \"#utility.yul\":265:271   */\n      dup5\n        /* \"#utility.yul\":260:263   */\n      dup5\n        /* \"#utility.yul\":256:272   */\n      add\n        /* \"#utility.yul\":253:278   */\n      gt\n        /* \"#utility.yul\":250:252   */\n      iszero\n      tag_103\n      jumpi\n        /* \"#utility.yul\":291:292   */\n      0x00\n        /* \"#utility.yul\":288:289   */\n      dup1\n        /* \"#utility.yul\":281:293   */\n      revert\n        /* \"#utility.yul\":250:252   */\n    tag_103:\n        /* \"#utility.yul\":304:345   */\n      tag_104\n        /* \"#utility.yul\":338:344   */\n      dup5\n        /* \"#utility.yul\":333:336   */\n      dup3\n        /* \"#utility.yul\":328:331   */\n      dup6\n        /* \"#utility.yul\":304:345   */\n      tag_105\n      jump\t// in\n    tag_104:\n        /* \"#utility.yul\":91:351   */\n      pop\n      swap4\n      swap3\n      pop\n      pop\n      pop\n      jump\t// out\n        /* \"#utility.yul\":357:496   */\n    tag_106:\n      0x00\n        /* \"#utility.yul\":441:447   */\n      dup2\n        /* \"#utility.yul\":428:448   */\n      calldataload\n        /* \"#utility.yul\":419:448   */\n      swap1\n      pop\n        /* \"#utility.yul\":457:490   */\n      tag_108\n        /* \"#utility.yul\":484:489   */\n      dup2\n        /* \"#utility.yul\":457:490   */\n      tag_109\n      jump\t// in\n    tag_108:\n        /* \"#utility.yul\":409:496   */\n      swap3\n      swap2\n      pop\n      pop\n      jump\t// out\n        /* \"#utility.yul\":516:789   */\n    tag_110:\n      0x00\n        /* \"#utility.yul\":621:624   */\n      dup3\n        /* \"#utility.yul\":614:618   */\n      0x1f\n        /* \"#utility.yul\":606:612   */\n      dup4\n        /* \"#utility.yul\":602:619   */\n      add\n        /* \"#utility.yul\":598:625   */\n      slt\n        /* \"#utility.yul\":588:590   */\n      tag_112\n      jumpi\n        /* \"#utility.yul\":639:640   */\n      0x00\n        /* \"#utility.yul\":636:637   */\n      dup1\n        /* \"#utility.yul\":629:641   */\n      revert\n        /* \"#utility.yul\":588:590   */\n    tag_112:\n        /* \"#utility.yul\":679:685   */\n      dup2\n        /* \"#utility.yul\":666:686   */\n      calldataload\n        /* \"#utility.yul\":704:783   */\n      tag_113\n        /* \"#utility.yul\":779:782   */\n      dup5\n        /* \"#utility.yul\":771:777   */\n      dup3\n        /* \"#utility.yul\":764:768   */\n      0x20\n        /* \"#utility.yul\":756:762   */\n      dup7\n        /* \"#utility.yul\":752:769   */\n      add\n        /* \"#utility.yul\":704:783   */\n      tag_97\n      jump\t// in\n    tag_113:\n        /* \"#utility.yul\":695:783   */\n      swap2\n      pop\n        /* \"#utility.yul\":578:789   */\n      pop\n      swap3\n      swap2\n      pop\n      pop\n      jump\t// out\n        /* \"#utility.yul\":795:1057   */\n    tag_13:\n      0x00\n        /* \"#utility.yul\":903:905   */\n      0x20\n        /* \"#utility.yul\":891:900   */\n      dup3\n        /* \"#utility.yul\":882:889   */\n      dup5\n        /* \"#utility.yul\":878:901   */\n      sub\n        /* \"#utility.yul\":874:906   */\n      slt\n        /* \"#utility.yul\":871:873   */\n      iszero\n      tag_115\n      jumpi\n        /* \"#utility.yul\":919:920   */\n      0x00\n        /* \"#utility.yul\":916:917   */\n      dup1\n        /* \"#utility.yul\":909:921   */\n      revert\n        /* \"#utility.yul\":871:873   */\n    tag_115:\n        /* \"#utility.yul\":962:963   */\n      0x00\n        /* \"#utility.yul\":987:1040   */\n      tag_116\n        /* \"#utility.yul\":1032:1039   */\n      dup5\n        /* \"#utility.yul\":1023:1029   */\n      dup3\n        /* \"#utility.yul\":1012:1021   */\n      dup6\n        /* \"#utility.yul\":1008:1030   */\n      add\n        /* \"#utility.yul\":987:1040   */\n      tag_106\n      jump\t// in\n    tag_116:\n        /* \"#utility.yul\":977:1040   */\n      swap2\n      pop\n        /* \"#utility.yul\":933:1050   */\n      pop\n        /* \"#utility.yul\":861:1057   */\n      swap3\n      swap2\n      pop\n      pop\n      jump\t// out\n        /* \"#utility.yul\":1063:1470   */\n    tag_22:\n      0x00\n      dup1\n        /* \"#utility.yul\":1188:1190   */\n      0x40\n        /* \"#utility.yul\":1176:1185   */\n      dup4\n        /* \"#utility.yul\":1167:1174   */\n      dup6\n        /* \"#utility.yul\":1163:1186   */\n      sub\n        /* \"#utility.yul\":1159:1191   */\n      slt\n        /* \"#utility.yul\":1156:1158   */\n      iszero\n      tag_118\n      jumpi\n        /* \"#utility.yul\":1204:1205   */\n      0x00\n        /* \"#utility.yul\":1201:1202   */\n      dup1\n        /* \"#utility.yul\":1194:1206   */\n      revert\n        /* \"#utility.yul\":1156:1158   */\n    tag_118:\n        /* \"#utility.yul\":1247:1248   */\n      0x00\n        /* \"#utility.yul\":1272:1325   */\n      tag_119\n        /* \"#utility.yul\":1317:1324   */\n      dup6\n        /* \"#utility.yul\":1308:1314   */\n      dup3\n        /* \"#utility.yul\":1297:1306   */\n      dup7\n        /* \"#utility.yul\":1293:1315   */\n      add\n        /* \"#utility.yul\":1272:1325   */\n      tag_106\n      jump\t// in\n    tag_119:\n        /* \"#utility.yul\":1262:1325   */\n      swap3\n      pop\n        /* \"#utility.yul\":1218:1335   */\n      pop\n        /* \"#utility.yul\":1374:1376   */\n      0x20\n        /* \"#utility.yul\":1400:1453   */\n      tag_120\n        /* \"#utility.yul\":1445:1452   */\n      dup6\n        /* \"#utility.yul\":1436:1442   */\n      dup3\n        /* \"#utility.yul\":1425:1434   */\n      dup7\n        /* \"#utility.yul\":1421:1443   */\n      add\n        /* \"#utility.yul\":1400:1453   */\n      tag_106\n      jump\t// in\n    tag_120:\n        /* \"#utility.yul\":1390:1453   */\n      swap2\n      pop\n        /* \"#utility.yul\":1345:1463   */\n      pop\n        /* \"#utility.yul\":1146:1470   */\n      swap3\n      pop\n      swap3\n      swap1\n      pop\n      jump\t// out\n        /* \"#utility.yul\":1476:1996   */\n    tag_28:\n      0x00\n      dup1\n        /* \"#utility.yul\":1611:1613   */\n      0x40\n        /* \"#utility.yul\":1599:1608   */\n      dup4\n        /* \"#utility.yul\":1590:1597   */\n      dup6\n        /* \"#utility.yul\":1586:1609   */\n      sub\n        /* \"#utility.yul\":1582:1614   */\n      slt\n        /* \"#utility.yul\":1579:1581   */\n      iszero\n      tag_122\n      jumpi\n        /* \"#utility.yul\":1627:1628   */\n      0x00\n        /* \"#utility.yul\":1624:1625   */\n      dup1\n        /* \"#utility.yul\":1617:1629   */\n      revert\n        /* \"#utility.yul\":1579:1581   */\n    tag_122:\n        /* \"#utility.yul\":1670:1671   */\n      0x00\n        /* \"#utility.yul\":1695:1748   */\n      tag_123\n        /* \"#utility.yul\":1740:1747   */\n      dup6\n        /* \"#utility.yul\":1731:1737   */\n      dup3\n        /* \"#utility.yul\":1720:1729   */\n      dup7\n        /* \"#utility.yul\":1716:1738   */\n      add\n        /* \"#utility.yul\":1695:1748   */\n      tag_106\n      jump\t// in\n    tag_123:\n        /* \"#utility.yul\":1685:1748   */\n      swap3\n      pop\n        /* \"#utility.yul\":1641:1758   */\n      pop\n        /* \"#utility.yul\":1825:1827   */\n      0x20\n        /* \"#utility.yul\":1814:1823   */\n      dup4\n        /* \"#utility.yul\":1810:1828   */\n      add\n        /* \"#utility.yul\":1797:1829   */\n      calldataload\n        /* \"#utility.yul\":1856:1874   */\n      0xffffffffffffffff\n        /* \"#utility.yul\":1848:1854   */\n      dup2\n        /* \"#utility.yul\":1845:1875   */\n      gt\n        /* \"#utility.yul\":1842:1844   */\n      iszero\n      tag_124\n      jumpi\n        /* \"#utility.yul\":1888:1889   */\n      0x00\n        /* \"#utility.yul\":1885:1886   */\n      dup1\n        /* \"#utility.yul\":1878:1890   */\n      revert\n        /* \"#utility.yul\":1842:1844   */\n    tag_124:\n        /* \"#utility.yul\":1916:1979   */\n      tag_125\n        /* \"#utility.yul\":1971:1978   */\n      dup6\n        /* \"#utility.yul\":1962:1968   */\n      dup3\n        /* \"#utility.yul\":1951:1960   */\n      dup7\n        /* \"#utility.yul\":1947:1969   */\n      add\n        /* \"#utility.yul\":1916:1979   */\n      tag_110\n      jump\t// in\n    tag_125:\n        /* \"#utility.yul\":1906:1979   */\n      swap2\n      pop\n        /* \"#utility.yul\":1768:1989   */\n      pop\n        /* \"#utility.yul\":1569:1996   */\n      swap3\n      pop\n      swap3\n      swap1\n      pop\n      jump\t// out\n        /* \"#utility.yul\":2002:2377   */\n    tag_40:\n      0x00\n        /* \"#utility.yul\":2120:2122   */\n      0x20\n        /* \"#utility.yul\":2108:2117   */\n      dup3\n        /* \"#utility.yul\":2099:2106   */\n      dup5\n        /* \"#utility.yul\":2095:2118   */\n      sub\n        /* \"#utility.yul\":2091:2123   */\n      slt\n        /* \"#utility.yul\":2088:2090   */\n      iszero\n      tag_127\n      jumpi\n        /* \"#utility.yul\":2136:2137   */\n      0x00\n        /* \"#utility.yul\":2133:2134   */\n      dup1\n        /* \"#utility.yul\":2126:2138   */\n      revert\n        /* \"#utility.yul\":2088:2090   */\n    tag_127:\n        /* \"#utility.yul\":2207:2208   */\n      0x00\n        /* \"#utility.yul\":2196:2205   */\n      dup3\n        /* \"#utility.yul\":2192:2209   */\n      add\n        /* \"#utility.yul\":2179:2210   */\n      calldataload\n        /* \"#utility.yul\":2237:2255   */\n      0xffffffffffffffff\n        /* \"#utility.yul\":2229:2235   */\n      dup2\n        /* \"#utility.yul\":2226:2256   */\n      gt\n        /* \"#utility.yul\":2223:2225   */\n      iszero\n      tag_128\n      jumpi\n        /* \"#utility.yul\":2269:2270   */\n      0x00\n        /* \"#utility.yul\":2266:2267   */\n      dup1\n        /* \"#utility.yul\":2259:2271   */\n      revert\n        /* \"#utility.yul\":2223:2225   */\n    tag_128:\n        /* \"#utility.yul\":2297:2360   */\n      tag_129\n        /* \"#utility.yul\":2352:2359   */\n      dup5\n        /* \"#utility.yul\":2343:2349   */\n      dup3\n        /* \"#utility.yul\":2332:2341   */\n      dup6\n        /* \"#utility.yul\":2328:2350   */\n      add\n        /* \"#utility.yul\":2297:2360   */\n      tag_110\n      jump\t// in\n    tag_129:\n        /* \"#utility.yul\":2287:2360   */\n      swap2\n      pop\n        /* \"#utility.yul\":2150:2370   */\n      pop\n        /* \"#utility.yul\":2078:2377   */\n      swap3\n      swap2\n      pop\n      pop\n      jump\t// out\n        /* \"#utility.yul\":2383:2579   */\n    tag_130:\n      0x00\n        /* \"#utility.yul\":2507:2573   */\n      tag_132\n        /* \"#utility.yul\":2569:2572   */\n      dup4\n        /* \"#utility.yul\":2561:2567   */\n      dup4\n        /* \"#utility.yul\":2507:2573   */\n      tag_133\n      jump\t// in\n    tag_132:\n        /* \"#utility.yul\":2493:2573   */\n      swap1\n      pop\n        /* \"#utility.yul\":2483:2579   */\n      swap3\n      swap2\n      pop\n      pop\n      jump\t// out\n        /* \"#utility.yul\":2585:2703   */\n    tag_134:\n        /* \"#utility.yul\":2672:2696   */\n      tag_136\n        /* \"#utility.yul\":2690:2695   */\n      dup2\n        /* \"#utility.yul\":2672:2696   */\n      tag_137\n      jump\t// in\n    tag_136:\n        /* \"#utility.yul\":2667:2670   */\n      dup3\n        /* \"#utility.yul\":2660:2697   */\n      mstore\n        /* \"#utility.yul\":2650:2703   */\n      pop\n      pop\n      jump\t// out\n        /* \"#utility.yul\":2737:3728   */\n    tag_138:\n      0x00\n        /* \"#utility.yul\":2905:2969   */\n      tag_140\n        /* \"#utility.yul\":2963:2968   */\n      dup3\n        /* \"#utility.yul\":2905:2969   */\n      tag_141\n      jump\t// in\n    tag_140:\n        /* \"#utility.yul\":2985:3081   */\n      tag_142\n        /* \"#utility.yul\":3074:3080   */\n      dup2\n        /* \"#utility.yul\":3069:3072   */\n      dup6\n        /* \"#utility.yul\":2985:3081   */\n      tag_143\n      jump\t// in\n    tag_142:\n        /* \"#utility.yul\":2978:3081   */\n      swap4\n      pop\n        /* \"#utility.yul\":3107:3110   */\n      dup4\n        /* \"#utility.yul\":3152:3156   */\n      0x20\n        /* \"#utility.yul\":3144:3150   */\n      dup3\n        /* \"#utility.yul\":3140:3157   */\n      mul\n        /* \"#utility.yul\":3135:3138   */\n      dup6\n        /* \"#utility.yul\":3131:3158   */\n      add\n        /* \"#utility.yul\":3182:3248   */\n      tag_144\n        /* \"#utility.yul\":3242:3247   */\n      dup6\n        /* \"#utility.yul\":3182:3248   */\n      tag_145\n      jump\t// in\n    tag_144:\n        /* \"#utility.yul\":3271:3278   */\n      dup1\n        /* \"#utility.yul\":3302:3303   */\n      0x00\n        /* \"#utility.yul\":3287:3683   */\n    tag_146:\n        /* \"#utility.yul\":3312:3318   */\n      dup6\n        /* \"#utility.yul\":3309:3310   */\n      dup2\n        /* \"#utility.yul\":3306:3319   */\n      lt\n        /* \"#utility.yul\":3287:3683   */\n      iszero\n      tag_148\n      jumpi\n        /* \"#utility.yul\":3383:3392   */\n      dup5\n        /* \"#utility.yul\":3377:3381   */\n      dup5\n        /* \"#utility.yul\":3373:3393   */\n      sub\n        /* \"#utility.yul\":3368:3371   */\n      dup10\n        /* \"#utility.yul\":3361:3394   */\n      mstore\n        /* \"#utility.yul\":3434:3440   */\n      dup2\n        /* \"#utility.yul\":3428:3441   */\n      mload\n        /* \"#utility.yul\":3462:3546   */\n      tag_149\n        /* \"#utility.yul\":3541:3545   */\n      dup6\n        /* \"#utility.yul\":3526:3539   */\n      dup3\n        /* \"#utility.yul\":3462:3546   */\n      tag_130\n      jump\t// in\n    tag_149:\n        /* \"#utility.yul\":3454:3546   */\n      swap5\n      pop\n        /* \"#utility.yul\":3569:3639   */\n      tag_150\n        /* \"#utility.yul\":3632:3638   */\n      dup4\n        /* \"#utility.yul\":3569:3639   */\n      tag_151\n      jump\t// in\n    tag_150:\n        /* \"#utility.yul\":3559:3639   */\n      swap3\n      pop\n        /* \"#utility.yul\":3668:3672   */\n      0x20\n        /* \"#utility.yul\":3663:3666   */\n      dup11\n        /* \"#utility.yul\":3659:3673   */\n      add\n        /* \"#utility.yul\":3652:3673   */\n      swap10\n      pop\n        /* \"#utility.yul\":3347:3683   */\n      pop\n        /* \"#utility.yul\":3334:3335   */\n      0x01\n        /* \"#utility.yul\":3331:3332   */\n      dup2\n        /* \"#utility.yul\":3327:3336   */\n      add\n        /* \"#utility.yul\":3322:3336   */\n      swap1\n      pop\n        /* \"#utility.yul\":3287:3683   */\n      jump(tag_146)\n    tag_148:\n        /* \"#utility.yul\":3291:3305   */\n      pop\n        /* \"#utility.yul\":3699:3703   */\n      dup3\n        /* \"#utility.yul\":3692:3703   */\n      swap8\n      pop\n        /* \"#utility.yul\":3719:3722   */\n      dup8\n        /* \"#utility.yul\":3712:3722   */\n      swap6\n      pop\n        /* \"#utility.yul\":2881:3728   */\n      pop\n      pop\n      pop\n      pop\n      pop\n      swap3\n      swap2\n      pop\n      pop\n      jump\t// out\n        /* \"#utility.yul\":3734:3843   */\n    tag_152:\n        /* \"#utility.yul\":3815:3836   */\n      tag_154\n        /* \"#utility.yul\":3830:3835   */\n      dup2\n        /* \"#utility.yul\":3815:3836   */\n      tag_155\n      jump\t// in\n    tag_154:\n        /* \"#utility.yul\":3810:3813   */\n      dup3\n        /* \"#utility.yul\":3803:3837   */\n      mstore\n        /* \"#utility.yul\":3793:3843   */\n      pop\n      pop\n      jump\t// out\n        /* \"#utility.yul\":3849:4193   */\n    tag_133:\n      0x00\n        /* \"#utility.yul\":3955:3994   */\n      tag_157\n        /* \"#utility.yul\":3988:3993   */\n      dup3\n        /* \"#utility.yul\":3955:3994   */\n      tag_158\n      jump\t// in\n    tag_157:\n        /* \"#utility.yul\":4010:4071   */\n      tag_159\n        /* \"#utility.yul\":4064:4070   */\n      dup2\n        /* \"#utility.yul\":4059:4062   */\n      dup6\n        /* \"#utility.yul\":4010:4071   */\n      tag_160\n      jump\t// in\n    tag_159:\n        /* \"#utility.yul\":4003:4071   */\n      swap4\n      pop\n        /* \"#utility.yul\":4080:4132   */\n      tag_161\n        /* \"#utility.yul\":4125:4131   */\n      dup2\n        /* \"#utility.yul\":4120:4123   */\n      dup6\n        /* \"#utility.yul\":4113:4117   */\n      0x20\n        /* \"#utility.yul\":4106:4111   */\n      dup7\n        /* \"#utility.yul\":4102:4118   */\n      add\n        /* \"#utility.yul\":4080:4132   */\n      tag_162\n      jump\t// in\n    tag_161:\n        /* \"#utility.yul\":4157:4186   */\n      tag_163\n        /* \"#utility.yul\":4179:4185   */\n      dup2\n        /* \"#utility.yul\":4157:4186   */\n      tag_164\n      jump\t// in\n    tag_163:\n        /* \"#utility.yul\":4152:4155   */\n      dup5\n        /* \"#utility.yul\":4148:4187   */\n      add\n        /* \"#utility.yul\":4141:4187   */\n      swap2\n      pop\n        /* \"#utility.yul\":3931:4193   */\n      pop\n      swap3\n      swap2\n      pop\n      pop\n      jump\t// out\n        /* \"#utility.yul\":4199:4563   */\n    tag_165:\n      0x00\n        /* \"#utility.yul\":4315:4354   */\n      tag_167\n        /* \"#utility.yul\":4348:4353   */\n      dup3\n        /* \"#utility.yul\":4315:4354   */\n      tag_158\n      jump\t// in\n    tag_167:\n        /* \"#utility.yul\":4370:4441   */\n      tag_168\n        /* \"#utility.yul\":4434:4440   */\n      dup2\n        /* \"#utility.yul\":4429:4432   */\n      dup6\n        /* \"#utility.yul\":4370:4441   */\n      tag_169\n      jump\t// in\n    tag_168:\n        /* \"#utility.yul\":4363:4441   */\n      swap4\n      pop\n        /* \"#utility.yul\":4450:4502   */\n      tag_170\n        /* \"#utility.yul\":4495:4501   */\n      dup2\n        /* \"#utility.yul\":4490:4493   */\n      dup6\n        /* \"#utility.yul\":4483:4487   */\n      0x20\n        /* \"#utility.yul\":4476:4481   */\n      dup7\n        /* \"#utility.yul\":4472:4488   */\n      add\n        /* \"#utility.yul\":4450:4502   */\n      tag_162\n      jump\t// in\n    tag_170:\n        /* \"#utility.yul\":4527:4556   */\n      tag_171\n        /* \"#utility.yul\":4549:4555   */\n      dup2\n        /* \"#utility.yul\":4527:4556   */\n      tag_164\n      jump\t// in\n    tag_171:\n        /* \"#utility.yul\":4522:4525   */\n      dup5\n        /* \"#utility.yul\":4518:4557   */\n      add\n        /* \"#utility.yul\":4511:4557   */\n      swap2\n      pop\n        /* \"#utility.yul\":4291:4563   */\n      pop\n      swap3\n      swap2\n      pop\n      pop\n      jump\t// out\n        /* \"#utility.yul\":4569:4891   */\n    tag_172:\n      0x00\n        /* \"#utility.yul\":4732:4799   */\n      tag_174\n        /* \"#utility.yul\":4796:4798   */\n      0x18\n        /* \"#utility.yul\":4791:4794   */\n      dup4\n        /* \"#utility.yul\":4732:4799   */\n      tag_169\n      jump\t// in\n    tag_174:\n        /* \"#utility.yul\":4725:4799   */\n      swap2\n      pop\n        /* \"#utility.yul\":4829:4855   */\n      0x50617469656e742064656a6120656e72656769737472652e0000000000000000\n        /* \"#utility.yul\":4825:4826   */\n      0x00\n        /* \"#utility.yul\":4820:4823   */\n      dup4\n        /* \"#utility.yul\":4816:4827   */\n      add\n        /* \"#utility.yul\":4809:4856   */\n      mstore\n        /* \"#utility.yul\":4882:4884   */\n      0x20\n        /* \"#utility.yul\":4877:4880   */\n      dup3\n        /* \"#utility.yul\":4873:4885   */\n      add\n        /* \"#utility.yul\":4866:4885   */\n      swap1\n      pop\n        /* \"#utility.yul\":4715:4891   */\n      swap2\n      swap1\n      pop\n      jump\t// out\n        /* \"#utility.yul\":4897:5267   */\n    tag_175:\n      0x00\n        /* \"#utility.yul\":5060:5127   */\n      tag_177\n        /* \"#utility.yul\":5124:5126   */\n      0x26\n        /* \"#utility.yul\":5119:5122   */\n      dup4\n        /* \"#utility.yul\":5060:5127   */\n      tag_169\n      jump\t// in\n    tag_177:\n        /* \"#utility.yul\":5053:5127   */\n      swap2\n      pop\n        /* \"#utility.yul\":5157:5191   */\n      0x566f757320646576657a206574726520756e2070617469656e7420656e726567\n        /* \"#utility.yul\":5153:5154   */\n      0x00\n        /* \"#utility.yul\":5148:5151   */\n      dup4\n        /* \"#utility.yul\":5144:5155   */\n      add\n        /* \"#utility.yul\":5137:5192   */\n      mstore\n        /* \"#utility.yul\":5223:5231   */\n      0x69737472652e0000000000000000000000000000000000000000000000000000\n        /* \"#utility.yul\":5218:5220   */\n      0x20\n        /* \"#utility.yul\":5213:5216   */\n      dup4\n        /* \"#utility.yul\":5209:5221   */\n      add\n        /* \"#utility.yul\":5202:5232   */\n      mstore\n        /* \"#utility.yul\":5258:5260   */\n      0x40\n        /* \"#utility.yul\":5253:5256   */\n      dup3\n        /* \"#utility.yul\":5249:5261   */\n      add\n        /* \"#utility.yul\":5242:5261   */\n      swap1\n      pop\n        /* \"#utility.yul\":5043:5267   */\n      swap2\n      swap1\n      pop\n      jump\t// out\n        /* \"#utility.yul\":5273:5640   */\n    tag_178:\n      0x00\n        /* \"#utility.yul\":5436:5503   */\n      tag_180\n        /* \"#utility.yul\":5500:5502   */\n      0x23\n        /* \"#utility.yul\":5495:5498   */\n      dup4\n        /* \"#utility.yul\":5436:5503   */\n      tag_169\n      jump\t// in\n    tag_180:\n        /* \"#utility.yul\":5429:5503   */\n      swap2\n      pop\n        /* \"#utility.yul\":5533:5567   */\n      0x41636365732064656a61207265766f717565206f75206e6f6e206175746f7269\n        /* \"#utility.yul\":5529:5530   */\n      0x00\n        /* \"#utility.yul\":5524:5527   */\n      dup4\n        /* \"#utility.yul\":5520:5531   */\n      add\n        /* \"#utility.yul\":5513:5568   */\n      mstore\n        /* \"#utility.yul\":5599:5604   */\n      0x73652e0000000000000000000000000000000000000000000000000000000000\n        /* \"#utility.yul\":5594:5596   */\n      0x20\n        /* \"#utility.yul\":5589:5592   */\n      dup4\n        /* \"#utility.yul\":5585:5597   */\n      add\n        /* \"#utility.yul\":5578:5605   */\n      mstore\n        /* \"#utility.yul\":5631:5633   */\n      0x40\n        /* \"#utility.yul\":5626:5629   */\n      dup3\n        /* \"#utility.yul\":5622:5634   */\n      add\n        /* \"#utility.yul\":5615:5634   */\n      swap1\n      pop\n        /* \"#utility.yul\":5419:5640   */\n      swap2\n      swap1\n      pop\n      jump\t// out\n        /* \"#utility.yul\":5646:6069   */\n    tag_61:\n      0x00\n        /* \"#utility.yul\":5825:5827   */\n      0x40\n        /* \"#utility.yul\":5814:5823   */\n      dup3\n        /* \"#utility.yul\":5810:5828   */\n      add\n        /* \"#utility.yul\":5802:5828   */\n      swap1\n      pop\n        /* \"#utility.yul\":5838:5909   */\n      tag_182\n        /* \"#utility.yul\":5906:5907   */\n      0x00\n        /* \"#utility.yul\":5895:5904   */\n      dup4\n        /* \"#utility.yul\":5891:5908   */\n      add\n        /* \"#utility.yul\":5882:5888   */\n      dup6\n        /* \"#utility.yul\":5838:5909   */\n      tag_134\n      jump\t// in\n    tag_182:\n        /* \"#utility.yul\":5956:5965   */\n      dup2\n        /* \"#utility.yul\":5950:5954   */\n      dup2\n        /* \"#utility.yul\":5946:5966   */\n      sub\n        /* \"#utility.yul\":5941:5943   */\n      0x20\n        /* \"#utility.yul\":5930:5939   */\n      dup4\n        /* \"#utility.yul\":5926:5944   */\n      add\n        /* \"#utility.yul\":5919:5967   */\n      mstore\n        /* \"#utility.yul\":5984:6062   */\n      tag_183\n        /* \"#utility.yul\":6057:6061   */\n      dup2\n        /* \"#utility.yul\":6048:6054   */\n      dup5\n        /* \"#utility.yul\":5984:6062   */\n      tag_165\n      jump\t// in\n    tag_183:\n        /* \"#utility.yul\":5976:6062   */\n      swap1\n      pop\n        /* \"#utility.yul\":5792:6069   */\n      swap4\n      swap3\n      pop\n      pop\n      pop\n      jump\t// out\n        /* \"#utility.yul\":6075:6596   */\n    tag_16:\n      0x00\n        /* \"#utility.yul\":6276:6278   */\n      0x60\n        /* \"#utility.yul\":6265:6274   */\n      dup3\n        /* \"#utility.yul\":6261:6279   */\n      add\n        /* \"#utility.yul\":6253:6279   */\n      swap1\n      pop\n        /* \"#utility.yul\":6289:6360   */\n      tag_185\n        /* \"#utility.yul\":6357:6358   */\n      0x00\n        /* \"#utility.yul\":6346:6355   */\n      dup4\n        /* \"#utility.yul\":6342:6359   */\n      add\n        /* \"#utility.yul\":6333:6339   */\n      dup7\n        /* \"#utility.yul\":6289:6360   */\n      tag_134\n      jump\t// in\n    tag_185:\n        /* \"#utility.yul\":6407:6416   */\n      dup2\n        /* \"#utility.yul\":6401:6405   */\n      dup2\n        /* \"#utility.yul\":6397:6417   */\n      sub\n        /* \"#utility.yul\":6392:6394   */\n      0x20\n        /* \"#utility.yul\":6381:6390   */\n      dup4\n        /* \"#utility.yul\":6377:6395   */\n      add\n        /* \"#utility.yul\":6370:6418   */\n      mstore\n        /* \"#utility.yul\":6435:6513   */\n      tag_186\n        /* \"#utility.yul\":6508:6512   */\n      dup2\n        /* \"#utility.yul\":6499:6505   */\n      dup6\n        /* \"#utility.yul\":6435:6513   */\n      tag_165\n      jump\t// in\n    tag_186:\n        /* \"#utility.yul\":6427:6513   */\n      swap1\n      pop\n        /* \"#utility.yul\":6523:6589   */\n      tag_187\n        /* \"#utility.yul\":6585:6587   */\n      0x40\n        /* \"#utility.yul\":6574:6583   */\n      dup4\n        /* \"#utility.yul\":6570:6588   */\n      add\n        /* \"#utility.yul\":6561:6567   */\n      dup5\n        /* \"#utility.yul\":6523:6589   */\n      tag_152\n      jump\t// in\n    tag_187:\n        /* \"#utility.yul\":6243:6596   */\n      swap5\n      swap4\n      pop\n      pop\n      pop\n      pop\n      jump\t// out\n        /* \"#utility.yul\":6602:7015   */\n    tag_37:\n      0x00\n        /* \"#utility.yul\":6803:6805   */\n      0x20\n        /* \"#utility.yul\":6792:6801   */\n      dup3\n        /* \"#utility.yul\":6788:6806   */\n      add\n        /* \"#utility.yul\":6780:6806   */\n      swap1\n      pop\n        /* \"#utility.yul\":6852:6861   */\n      dup2\n        /* \"#utility.yul\":6846:6850   */\n      dup2\n        /* \"#utility.yul\":6842:6862   */\n      sub\n        /* \"#utility.yul\":6838:6839   */\n      0x00\n        /* \"#utility.yul\":6827:6836   */\n      dup4\n        /* \"#utility.yul\":6823:6840   */\n      add\n        /* \"#utility.yul\":6816:6863   */\n      mstore\n        /* \"#utility.yul\":6880:7008   */\n      tag_189\n        /* \"#utility.yul\":7003:7007   */\n      dup2\n        /* \"#utility.yul\":6994:7000   */\n      dup5\n        /* \"#utility.yul\":6880:7008   */\n      tag_138\n      jump\t// in\n    tag_189:\n        /* \"#utility.yul\":6872:7008   */\n      swap1\n      pop\n        /* \"#utility.yul\":6770:7015   */\n      swap3\n      swap2\n      pop\n      pop\n      jump\t// out\n        /* \"#utility.yul\":7021:7231   */\n    tag_25:\n      0x00\n        /* \"#utility.yul\":7146:7148   */\n      0x20\n        /* \"#utility.yul\":7135:7144   */\n      dup3\n        /* \"#utility.yul\":7131:7149   */\n      add\n        /* \"#utility.yul\":7123:7149   */\n      swap1\n      pop\n        /* \"#utility.yul\":7159:7224   */\n      tag_191\n        /* \"#utility.yul\":7221:7222   */\n      0x00\n        /* \"#utility.yul\":7210:7219   */\n      dup4\n        /* \"#utility.yul\":7206:7223   */\n      add\n        /* \"#utility.yul\":7197:7203   */\n      dup5\n        /* \"#utility.yul\":7159:7224   */\n      tag_152\n      jump\t// in\n    tag_191:\n        /* \"#utility.yul\":7113:7231   */\n      swap3\n      swap2\n      pop\n      pop\n      jump\t// out\n        /* \"#utility.yul\":7237:7550   */\n    tag_85:\n      0x00\n        /* \"#utility.yul\":7388:7390   */\n      0x20\n        /* \"#utility.yul\":7377:7386   */\n      dup3\n        /* \"#utility.yul\":7373:7391   */\n      add\n        /* \"#utility.yul\":7365:7391   */\n      swap1\n      pop\n        /* \"#utility.yul\":7437:7446   */\n      dup2\n        /* \"#utility.yul\":7431:7435   */\n      dup2\n        /* \"#utility.yul\":7427:7447   */\n      sub\n        /* \"#utility.yul\":7423:7424   */\n      0x00\n        /* \"#utility.yul\":7412:7421   */\n      dup4\n        /* \"#utility.yul\":7408:7425   */\n      add\n        /* \"#utility.yul\":7401:7448   */\n      mstore\n        /* \"#utility.yul\":7465:7543   */\n      tag_193\n        /* \"#utility.yul\":7538:7542   */\n      dup2\n        /* \"#utility.yul\":7529:7535   */\n      dup5\n        /* \"#utility.yul\":7465:7543   */\n      tag_165\n      jump\t// in\n    tag_193:\n        /* \"#utility.yul\":7457:7543   */\n      swap1\n      pop\n        /* \"#utility.yul\":7355:7550   */\n      swap3\n      swap2\n      pop\n      pop\n      jump\t// out\n        /* \"#utility.yul\":7556:7975   */\n    tag_57:\n      0x00\n        /* \"#utility.yul\":7760:7762   */\n      0x20\n        /* \"#utility.yul\":7749:7758   */\n      dup3\n        /* \"#utility.yul\":7745:7763   */\n      add\n        /* \"#utility.yul\":7737:7763   */\n      swap1\n      pop\n        /* \"#utility.yul\":7809:7818   */\n      dup2\n        /* \"#utility.yul\":7803:7807   */\n      dup2\n        /* \"#utility.yul\":7799:7819   */\n      sub\n        /* \"#utility.yul\":7795:7796   */\n      0x00\n        /* \"#utility.yul\":7784:7793   */\n      dup4\n        /* \"#utility.yul\":7780:7797   */\n      add\n        /* \"#utility.yul\":7773:7820   */\n      mstore\n        /* \"#utility.yul\":7837:7968   */\n      tag_195\n        /* \"#utility.yul\":7963:7967   */\n      dup2\n        /* \"#utility.yul\":7837:7968   */\n      tag_172\n      jump\t// in\n    tag_195:\n        /* \"#utility.yul\":7829:7968   */\n      swap1\n      pop\n        /* \"#utility.yul\":7727:7975   */\n      swap2\n      swap1\n      pop\n      jump\t// out\n        /* \"#utility.yul\":7981:8400   */\n    tag_51:\n      0x00\n        /* \"#utility.yul\":8185:8187   */\n      0x20\n        /* \"#utility.yul\":8174:8183   */\n      dup3\n        /* \"#utility.yul\":8170:8188   */\n      add\n        /* \"#utility.yul\":8162:8188   */\n      swap1\n      pop\n        /* \"#utility.yul\":8234:8243   */\n      dup2\n        /* \"#utility.yul\":8228:8232   */\n      dup2\n        /* \"#utility.yul\":8224:8244   */\n      sub\n        /* \"#utility.yul\":8220:8221   */\n      0x00\n        /* \"#utility.yul\":8209:8218   */\n      dup4\n        /* \"#utility.yul\":8205:8222   */\n      add\n        /* \"#utility.yul\":8198:8245   */\n      mstore\n        /* \"#utility.yul\":8262:8393   */\n      tag_197\n        /* \"#utility.yul\":8388:8392   */\n      dup2\n        /* \"#utility.yul\":8262:8393   */\n      tag_175\n      jump\t// in\n    tag_197:\n        /* \"#utility.yul\":8254:8393   */\n      swap1\n      pop\n        /* \"#utility.yul\":8152:8400   */\n      swap2\n      swap1\n      pop\n      jump\t// out\n        /* \"#utility.yul\":8406:8825   */\n    tag_68:\n      0x00\n        /* \"#utility.yul\":8610:8612   */\n      0x20\n        /* \"#utility.yul\":8599:8608   */\n      dup3\n        /* \"#utility.yul\":8595:8613   */\n      add\n        /* \"#utility.yul\":8587:8613   */\n      swap1\n      pop\n        /* \"#utility.yul\":8659:8668   */\n      dup2\n        /* \"#utility.yul\":8653:8657   */\n      dup2\n        /* \"#utility.yul\":8649:8669   */\n      sub\n        /* \"#utility.yul\":8645:8646   */\n      0x00\n        /* \"#utility.yul\":8634:8643   */\n      dup4\n        /* \"#utility.yul\":8630:8647   */\n      add\n        /* \"#utility.yul\":8623:8670   */\n      mstore\n        /* \"#utility.yul\":8687:8818   */\n      tag_199\n        /* \"#utility.yul\":8813:8817   */\n      dup2\n        /* \"#utility.yul\":8687:8818   */\n      tag_178\n      jump\t// in\n    tag_199:\n        /* \"#utility.yul\":8679:8818   */\n      swap1\n      pop\n        /* \"#utility.yul\":8577:8825   */\n      swap2\n      swap1\n      pop\n      jump\t// out\n        /* \"#utility.yul\":8831:9114   */\n    tag_102:\n      0x00\n        /* \"#utility.yul\":8897:8899   */\n      0x40\n        /* \"#utility.yul\":8891:8900   */\n      mload\n        /* \"#utility.yul\":8881:8900   */\n      swap1\n      pop\n        /* \"#utility.yul\":8939:8943   */\n      dup2\n        /* \"#utility.yul\":8931:8937   */\n      dup2\n        /* \"#utility.yul\":8927:8944   */\n      add\n        /* \"#utility.yul\":9046:9052   */\n      dup2\n        /* \"#utility.yul\":9034:9044   */\n      dup2\n        /* \"#utility.yul\":9031:9053   */\n      lt\n        /* \"#utility.yul\":9010:9028   */\n      0xffffffffffffffff\n        /* \"#utility.yul\":8998:9008   */\n      dup3\n        /* \"#utility.yul\":8995:9029   */\n      gt\n        /* \"#utility.yul\":8992:9054   */\n      or\n        /* \"#utility.yul\":8989:8991   */\n      iszero\n      tag_201\n      jumpi\n        /* \"#utility.yul\":9057:9075   */\n      tag_202\n      tag_203\n      jump\t// in\n    tag_202:\n        /* \"#utility.yul\":8989:8991   */\n    tag_201:\n        /* \"#utility.yul\":9097:9107   */\n      dup1\n        /* \"#utility.yul\":9093:9095   */\n      0x40\n        /* \"#utility.yul\":9086:9108   */\n      mstore\n        /* \"#utility.yul\":8871:9114   */\n      pop\n      swap2\n      swap1\n      pop\n      jump\t// out\n        /* \"#utility.yul\":9120:9452   */\n    tag_101:\n      0x00\n        /* \"#utility.yul\":9272:9290   */\n      0xffffffffffffffff\n        /* \"#utility.yul\":9264:9270   */\n      dup3\n        /* \"#utility.yul\":9261:9291   */\n      gt\n        /* \"#utility.yul\":9258:9260   */\n      iszero\n      tag_205\n      jumpi\n        /* \"#utility.yul\":9294:9312   */\n      tag_206\n      tag_203\n      jump\t// in\n    tag_206:\n        /* \"#utility.yul\":9258:9260   */\n    tag_205:\n        /* \"#utility.yul\":9379:9383   */\n      0x1f\n        /* \"#utility.yul\":9375:9384   */\n      not\n        /* \"#utility.yul\":9368:9372   */\n      0x1f\n        /* \"#utility.yul\":9360:9366   */\n      dup4\n        /* \"#utility.yul\":9356:9373   */\n      add\n        /* \"#utility.yul\":9352:9385   */\n      and\n        /* \"#utility.yul\":9344:9385   */\n      swap1\n      pop\n        /* \"#utility.yul\":9440:9444   */\n      0x20\n        /* \"#utility.yul\":9434:9438   */\n      dup2\n        /* \"#utility.yul\":9430:9445   */\n      add\n        /* \"#utility.yul\":9422:9445   */\n      swap1\n      pop\n        /* \"#utility.yul\":9187:9452   */\n      swap2\n      swap1\n      pop\n      jump\t// out\n        /* \"#utility.yul\":9458:9600   */\n    tag_145:\n      0x00\n        /* \"#utility.yul\":9558:9561   */\n      dup2\n        /* \"#utility.yul\":9550:9561   */\n      swap1\n      pop\n        /* \"#utility.yul\":9588:9592   */\n      0x20\n        /* \"#utility.yul\":9583:9586   */\n      dup3\n        /* \"#utility.yul\":9579:9593   */\n      add\n        /* \"#utility.yul\":9571:9593   */\n      swap1\n      pop\n        /* \"#utility.yul\":9540:9600   */\n      swap2\n      swap1\n      pop\n      jump\t// out\n        /* \"#utility.yul\":9606:9730   */\n    tag_141:\n      0x00\n        /* \"#utility.yul\":9717:9722   */\n      dup2\n        /* \"#utility.yul\":9711:9723   */\n      mload\n        /* \"#utility.yul\":9701:9723   */\n      swap1\n      pop\n        /* \"#utility.yul\":9690:9730   */\n      swap2\n      swap1\n      pop\n      jump\t// out\n        /* \"#utility.yul\":9736:9835   */\n    tag_158:\n      0x00\n        /* \"#utility.yul\":9822:9827   */\n      dup2\n        /* \"#utility.yul\":9816:9828   */\n      mload\n        /* \"#utility.yul\":9806:9828   */\n      swap1\n      pop\n        /* \"#utility.yul\":9795:9835   */\n      swap2\n      swap1\n      pop\n      jump\t// out\n        /* \"#utility.yul\":9841:9964   */\n    tag_151:\n      0x00\n        /* \"#utility.yul\":9953:9957   */\n      0x20\n        /* \"#utility.yul\":9948:9951   */\n      dup3\n        /* \"#utility.yul\":9944:9958   */\n      add\n        /* \"#utility.yul\":9936:9958   */\n      swap1\n      pop\n        /* \"#utility.yul\":9926:9964   */\n      swap2\n      swap1\n      pop\n      jump\t// out\n        /* \"#utility.yul\":9970:10164   */\n    tag_143:\n      0x00\n        /* \"#utility.yul\":10113:10119   */\n      dup3\n        /* \"#utility.yul\":10108:10111   */\n      dup3\n        /* \"#utility.yul\":10101:10120   */\n      mstore\n        /* \"#utility.yul\":10153:10157   */\n      0x20\n        /* \"#utility.yul\":10148:10151   */\n      dup3\n        /* \"#utility.yul\":10144:10158   */\n      add\n        /* \"#utility.yul\":10129:10158   */\n      swap1\n      pop\n        /* \"#utility.yul\":10091:10164   */\n      swap3\n      swap2\n      pop\n      pop\n      jump\t// out\n        /* \"#utility.yul\":10170:10329   */\n    tag_160:\n      0x00\n        /* \"#utility.yul\":10278:10284   */\n      dup3\n        /* \"#utility.yul\":10273:10276   */\n      dup3\n        /* \"#utility.yul\":10266:10285   */\n      mstore\n        /* \"#utility.yul\":10318:10322   */\n      0x20\n        /* \"#utility.yul\":10313:10316   */\n      dup3\n        /* \"#utility.yul\":10309:10323   */\n      add\n        /* \"#utility.yul\":10294:10323   */\n      swap1\n      pop\n        /* \"#utility.yul\":10256:10329   */\n      swap3\n      swap2\n      pop\n      pop\n      jump\t// out\n        /* \"#utility.yul\":10335:10504   */\n    tag_169:\n      0x00\n        /* \"#utility.yul\":10453:10459   */\n      dup3\n        /* \"#utility.yul\":10448:10451   */\n      dup3\n        /* \"#utility.yul\":10441:10460   */\n      mstore\n        /* \"#utility.yul\":10493:10497   */\n      0x20\n        /* \"#utility.yul\":10488:10491   */\n      dup3\n        /* \"#utility.yul\":10484:10498   */\n      add\n        /* \"#utility.yul\":10469:10498   */\n      swap1\n      pop\n        /* \"#utility.yul\":10431:10504   */\n      swap3\n      swap2\n      pop\n      pop\n      jump\t// out\n        /* \"#utility.yul\":10510:10606   */\n    tag_137:\n      0x00\n        /* \"#utility.yul\":10576:10600   */\n      tag_215\n        /* \"#utility.yul\":10594:10599   */\n      dup3\n        /* \"#utility.yul\":10576:10600   */\n      tag_216\n      jump\t// in\n    tag_215:\n        /* \"#utility.yul\":10565:10600   */\n      swap1\n      pop\n        /* \"#utility.yul\":10555:10606   */\n      swap2\n      swap1\n      pop\n      jump\t// out\n        /* \"#utility.yul\":10612:10702   */\n    tag_155:\n      0x00\n        /* \"#utility.yul\":10689:10694   */\n      dup2\n        /* \"#utility.yul\":10682:10695   */\n      iszero\n        /* \"#utility.yul\":10675:10696   */\n      iszero\n        /* \"#utility.yul\":10664:10696   */\n      swap1\n      pop\n        /* \"#utility.yul\":10654:10702   */\n      swap2\n      swap1\n      pop\n      jump\t// out\n        /* \"#utility.yul\":10708:10834   */\n    tag_216:\n      0x00\n        /* \"#utility.yul\":10785:10827   */\n      0xffffffffffffffffffffffffffffffffffffffff\n        /* \"#utility.yul\":10778:10783   */\n      dup3\n        /* \"#utility.yul\":10774:10828   */\n      and\n        /* \"#utility.yul\":10763:10828   */\n      swap1\n      pop\n        /* \"#utility.yul\":10753:10834   */\n      swap2\n      swap1\n      pop\n      jump\t// out\n        /* \"#utility.yul\":10840:10994   */\n    tag_105:\n        /* \"#utility.yul\":10924:10930   */\n      dup3\n        /* \"#utility.yul\":10919:10922   */\n      dup2\n        /* \"#utility.yul\":10914:10917   */\n      dup4\n        /* \"#utility.yul\":10901:10931   */\n      calldatacopy\n        /* \"#utility.yul\":10986:10987   */\n      0x00\n        /* \"#utility.yul\":10977:10983   */\n      dup4\n        /* \"#utility.yul\":10972:10975   */\n      dup4\n        /* \"#utility.yul\":10968:10984   */\n      add\n        /* \"#utility.yul\":10961:10988   */\n      mstore\n        /* \"#utility.yul\":10891:10994   */\n      pop\n      pop\n      pop\n      jump\t// out\n        /* \"#utility.yul\":11000:11307   */\n    tag_162:\n        /* \"#utility.yul\":11068:11069   */\n      0x00\n        /* \"#utility.yul\":11078:11191   */\n    tag_221:\n        /* \"#utility.yul\":11092:11098   */\n      dup4\n        /* \"#utility.yul\":11089:11090   */\n      dup2\n        /* \"#utility.yul\":11086:11099   */\n      lt\n        /* \"#utility.yul\":11078:11191   */\n      iszero\n      tag_223\n      jumpi\n        /* \"#utility.yul\":11177:11178   */\n      dup1\n        /* \"#utility.yul\":11172:11175   */\n      dup3\n        /* \"#utility.yul\":11168:11179   */\n      add\n        /* \"#utility.yul\":11162:11180   */\n      mload\n        /* \"#utility.yul\":11158:11159   */\n      dup2\n        /* \"#utility.yul\":11153:11156   */\n      dup5\n        /* \"#utility.yul\":11149:11160   */\n      add\n        /* \"#utility.yul\":11142:11181   */\n      mstore\n        /* \"#utility.yul\":11114:11116   */\n      0x20\n        /* \"#utility.yul\":11111:11112   */\n      dup2\n        /* \"#utility.yul\":11107:11117   */\n      add\n        /* \"#utility.yul\":11102:11117   */\n      swap1\n      pop\n        /* \"#utility.yul\":11078:11191   */\n      jump(tag_221)\n    tag_223:\n        /* \"#utility.yul\":11209:11215   */\n      dup4\n        /* \"#utility.yul\":11206:11207   */\n      dup2\n        /* \"#utility.yul\":11203:11216   */\n      gt\n        /* \"#utility.yul\":11200:11202   */\n      iszero\n      tag_224\n      jumpi\n        /* \"#utility.yul\":11289:11290   */\n      0x00\n        /* \"#utility.yul\":11280:11286   */\n      dup5\n        /* \"#utility.yul\":11275:11278   */\n      dup5\n        /* \"#utility.yul\":11271:11287   */\n      add\n        /* \"#utility.yul\":11264:11291   */\n      mstore\n        /* \"#utility.yul\":11200:11202   */\n    tag_224:\n        /* \"#utility.yul\":11049:11307   */\n      pop\n      pop\n      pop\n      pop\n      jump\t// out\n        /* \"#utility.yul\":11313:11633   */\n    tag_43:\n      0x00\n        /* \"#utility.yul\":11394:11395   */\n      0x02\n        /* \"#utility.yul\":11388:11392   */\n      dup3\n        /* \"#utility.yul\":11384:11396   */\n      div\n        /* \"#utility.yul\":11374:11396   */\n      swap1\n      pop\n        /* \"#utility.yul\":11441:11442   */\n      0x01\n        /* \"#utility.yul\":11435:11439   */\n      dup3\n        /* \"#utility.yul\":11431:11443   */\n      and\n        /* \"#utility.yul\":11462:11480   */\n      dup1\n        /* \"#utility.yul\":11452:11454   */\n      tag_226\n      jumpi\n        /* \"#utility.yul\":11518:11522   */\n      0x7f\n        /* \"#utility.yul\":11510:11516   */\n      dup3\n        /* \"#utility.yul\":11506:11523   */\n      and\n        /* \"#utility.yul\":11496:11523   */\n      swap2\n      pop\n        /* \"#utility.yul\":11452:11454   */\n    tag_226:\n        /* \"#utility.yul\":11580:11582   */\n      0x20\n        /* \"#utility.yul\":11572:11578   */\n      dup3\n        /* \"#utility.yul\":11569:11583   */\n      lt\n        /* \"#utility.yul\":11549:11567   */\n      dup2\n        /* \"#utility.yul\":11546:11584   */\n      eq\n        /* \"#utility.yul\":11543:11545   */\n      iszero\n      tag_227\n      jumpi\n        /* \"#utility.yul\":11599:11617   */\n      tag_228\n      tag_229\n      jump\t// in\n    tag_228:\n        /* \"#utility.yul\":11543:11545   */\n    tag_227:\n        /* \"#utility.yul\":11364:11633   */\n      pop\n      swap2\n      swap1\n      pop\n      jump\t// out\n        /* \"#utility.yul\":11639:11819   */\n    tag_229:\n        /* \"#utility.yul\":11687:11764   */\n      0x4e487b7100000000000000000000000000000000000000000000000000000000\n        /* \"#utility.yul\":11684:11685   */\n      0x00\n        /* \"#utility.yul\":11677:11765   */\n      mstore\n        /* \"#utility.yul\":11784:11788   */\n      0x22\n        /* \"#utility.yul\":11781:11782   */\n      0x04\n        /* \"#utility.yul\":11774:11789   */\n      mstore\n        /* \"#utility.yul\":11808:11812   */\n      0x24\n        /* \"#utility.yul\":11805:11806   */\n      0x00\n        /* \"#utility.yul\":11798:11813   */\n      revert\n        /* \"#utility.yul\":11825:12005   */\n    tag_203:\n        /* \"#utility.yul\":11873:11950   */\n      0x4e487b7100000000000000000000000000000000000000000000000000000000\n        /* \"#utility.yul\":11870:11871   */\n      0x00\n        /* \"#utility.yul\":11863:11951   */\n      mstore\n        /* \"#utility.yul\":11970:11974   */\n      0x41\n        /* \"#utility.yul\":11967:11968   */\n      0x04\n        /* \"#utility.yul\":11960:11975   */\n      mstore\n        /* \"#utility.yul\":11994:11998   */\n      0x24\n        /* \"#utility.yul\":11991:11992   */\n      0x00\n        /* \"#utility.yul\":11984:11999   */\n      revert\n        /* \"#utility.yul\":12011:12113   */\n    tag_164:\n      0x00\n        /* \"#utility.yul\":12103:12105   */\n      0x1f\n        /* \"#utility.yul\":12099:12106   */\n      not\n        /* \"#utility.yul\":12094:12096   */\n      0x1f\n        /* \"#utility.yul\":12087:12092   */\n      dup4\n        /* \"#utility.yul\":12083:12097   */\n      add\n        /* \"#utility.yul\":12079:12107   */\n      and\n        /* \"#utility.yul\":12069:12107   */\n      swap1\n      pop\n        /* \"#utility.yul\":12059:12113   */\n      swap2\n      swap1\n      pop\n      jump\t// out\n        /* \"#utility.yul\":12119:12241   */\n    tag_109:\n        /* \"#utility.yul\":12192:12216   */\n      tag_234\n        /* \"#utility.yul\":12210:12215   */\n      dup2\n        /* \"#utility.yul\":12192:12216   */\n      tag_137\n      jump\t// in\n    tag_234:\n        /* \"#utility.yul\":12185:12190   */\n      dup2\n        /* \"#utility.yul\":12182:12217   */\n      eq\n        /* \"#utility.yul\":12172:12174   */\n      tag_235\n      jumpi\n        /* \"#utility.yul\":12231:12232   */\n      0x00\n        /* \"#utility.yul\":12228:12229   */\n      dup1\n        /* \"#utility.yul\":12221:12233   */\n      revert\n        /* \"#utility.yul\":12172:12174   */\n    tag_235:\n        /* \"#utility.yul\":12162:12241   */\n      pop\n      jump\t// out\n\n    auxdata: 0xa2646970667358221220a6b2e7892305d8278c11ebd2cecf277d53d553018db6203cd63bf0ef63bf8a9264736f6c63430008000033\n}\n",
				"bytecode": {
					"linkReferences": {},
					"object": "608060405234801561001057600080fd5b50611259806100206000396000f3fe608060405234801561001057600080fd5b506004361061007d5760003560e01c80638048c2f01161005b5780638048c2f01461010057806385e685311461011c578063a0076e8414610138578063e671926a146101685761007d565b80630869cfbc146100825780630ae5e739146100b457806379a94bd2146100d0575b600080fd5b61009c60048036038101906100979190610bd8565b610184565b6040516100ab93929190610f27565b60405180910390f35b6100ce60048036038101906100c99190610bd8565b610263565b005b6100ea60048036038101906100e59190610c01565b6103e5565b6040516100f79190610f87565b60405180910390f35b61011a60048036038101906101159190610c3d565b61047b565b005b61013660048036038101906101319190610bd8565b6105f7565b005b610152600480360381019061014d9190610bd8565b610844565b60405161015f9190610f65565b60405180910390f35b610182600480360381019061017d9190610c91565b61095e565b005b60006020528060005260406000206000915090508060000160009054906101000a900473ffffffffffffffffffffffffffffffffffffffff16908060010180546101cd9061116b565b80601f01602080910402602001604051908101604052809291908181526020018280546101f99061116b565b80156102465780601f1061021b57610100808354040283529160200191610246565b820191906000526020600020905b81548152906001019060200180831161022957829003601f168201915b5050505050908060020160009054906101000a900460ff16905083565b6000803373ffffffffffffffffffffffffffffffffffffffff1673ffffffffffffffffffffffffffffffffffffffff16815260200190815260200160002060020160009054906101000a900460ff166102f1576040517f08c379a00000000000000000000000000000000000000000000000000000000081526004016102e890610fe4565b60405180910390fd5b60016000803373ffffffffffffffffffffffffffffffffffffffff1673ffffffffffffffffffffffffffffffffffffffff16815260200190815260200160002060030160008373ffffffffffffffffffffffffffffffffffffffff1673ffffffffffffffffffffffffffffffffffffffff16815260200190815260200160002060006101000a81548160ff0219169083151502179055508073ffffffffffffffffffffffffffffffffffffffff163373ffffffffffffffffffffffffffffffffffffffff167f9f520b3bfc56d06f7065d10b4683b3f57ac8895d5026cd176dee95ce1454cb8d60405160405180910390a350565b60008060008473ffffffffffffffffffffffffffffffffffffffff1673ffffffffffffffffffffffffffffffffffffffff16815260200190815260200160002060030160008373ffffffffffffffffffffffffffffffffffffffff1673ffffffffffffffffffffffffffffffffffffffff16815260200190815260200160002060009054906101000a900460ff16905092915050565b6000808373ffffffffffffffffffffffffffffffffffffffff1673ffffffffffffffffffffffffffffffffffffffff16815260200190815260200160002060020160009054906101000a900460ff161561050a576040517f08c379a000000000000000000000000000000000000000000000000000000000815260040161050190610fc4565b60405180910390fd5b60016000808473ffffffffffffffffffffffffffffffffffffffff1673ffffffffffffffffffffffffffffffffffffffff16815260200190815260200160002060020160006101000a81548160ff021916908315150217905550806000808473ffffffffffffffffffffffffffffffffffffffff1673ffffffffffffffffffffffffffffffffffffffff16815260200190815260200160002060010190805190602001906105b9929190610ab8565b507fc85b128388b9c331a2a5485dce4cd0f3db9f7c279d327ce95d6d39d6c94644c782826040516105eb929190610ef7565b60405180910390a15050565b6000803373ffffffffffffffffffffffffffffffffffffffff1673ffffffffffffffffffffffffffffffffffffffff16815260200190815260200160002060020160009054906101000a900460ff16610685576040517f08c379a000000000000000000000000000000000000000000000000000000000815260040161067c90610fe4565b60405180910390fd5b6000803373ffffffffffffffffffffffffffffffffffffffff1673ffffffffffffffffffffffffffffffffffffffff16815260200190815260200160002060030160008273ffffffffffffffffffffffffffffffffffffffff1673ffffffffffffffffffffffffffffffffffffffff16815260200190815260200160002060009054906101000a900460ff16610750576040517f08c379a000000000000000000000000000000000000000000000000000000000815260040161074790611004565b60405180910390fd5b60008060003373ffffffffffffffffffffffffffffffffffffffff1673ffffffffffffffffffffffffffffffffffffffff16815260200190815260200160002060030160008373ffffffffffffffffffffffffffffffffffffffff1673ffffffffffffffffffffffffffffffffffffffff16815260200190815260200160002060006101000a81548160ff0219169083151502179055508073ffffffffffffffffffffffffffffffffffffffff163373ffffffffffffffffffffffffffffffffffffffff167f825c8be24eb0df19500f63e86c29e7d0d951e73056b889b891d85e40938d9b6e60405160405180910390a350565b60606000808373ffffffffffffffffffffffffffffffffffffffff1673ffffffffffffffffffffffffffffffffffffffff168152602001908152602001600020600401805480602002602001604051908101604052809291908181526020016000905b828210156109535783829060005260206000200180546108c69061116b565b80601f01602080910402602001604051908101604052809291908181526020018280546108f29061116b565b801561093f5780601f106109145761010080835404028352916020019161093f565b820191906000526020600020905b81548152906001019060200180831161092257829003601f168201915b5050505050815260200190600101906108a7565b505050509050919050565b6000803373ffffffffffffffffffffffffffffffffffffffff1673ffffffffffffffffffffffffffffffffffffffff16815260200190815260200160002060020160009054906101000a900460ff166109ec576040517f08c379a00000000000000000000000000000000000000000000000000000000081526004016109e390610fe4565b60405180910390fd5b6000803373ffffffffffffffffffffffffffffffffffffffff1673ffffffffffffffffffffffffffffffffffffffff16815260200190815260200160002060040181908060018154018082558091505060019003906000526020600020016000909190919091509080519060200190610a66929190610ab8565b503373ffffffffffffffffffffffffffffffffffffffff167f44626cfec8a165f72396cc5e247c6b96279f8c205a8d07c390df7aa5806205fa82604051610aad9190610fa2565b60405180910390a250565b828054610ac49061116b565b90600052602060002090601f016020900481019282610ae65760008555610b2d565b82601f10610aff57805160ff1916838001178555610b2d565b82800160010185558215610b2d579182015b82811115610b2c578251825591602001919060010190610b11565b5b509050610b3a9190610b3e565b5090565b5b80821115610b57576000816000905550600101610b3f565b5090565b6000610b6e610b6984611055565b611024565b905082815260208101848484011115610b8657600080fd5b610b91848285611129565b509392505050565b600081359050610ba88161120c565b92915050565b600082601f830112610bbf57600080fd5b8135610bcf848260208601610b5b565b91505092915050565b600060208284031215610bea57600080fd5b6000610bf884828501610b99565b91505092915050565b60008060408385031215610c1457600080fd5b6000610c2285828601610b99565b9250506020610c3385828601610b99565b9150509250929050565b60008060408385031215610c5057600080fd5b6000610c5e85828601610b99565b925050602083013567ffffffffffffffff811115610c7b57600080fd5b610c8785828601610bae565b9150509250929050565b600060208284031215610ca357600080fd5b600082013567ffffffffffffffff811115610cbd57600080fd5b610cc984828501610bae565b91505092915050565b6000610cde8383610d79565b905092915050565b610cef816110eb565b82525050565b6000610d0082611095565b610d0a81856110b8565b935083602082028501610d1c85611085565b8060005b85811015610d585784840389528151610d398582610cd2565b9450610d44836110ab565b925060208a01995050600181019050610d20565b50829750879550505050505092915050565b610d73816110fd565b82525050565b6000610d84826110a0565b610d8e81856110c9565b9350610d9e818560208601611138565b610da7816111fb565b840191505092915050565b6000610dbd826110a0565b610dc781856110da565b9350610dd7818560208601611138565b610de0816111fb565b840191505092915050565b6000610df86018836110da565b91507f50617469656e742064656a6120656e72656769737472652e00000000000000006000830152602082019050919050565b6000610e386026836110da565b91507f566f757320646576657a206574726520756e2070617469656e7420656e72656760008301527f69737472652e00000000000000000000000000000000000000000000000000006020830152604082019050919050565b6000610e9e6023836110da565b91507f41636365732064656a61207265766f717565206f75206e6f6e206175746f726960008301527f73652e00000000000000000000000000000000000000000000000000000000006020830152604082019050919050565b6000604082019050610f0c6000830185610ce6565b8181036020830152610f1e8184610db2565b90509392505050565b6000606082019050610f3c6000830186610ce6565b8181036020830152610f4e8185610db2565b9050610f5d6040830184610d6a565b949350505050565b60006020820190508181036000830152610f7f8184610cf5565b905092915050565b6000602082019050610f9c6000830184610d6a565b92915050565b60006020820190508181036000830152610fbc8184610db2565b905092915050565b60006020820190508181036000830152610fdd81610deb565b9050919050565b60006020820190508181036000830152610ffd81610e2b565b9050919050565b6000602082019050818103600083015261101d81610e91565b9050919050565b6000604051905081810181811067ffffffffffffffff8211171561104b5761104a6111cc565b5b8060405250919050565b600067ffffffffffffffff8211156110705761106f6111cc565b5b601f19601f8301169050602081019050919050565b6000819050602082019050919050565b600081519050919050565b600081519050919050565b6000602082019050919050565b600082825260208201905092915050565b600082825260208201905092915050565b600082825260208201905092915050565b60006110f682611109565b9050919050565b60008115159050919050565b600073ffffffffffffffffffffffffffffffffffffffff82169050919050565b82818337600083830152505050565b60005b8381101561115657808201518184015260208101905061113b565b83811115611165576000848401525b50505050565b6000600282049050600182168061118357607f821691505b602082108114156111975761119661119d565b5b50919050565b7f4e487b7100000000000000000000000000000000000000000000000000000000600052602260045260246000fd5b7f4e487b7100000000000000000000000000000000000000000000000000000000600052604160045260246000fd5b6000601f19601f8301169050919050565b611215816110eb565b811461122057600080fd5b5056fea2646970667358221220a6b2e7892305d8278c11ebd2cecf277d53d553018db6203cd63bf0ef63bf8a9264736f6c63430008000033",
					"opcodes": "PUSH1 0x80 PUSH1 0x40 MSTORE CALLVALUE DUP1 ISZERO PUSH2 0x10 JUMPI PUSH1 0x0 DUP1 REVERT JUMPDEST POP PUSH2 0x1259 DUP1 PUSH2 0x20 PUSH1 0x0 CODECOPY PUSH1 0x0 RETURN INVALID PUSH1 0x80 PUSH1 0x40 MSTORE CALLVALUE DUP1 ISZERO PUSH2 0x10 JUMPI PUSH1 0x0 DUP1 REVERT JUMPDEST POP PUSH1 0x4 CALLDATASIZE LT PUSH2 0x7D JUMPI PUSH1 0x0 CALLDATALOAD PUSH1 0xE0 SHR DUP1 PUSH4 0x8048C2F0 GT PUSH2 0x5B JUMPI DUP1 PUSH4 0x8048C2F0 EQ PUSH2 0x100 JUMPI DUP1 PUSH4 0x85E68531 EQ PUSH2 0x11C JUMPI DUP1 PUSH4 0xA0076E84 EQ PUSH2 0x138 JUMPI DUP1 PUSH4 0xE671926A EQ PUSH2 0x168 JUMPI PUSH2 0x7D JUMP JUMPDEST DUP1 PUSH4 0x869CFBC EQ PUSH2 0x82 JUMPI DUP1 PUSH4 0xAE5E739 EQ PUSH2 0xB4 JUMPI DUP1 PUSH4 0x79A94BD2 EQ PUSH2 0xD0 JUMPI JUMPDEST PUSH1 0x0 DUP1 REVERT JUMPDEST PUSH2 0x9C PUSH1 0x4 DUP1 CALLDATASIZE SUB DUP2 ADD SWAP1 PUSH2 0x97 SWAP2 SWAP1 PUSH2 0xBD8 JUMP JUMPDEST PUSH2 0x184 JUMP JUMPDEST PUSH1 0x40 MLOAD PUSH2 0xAB SWAP4 SWAP3 SWAP2 SWAP1 PUSH2 0xF27 JUMP JUMPDEST PUSH1 0x40 MLOAD DUP1 SWAP2 SUB SWAP1 RETURN JUMPDEST PUSH2 0xCE PUSH1 0x4 DUP1 CALLDATASIZE SUB DUP2 ADD SWAP1 PUSH2 0xC9 SWAP2 SWAP1 PUSH2 0xBD8 JUMP JUMPDEST PUSH2 0x263 JUMP JUMPDEST STOP JUMPDEST PUSH2 0xEA PUSH1 0x4 DUP1 CALLDATASIZE SUB DUP2 ADD SWAP1 PUSH2 0xE5 SWAP2 SWAP1 PUSH2 0xC01 JUMP JUMPDEST PUSH2 0x3E5 JUMP JUMPDEST PUSH1 0x40 MLOAD PUSH2 0xF7 SWAP2 SWAP1 PUSH2 0xF87 JUMP JUMPDEST PUSH1 0x40 MLOAD DUP1 SWAP2 SUB SWAP1 RETURN JUMPDEST PUSH2 0x11A PUSH1 0x4 DUP1 CALLDATASIZE SUB DUP2 ADD SWAP1 PUSH2 0x115 SWAP2 SWAP1 PUSH2 0xC3D JUMP JUMPDEST PUSH2 0x47B JUMP JUMPDEST STOP JUMPDEST PUSH2 0x136 PUSH1 0x4 DUP1 CALLDATASIZE SUB DUP2 ADD SWAP1 PUSH2 0x131 SWAP2 SWAP1 PUSH2 0xBD8 JUMP JUMPDEST PUSH2 0x5F7 JUMP JUMPDEST STOP JUMPDEST PUSH2 0x152 PUSH1 0x4 DUP1 CALLDATASIZE SUB DUP2 ADD SWAP1 PUSH2 0x14D SWAP2 SWAP1 PUSH2 0xBD8 JUMP JUMPDEST PUSH2 0x844 JUMP JUMPDEST PUSH1 0x40 MLOAD PUSH2 0x15F SWAP2 SWAP1 PUSH2 0xF65 JUMP JUMPDEST PUSH1 0x40 MLOAD DUP1 SWAP2 SUB SWAP1 RETURN JUMPDEST PUSH2 0x182 PUSH1 0x4 DUP1 CALLDATASIZE SUB DUP2 ADD SWAP1 PUSH2 0x17D SWAP2 SWAP1 PUSH2 0xC91 JUMP JUMPDEST PUSH2 0x95E JUMP JUMPDEST STOP JUMPDEST PUSH1 0x0 PUSH1 0x20 MSTORE DUP1 PUSH1 0x0 MSTORE PUSH1 0x40 PUSH1 0x0 KECCAK256 PUSH1 0x0 SWAP2 POP SWAP1 POP DUP1 PUSH1 0x0 ADD PUSH1 0x0 SWAP1 SLOAD SWAP1 PUSH2 0x100 EXP SWAP1 DIV PUSH20 0xFFFFFFFFFFFFFFFFFFFFFFFFFFFFFFFFFFFFFFFF AND SWAP1 DUP1 PUSH1 0x1 ADD DUP1 SLOAD PUSH2 0x1CD SWAP1 PUSH2 0x116B JUMP JUMPDEST DUP1 PUSH1 0x1F ADD PUSH1 0x20 DUP1 SWAP2 DIV MUL PUSH1 0x20 ADD PUSH1 0x40 MLOAD SWAP1 DUP2 ADD PUSH1 0x40 MSTORE DUP1 SWAP3 SWAP2 SWAP1 DUP2 DUP2 MSTORE PUSH1 0x20 ADD DUP3 DUP1 SLOAD PUSH2 0x1F9 SWAP1 PUSH2 0x116B JUMP JUMPDEST DUP1 ISZERO PUSH2 0x246 JUMPI DUP1 PUSH1 0x1F LT PUSH2 0x21B JUMPI PUSH2 0x100 DUP1 DUP4 SLOAD DIV MUL DUP4 MSTORE SWAP2 PUSH1 0x20 ADD SWAP2 PUSH2 0x246 JUMP JUMPDEST DUP3 ADD SWAP2 SWAP1 PUSH1 0x0 MSTORE PUSH1 0x20 PUSH1 0x0 KECCAK256 SWAP1 JUMPDEST DUP2 SLOAD DUP2 MSTORE SWAP1 PUSH1 0x1 ADD SWAP1 PUSH1 0x20 ADD DUP1 DUP4 GT PUSH2 0x229 JUMPI DUP3 SWAP1 SUB PUSH1 0x1F AND DUP3 ADD SWAP2 JUMPDEST POP POP POP POP POP SWAP1 DUP1 PUSH1 0x2 ADD PUSH1 0x0 SWAP1 SLOAD SWAP1 PUSH2 0x100 EXP SWAP1 DIV PUSH1 0xFF AND SWAP1 POP DUP4 JUMP JUMPDEST PUSH1 0x0 DUP1 CALLER PUSH20 0xFFFFFFFFFFFFFFFFFFFFFFFFFFFFFFFFFFFFFFFF AND PUSH20 0xFFFFFFFFFFFFFFFFFFFFFFFFFFFFFFFFFFFFFFFF AND DUP2 MSTORE PUSH1 0x20 ADD SWAP1 DUP2 MSTORE PUSH1 0x20 ADD PUSH1 0x0 KECCAK256 PUSH1 0x2 ADD PUSH1 0x0 SWAP1 SLOAD SWAP1 PUSH2 0x100 EXP SWAP1 DIV PUSH1 0xFF AND PUSH2 0x2F1 JUMPI PUSH1 0x40 MLOAD PUSH32 0x8C379A000000000000000000000000000000000000000000000000000000000 DUP2 MSTORE PUSH1 0x4 ADD PUSH2 0x2E8 SWAP1 PUSH2 0xFE4 JUMP JUMPDEST PUSH1 0x40 MLOAD DUP1 SWAP2 SUB SWAP1 REVERT JUMPDEST PUSH1 0x1 PUSH1 0x0 DUP1 CALLER PUSH20 0xFFFFFFFFFFFFFFFFFFFFFFFFFFFFFFFFFFFFFFFF AND PUSH20 0xFFFFFFFFFFFFFFFFFFFFFFFFFFFFFFFFFFFFFFFF AND DUP2 MSTORE PUSH1 0x20 ADD SWAP1 DUP2 MSTORE PUSH1 0x20 ADD PUSH1 0x0 KECCAK256 PUSH1 0x3 ADD PUSH1 0x0 DUP4 PUSH20 0xFFFFFFFFFFFFFFFFFFFFFFFFFFFFFFFFFFFFFFFF AND PUSH20 0xFFFFFFFFFFFFFFFFFFFFFFFFFFFFFFFFFFFFFFFF AND DUP2 MSTORE PUSH1 0x20 ADD SWAP1 DUP2 MSTORE PUSH1 0x20 ADD PUSH1 0x0 KECCAK256 PUSH1 0x0 PUSH2 0x100 EXP DUP2 SLOAD DUP2 PUSH1 0xFF MUL NOT AND SWAP1 DUP4 ISZERO ISZERO MUL OR SWAP1 SSTORE POP DUP1 PUSH20 0xFFFFFFFFFFFFFFFFFFFFFFFFFFFFFFFFFFFFFFFF AND CALLER PUSH20 0xFFFFFFFFFFFFFFFFFFFFFFFFFFFFFFFFFFFFFFFF AND PUSH32 0x9F520B3BFC56D06F7065D10B4683B3F57AC8895D5026CD176DEE95CE1454CB8D PUSH1 0x40 MLOAD PUSH1 0x40 MLOAD DUP1 SWAP2 SUB SWAP1 LOG3 POP JUMP JUMPDEST PUSH1 0x0 DUP1 PUSH1 0x0 DUP5 PUSH20 0xFFFFFFFFFFFFFFFFFFFFFFFFFFFFFFFFFFFFFFFF AND PUSH20 0xFFFFFFFFFFFFFFFFFFFFFFFFFFFFFFFFFFFFFFFF AND DUP2 MSTORE PUSH1 0x20 ADD SWAP1 DUP2 MSTORE PUSH1 0x20 ADD PUSH1 0x0 KECCAK256 PUSH1 0x3 ADD PUSH1 0x0 DUP4 PUSH20 0xFFFFFFFFFFFFFFFFFFFFFFFFFFFFFFFFFFFFFFFF AND PUSH20 0xFFFFFFFFFFFFFFFFFFFFFFFFFFFFFFFFFFFFFFFF AND DUP2 MSTORE PUSH1 0x20 ADD SWAP1 DUP2 MSTORE PUSH1 0x20 ADD PUSH1 0x0 KECCAK256 PUSH1 0x0 SWAP1 SLOAD SWAP1 PUSH2 0x100 EXP SWAP1 DIV PUSH1 0xFF AND SWAP1 POP SWAP3 SWAP2 POP POP JUMP JUMPDEST PUSH1 0x0 DUP1 DUP4 PUSH20 0xFFFFFFFFFFFFFFFFFFFFFFFFFFFFFFFFFFFFFFFF AND PUSH20 0xFFFFFFFFFFFFFFFFFFFFFFFFFFFFFFFFFFFFFFFF AND DUP2 MSTORE PUSH1 0x20 ADD SWAP1 DUP2 MSTORE PUSH1 0x20 ADD PUSH1 0x0 KECCAK256 PUSH1 0x2 ADD PUSH1 0x0 SWAP1 SLOAD SWAP1 PUSH2 0x100 EXP SWAP1 DIV PUSH1 0xFF AND ISZERO PUSH2 0x50A JUMPI PUSH1 0x40 MLOAD PUSH32 0x8C379A000000000000000000000000000000000000000000000000000000000 DUP2 MSTORE PUSH1 0x4 ADD PUSH2 0x501 SWAP1 PUSH2 0xFC4 JUMP JUMPDEST PUSH1 0x40 MLOAD DUP1 SWAP2 SUB SWAP1 REVERT JUMPDEST PUSH1 0x1 PUSH1 0x0 DUP1 DUP5 PUSH20 0xFFFFFFFFFFFFFFFFFFFFFFFFFFFFFFFFFFFFFFFF AND PUSH20 0xFFFFFFFFFFFFFFFFFFFFFFFFFFFFFFFFFFFFFFFF AND DUP2 MSTORE PUSH1 0x20 ADD SWAP1 DUP2 MSTORE PUSH1 0x20 ADD PUSH1 0x0 KECCAK256 PUSH1 0x2 ADD PUSH1 0x0 PUSH2 0x100 EXP DUP2 SLOAD DUP2 PUSH1 0xFF MUL NOT AND SWAP1 DUP4 ISZERO ISZERO MUL OR SWAP1 SSTORE POP DUP1 PUSH1 0x0 DUP1 DUP5 PUSH20 0xFFFFFFFFFFFFFFFFFFFFFFFFFFFFFFFFFFFFFFFF AND PUSH20 0xFFFFFFFFFFFFFFFFFFFFFFFFFFFFFFFFFFFFFFFF AND DUP2 MSTORE PUSH1 0x20 ADD SWAP1 DUP2 MSTORE PUSH1 0x20 ADD PUSH1 0x0 KECCAK256 PUSH1 0x1 ADD SWAP1 DUP1 MLOAD SWAP1 PUSH1 0x20 ADD SWAP1 PUSH2 0x5B9 SWAP3 SWAP2 SWAP1 PUSH2 0xAB8 JUMP JUMPDEST POP PUSH32 0xC85B128388B9C331A2A5485DCE4CD0F3DB9F7C279D327CE95D6D39D6C94644C7 DUP3 DUP3 PUSH1 0x40 MLOAD PUSH2 0x5EB SWAP3 SWAP2 SWAP1 PUSH2 0xEF7 JUMP JUMPDEST PUSH1 0x40 MLOAD DUP1 SWAP2 SUB SWAP1 LOG1 POP POP JUMP JUMPDEST PUSH1 0x0 DUP1 CALLER PUSH20 0xFFFFFFFFFFFFFFFFFFFFFFFFFFFFFFFFFFFFFFFF AND PUSH20 0xFFFFFFFFFFFFFFFFFFFFFFFFFFFFFFFFFFFFFFFF AND DUP2 MSTORE PUSH1 0x20 ADD SWAP1 DUP2 MSTORE PUSH1 0x20 ADD PUSH1 0x0 KECCAK256 PUSH1 0x2 ADD PUSH1 0x0 SWAP1 SLOAD SWAP1 PUSH2 0x100 EXP SWAP1 DIV PUSH1 0xFF AND PUSH2 0x685 JUMPI PUSH1 0x40 MLOAD PUSH32 0x8C379A000000000000000000000000000000000000000000000000000000000 DUP2 MSTORE PUSH1 0x4 ADD PUSH2 0x67C SWAP1 PUSH2 0xFE4 JUMP JUMPDEST PUSH1 0x40 MLOAD DUP1 SWAP2 SUB SWAP1 REVERT JUMPDEST PUSH1 0x0 DUP1 CALLER PUSH20 0xFFFFFFFFFFFFFFFFFFFFFFFFFFFFFFFFFFFFFFFF AND PUSH20 0xFFFFFFFFFFFFFFFFFFFFFFFFFFFFFFFFFFFFFFFF AND DUP2 MSTORE PUSH1 0x20 ADD SWAP1 DUP2 MSTORE PUSH1 0x20 ADD PUSH1 0x0 KECCAK256 PUSH1 0x3 ADD PUSH1 0x0 DUP3 PUSH20 0xFFFFFFFFFFFFFFFFFFFFFFFFFFFFFFFFFFFFFFFF AND PUSH20 0xFFFFFFFFFFFFFFFFFFFFFFFFFFFFFFFFFFFFFFFF AND DUP2 MSTORE PUSH1 0x20 ADD SWAP1 DUP2 MSTORE PUSH1 0x20 ADD PUSH1 0x0 KECCAK256 PUSH1 0x0 SWAP1 SLOAD SWAP1 PUSH2 0x100 EXP SWAP1 DIV PUSH1 0xFF AND PUSH2 0x750 JUMPI PUSH1 0x40 MLOAD PUSH32 0x8C379A000000000000000000000000000000000000000000000000000000000 DUP2 MSTORE PUSH1 0x4 ADD PUSH2 0x747 SWAP1 PUSH2 0x1004 JUMP JUMPDEST PUSH1 0x40 MLOAD DUP1 SWAP2 SUB SWAP1 REVERT JUMPDEST PUSH1 0x0 DUP1 PUSH1 0x0 CALLER PUSH20 0xFFFFFFFFFFFFFFFFFFFFFFFFFFFFFFFFFFFFFFFF AND PUSH20 0xFFFFFFFFFFFFFFFFFFFFFFFFFFFFFFFFFFFFFFFF AND DUP2 MSTORE PUSH1 0x20 ADD SWAP1 DUP2 MSTORE PUSH1 0x20 ADD PUSH1 0x0 KECCAK256 PUSH1 0x3 ADD PUSH1 0x0 DUP4 PUSH20 0xFFFFFFFFFFFFFFFFFFFFFFFFFFFFFFFFFFFFFFFF AND PUSH20 0xFFFFFFFFFFFFFFFFFFFFFFFFFFFFFFFFFFFFFFFF AND DUP2 MSTORE PUSH1 0x20 ADD SWAP1 DUP2 MSTORE PUSH1 0x20 ADD PUSH1 0x0 KECCAK256 PUSH1 0x0 PUSH2 0x100 EXP DUP2 SLOAD DUP2 PUSH1 0xFF MUL NOT AND SWAP1 DUP4 ISZERO ISZERO MUL OR SWAP1 SSTORE POP DUP1 PUSH20 0xFFFFFFFFFFFFFFFFFFFFFFFFFFFFFFFFFFFFFFFF AND CALLER PUSH20 0xFFFFFFFFFFFFFFFFFFFFFFFFFFFFFFFFFFFFFFFF AND PUSH32 0x825C8BE24EB0DF19500F63E86C29E7D0D951E73056B889B891D85E40938D9B6E PUSH1 0x40 MLOAD PUSH1 0x40 MLOAD DUP1 SWAP2 SUB SWAP1 LOG3 POP JUMP JUMPDEST PUSH1 0x60 PUSH1 0x0 DUP1 DUP4 PUSH20 0xFFFFFFFFFFFFFFFFFFFFFFFFFFFFFFFFFFFFFFFF AND PUSH20 0xFFFFFFFFFFFFFFFFFFFFFFFFFFFFFFFFFFFFFFFF AND DUP2 MSTORE PUSH1 0x20 ADD SWAP1 DUP2 MSTORE PUSH1 0x20 ADD PUSH1 0x0 KECCAK256 PUSH1 0x4 ADD DUP1 SLOAD DUP1 PUSH1 0x20 MUL PUSH1 0x20 ADD PUSH1 0x40 MLOAD SWAP1 DUP2 ADD PUSH1 0x40 MSTORE DUP1 SWAP3 SWAP2 SWAP1 DUP2 DUP2 MSTORE PUSH1 0x20 ADD PUSH1 0x0 SWAP1 JUMPDEST DUP3 DUP3 LT ISZERO PUSH2 0x953 JUMPI DUP4 DUP3 SWAP1 PUSH1 0x0 MSTORE PUSH1 0x20 PUSH1 0x0 KECCAK256 ADD DUP1 SLOAD PUSH2 0x8C6 SWAP1 PUSH2 0x116B JUMP JUMPDEST DUP1 PUSH1 0x1F ADD PUSH1 0x20 DUP1 SWAP2 DIV MUL PUSH1 0x20 ADD PUSH1 0x40 MLOAD SWAP1 DUP2 ADD PUSH1 0x40 MSTORE DUP1 SWAP3 SWAP2 SWAP1 DUP2 DUP2 MSTORE PUSH1 0x20 ADD DUP3 DUP1 SLOAD PUSH2 0x8F2 SWAP1 PUSH2 0x116B JUMP JUMPDEST DUP1 ISZERO PUSH2 0x93F JUMPI DUP1 PUSH1 0x1F LT PUSH2 0x914 JUMPI PUSH2 0x100 DUP1 DUP4 SLOAD DIV MUL DUP4 MSTORE SWAP2 PUSH1 0x20 ADD SWAP2 PUSH2 0x93F JUMP JUMPDEST DUP3 ADD SWAP2 SWAP1 PUSH1 0x0 MSTORE PUSH1 0x20 PUSH1 0x0 KECCAK256 SWAP1 JUMPDEST DUP2 SLOAD DUP2 MSTORE SWAP1 PUSH1 0x1 ADD SWAP1 PUSH1 0x20 ADD DUP1 DUP4 GT PUSH2 0x922 JUMPI DUP3 SWAP1 SUB PUSH1 0x1F AND DUP3 ADD SWAP2 JUMPDEST POP POP POP POP POP DUP2 MSTORE PUSH1 0x20 ADD SWAP1 PUSH1 0x1 ADD SWAP1 PUSH2 0x8A7 JUMP JUMPDEST POP POP POP POP SWAP1 POP SWAP2 SWAP1 POP JUMP JUMPDEST PUSH1 0x0 DUP1 CALLER PUSH20 0xFFFFFFFFFFFFFFFFFFFFFFFFFFFFFFFFFFFFFFFF AND PUSH20 0xFFFFFFFFFFFFFFFFFFFFFFFFFFFFFFFFFFFFFFFF AND DUP2 MSTORE PUSH1 0x20 ADD SWAP1 DUP2 MSTORE PUSH1 0x20 ADD PUSH1 0x0 KECCAK256 PUSH1 0x2 ADD PUSH1 0x0 SWAP1 SLOAD SWAP1 PUSH2 0x100 EXP SWAP1 DIV PUSH1 0xFF AND PUSH2 0x9EC JUMPI PUSH1 0x40 MLOAD PUSH32 0x8C379A000000000000000000000000000000000000000000000000000000000 DUP2 MSTORE PUSH1 0x4 ADD PUSH2 0x9E3 SWAP1 PUSH2 0xFE4 JUMP JUMPDEST PUSH1 0x40 MLOAD DUP1 SWAP2 SUB SWAP1 REVERT JUMPDEST PUSH1 0x0 DUP1 CALLER PUSH20 0xFFFFFFFFFFFFFFFFFFFFFFFFFFFFFFFFFFFFFFFF AND PUSH20 0xFFFFFFFFFFFFFFFFFFFFFFFFFFFFFFFFFFFFFFFF AND DUP2 MSTORE PUSH1 0x20 ADD SWAP1 DUP2 MSTORE PUSH1 0x20 ADD PUSH1 0x0 KECCAK256 PUSH1 0x4 ADD DUP2 SWAP1 DUP1 PUSH1 0x1 DUP2 SLOAD ADD DUP1 DUP3 SSTORE DUP1 SWAP2 POP POP PUSH1 0x1 SWAP1 SUB SWAP1 PUSH1 0x0 MSTORE PUSH1 0x20 PUSH1 0x0 KECCAK256 ADD PUSH1 0x0 SWAP1 SWAP2 SWAP1 SWAP2 SWAP1 SWAP2 POP SWAP1 DUP1 MLOAD SWAP1 PUSH1 0x20 ADD SWAP1 PUSH2 0xA66 SWAP3 SWAP2 SWAP1 PUSH2 0xAB8 JUMP JUMPDEST POP CALLER PUSH20 0xFFFFFFFFFFFFFFFFFFFFFFFFFFFFFFFFFFFFFFFF AND PUSH32 0x44626CFEC8A165F72396CC5E247C6B96279F8C205A8D07C390DF7AA5806205FA DUP3 PUSH1 0x40 MLOAD PUSH2 0xAAD SWAP2 SWAP1 PUSH2 0xFA2 JUMP JUMPDEST PUSH1 0x40 MLOAD DUP1 SWAP2 SUB SWAP1 LOG2 POP JUMP JUMPDEST DUP3 DUP1 SLOAD PUSH2 0xAC4 SWAP1 PUSH2 0x116B JUMP JUMPDEST SWAP1 PUSH1 0x0 MSTORE PUSH1 0x20 PUSH1 0x0 KECCAK256 SWAP1 PUSH1 0x1F ADD PUSH1 0x20 SWAP1 DIV DUP2 ADD SWAP3 DUP3 PUSH2 0xAE6 JUMPI PUSH1 0x0 DUP6 SSTORE PUSH2 0xB2D JUMP JUMPDEST DUP3 PUSH1 0x1F LT PUSH2 0xAFF JUMPI DUP1 MLOAD PUSH1 0xFF NOT AND DUP4 DUP1 ADD OR DUP6 SSTORE PUSH2 0xB2D JUMP JUMPDEST DUP3 DUP1 ADD PUSH1 0x1 ADD DUP6 SSTORE DUP3 ISZERO PUSH2 0xB2D JUMPI SWAP2 DUP3 ADD JUMPDEST DUP3 DUP2 GT ISZERO PUSH2 0xB2C JUMPI DUP3 MLOAD DUP3 SSTORE SWAP2 PUSH1 0x20 ADD SWAP2 SWAP1 PUSH1 0x1 ADD SWAP1 PUSH2 0xB11 JUMP JUMPDEST JUMPDEST POP SWAP1 POP PUSH2 0xB3A SWAP2 SWAP1 PUSH2 0xB3E JUMP JUMPDEST POP SWAP1 JUMP JUMPDEST JUMPDEST DUP1 DUP3 GT ISZERO PUSH2 0xB57 JUMPI PUSH1 0x0 DUP2 PUSH1 0x0 SWAP1 SSTORE POP PUSH1 0x1 ADD PUSH2 0xB3F JUMP JUMPDEST POP SWAP1 JUMP JUMPDEST PUSH1 0x0 PUSH2 0xB6E PUSH2 0xB69 DUP5 PUSH2 0x1055 JUMP JUMPDEST PUSH2 0x1024 JUMP JUMPDEST SWAP1 POP DUP3 DUP2 MSTORE PUSH1 0x20 DUP2 ADD DUP5 DUP5 DUP5 ADD GT ISZERO PUSH2 0xB86 JUMPI PUSH1 0x0 DUP1 REVERT JUMPDEST PUSH2 0xB91 DUP5 DUP3 DUP6 PUSH2 0x1129 JUMP JUMPDEST POP SWAP4 SWAP3 POP POP POP JUMP JUMPDEST PUSH1 0x0 DUP2 CALLDATALOAD SWAP1 POP PUSH2 0xBA8 DUP2 PUSH2 0x120C JUMP JUMPDEST SWAP3 SWAP2 POP POP JUMP JUMPDEST PUSH1 0x0 DUP3 PUSH1 0x1F DUP4 ADD SLT PUSH2 0xBBF JUMPI PUSH1 0x0 DUP1 REVERT JUMPDEST DUP2 CALLDATALOAD PUSH2 0xBCF DUP5 DUP3 PUSH1 0x20 DUP7 ADD PUSH2 0xB5B JUMP JUMPDEST SWAP2 POP POP SWAP3 SWAP2 POP POP JUMP JUMPDEST PUSH1 0x0 PUSH1 0x20 DUP3 DUP5 SUB SLT ISZERO PUSH2 0xBEA JUMPI PUSH1 0x0 DUP1 REVERT JUMPDEST PUSH1 0x0 PUSH2 0xBF8 DUP5 DUP3 DUP6 ADD PUSH2 0xB99 JUMP JUMPDEST SWAP2 POP POP SWAP3 SWAP2 POP POP JUMP JUMPDEST PUSH1 0x0 DUP1 PUSH1 0x40 DUP4 DUP6 SUB SLT ISZERO PUSH2 0xC14 JUMPI PUSH1 0x0 DUP1 REVERT JUMPDEST PUSH1 0x0 PUSH2 0xC22 DUP6 DUP3 DUP7 ADD PUSH2 0xB99 JUMP JUMPDEST SWAP3 POP POP PUSH1 0x20 PUSH2 0xC33 DUP6 DUP3 DUP7 ADD PUSH2 0xB99 JUMP JUMPDEST SWAP2 POP POP SWAP3 POP SWAP3 SWAP1 POP JUMP JUMPDEST PUSH1 0x0 DUP1 PUSH1 0x40 DUP4 DUP6 SUB SLT ISZERO PUSH2 0xC50 JUMPI PUSH1 0x0 DUP1 REVERT JUMPDEST PUSH1 0x0 PUSH2 0xC5E DUP6 DUP3 DUP7 ADD PUSH2 0xB99 JUMP JUMPDEST SWAP3 POP POP PUSH1 0x20 DUP4 ADD CALLDATALOAD PUSH8 0xFFFFFFFFFFFFFFFF DUP2 GT ISZERO PUSH2 0xC7B JUMPI PUSH1 0x0 DUP1 REVERT JUMPDEST PUSH2 0xC87 DUP6 DUP3 DUP7 ADD PUSH2 0xBAE JUMP JUMPDEST SWAP2 POP POP SWAP3 POP SWAP3 SWAP1 POP JUMP JUMPDEST PUSH1 0x0 PUSH1 0x20 DUP3 DUP5 SUB SLT ISZERO PUSH2 0xCA3 JUMPI PUSH1 0x0 DUP1 REVERT JUMPDEST PUSH1 0x0 DUP3 ADD CALLDATALOAD PUSH8 0xFFFFFFFFFFFFFFFF DUP2 GT ISZERO PUSH2 0xCBD JUMPI PUSH1 0x0 DUP1 REVERT JUMPDEST PUSH2 0xCC9 DUP5 DUP3 DUP6 ADD PUSH2 0xBAE JUMP JUMPDEST SWAP2 POP POP SWAP3 SWAP2 POP POP JUMP JUMPDEST PUSH1 0x0 PUSH2 0xCDE DUP4 DUP4 PUSH2 0xD79 JUMP JUMPDEST SWAP1 POP SWAP3 SWAP2 POP POP JUMP JUMPDEST PUSH2 0xCEF DUP2 PUSH2 0x10EB JUMP JUMPDEST DUP3 MSTORE POP POP JUMP JUMPDEST PUSH1 0x0 PUSH2 0xD00 DUP3 PUSH2 0x1095 JUMP JUMPDEST PUSH2 0xD0A DUP2 DUP6 PUSH2 0x10B8 JUMP JUMPDEST SWAP4 POP DUP4 PUSH1 0x20 DUP3 MUL DUP6 ADD PUSH2 0xD1C DUP6 PUSH2 0x1085 JUMP JUMPDEST DUP1 PUSH1 0x0 JUMPDEST DUP6 DUP2 LT ISZERO PUSH2 0xD58 JUMPI DUP5 DUP5 SUB DUP10 MSTORE DUP2 MLOAD PUSH2 0xD39 DUP6 DUP3 PUSH2 0xCD2 JUMP JUMPDEST SWAP5 POP PUSH2 0xD44 DUP4 PUSH2 0x10AB JUMP JUMPDEST SWAP3 POP PUSH1 0x20 DUP11 ADD SWAP10 POP POP PUSH1 0x1 DUP2 ADD SWAP1 POP PUSH2 0xD20 JUMP JUMPDEST POP DUP3 SWAP8 POP DUP8 SWAP6 POP POP POP POP POP POP SWAP3 SWAP2 POP POP JUMP JUMPDEST PUSH2 0xD73 DUP2 PUSH2 0x10FD JUMP JUMPDEST DUP3 MSTORE POP POP JUMP JUMPDEST PUSH1 0x0 PUSH2 0xD84 DUP3 PUSH2 0x10A0 JUMP JUMPDEST PUSH2 0xD8E DUP2 DUP6 PUSH2 0x10C9 JUMP JUMPDEST SWAP4 POP PUSH2 0xD9E DUP2 DUP6 PUSH1 0x20 DUP7 ADD PUSH2 0x1138 JUMP JUMPDEST PUSH2 0xDA7 DUP2 PUSH2 0x11FB JUMP JUMPDEST DUP5 ADD SWAP2 POP POP SWAP3 SWAP2 POP POP JUMP JUMPDEST PUSH1 0x0 PUSH2 0xDBD DUP3 PUSH2 0x10A0 JUMP JUMPDEST PUSH2 0xDC7 DUP2 DUP6 PUSH2 0x10DA JUMP JUMPDEST SWAP4 POP PUSH2 0xDD7 DUP2 DUP6 PUSH1 0x20 DUP7 ADD PUSH2 0x1138 JUMP JUMPDEST PUSH2 0xDE0 DUP2 PUSH2 0x11FB JUMP JUMPDEST DUP5 ADD SWAP2 POP POP SWAP3 SWAP2 POP POP JUMP JUMPDEST PUSH1 0x0 PUSH2 0xDF8 PUSH1 0x18 DUP4 PUSH2 0x10DA JUMP JUMPDEST SWAP2 POP PUSH32 0x50617469656E742064656A6120656E72656769737472652E0000000000000000 PUSH1 0x0 DUP4 ADD MSTORE PUSH1 0x20 DUP3 ADD SWAP1 POP SWAP2 SWAP1 POP JUMP JUMPDEST PUSH1 0x0 PUSH2 0xE38 PUSH1 0x26 DUP4 PUSH2 0x10DA JUMP JUMPDEST SWAP2 POP PUSH32 0x566F757320646576657A206574726520756E2070617469656E7420656E726567 PUSH1 0x0 DUP4 ADD MSTORE PUSH32 0x69737472652E0000000000000000000000000000000000000000000000000000 PUSH1 0x20 DUP4 ADD MSTORE PUSH1 0x40 DUP3 ADD SWAP1 POP SWAP2 SWAP1 POP JUMP JUMPDEST PUSH1 0x0 PUSH2 0xE9E PUSH1 0x23 DUP4 PUSH2 0x10DA JUMP JUMPDEST SWAP2 POP PUSH32 0x41636365732064656A61207265766F717565206F75206E6F6E206175746F7269 PUSH1 0x0 DUP4 ADD MSTORE PUSH32 0x73652E0000000000000000000000000000000000000000000000000000000000 PUSH1 0x20 DUP4 ADD MSTORE PUSH1 0x40 DUP3 ADD SWAP1 POP SWAP2 SWAP1 POP JUMP JUMPDEST PUSH1 0x0 PUSH1 0x40 DUP3 ADD SWAP1 POP PUSH2 0xF0C PUSH1 0x0 DUP4 ADD DUP6 PUSH2 0xCE6 JUMP JUMPDEST DUP2 DUP2 SUB PUSH1 0x20 DUP4 ADD MSTORE PUSH2 0xF1E DUP2 DUP5 PUSH2 0xDB2 JUMP JUMPDEST SWAP1 POP SWAP4 SWAP3 POP POP POP JUMP JUMPDEST PUSH1 0x0 PUSH1 0x60 DUP3 ADD SWAP1 POP PUSH2 0xF3C PUSH1 0x0 DUP4 ADD DUP7 PUSH2 0xCE6 JUMP JUMPDEST DUP2 DUP2 SUB PUSH1 0x20 DUP4 ADD MSTORE PUSH2 0xF4E DUP2 DUP6 PUSH2 0xDB2 JUMP JUMPDEST SWAP1 POP PUSH2 0xF5D PUSH1 0x40 DUP4 ADD DUP5 PUSH2 0xD6A JUMP JUMPDEST SWAP5 SWAP4 POP POP POP POP JUMP JUMPDEST PUSH1 0x0 PUSH1 0x20 DUP3 ADD SWAP1 POP DUP2 DUP2 SUB PUSH1 0x0 DUP4 ADD MSTORE PUSH2 0xF7F DUP2 DUP5 PUSH2 0xCF5 JUMP JUMPDEST SWAP1 POP SWAP3 SWAP2 POP POP JUMP JUMPDEST PUSH1 0x0 PUSH1 0x20 DUP3 ADD SWAP1 POP PUSH2 0xF9C PUSH1 0x0 DUP4 ADD DUP5 PUSH2 0xD6A JUMP JUMPDEST SWAP3 SWAP2 POP POP JUMP JUMPDEST PUSH1 0x0 PUSH1 0x20 DUP3 ADD SWAP1 POP DUP2 DUP2 SUB PUSH1 0x0 DUP4 ADD MSTORE PUSH2 0xFBC DUP2 DUP5 PUSH2 0xDB2 JUMP JUMPDEST SWAP1 POP SWAP3 SWAP2 POP POP JUMP JUMPDEST PUSH1 0x0 PUSH1 0x20 DUP3 ADD SWAP1 POP DUP2 DUP2 SUB PUSH1 0x0 DUP4 ADD MSTORE PUSH2 0xFDD DUP2 PUSH2 0xDEB JUMP JUMPDEST SWAP1 POP SWAP2 SWAP1 POP JUMP JUMPDEST PUSH1 0x0 PUSH1 0x20 DUP3 ADD SWAP1 POP DUP2 DUP2 SUB PUSH1 0x0 DUP4 ADD MSTORE PUSH2 0xFFD DUP2 PUSH2 0xE2B JUMP JUMPDEST SWAP1 POP SWAP2 SWAP1 POP JUMP JUMPDEST PUSH1 0x0 PUSH1 0x20 DUP3 ADD SWAP1 POP DUP2 DUP2 SUB PUSH1 0x0 DUP4 ADD MSTORE PUSH2 0x101D DUP2 PUSH2 0xE91 JUMP JUMPDEST SWAP1 POP SWAP2 SWAP1 POP JUMP JUMPDEST PUSH1 0x0 PUSH1 0x40 MLOAD SWAP1 POP DUP2 DUP2 ADD DUP2 DUP2 LT PUSH8 0xFFFFFFFFFFFFFFFF DUP3 GT OR ISZERO PUSH2 0x104B JUMPI PUSH2 0x104A PUSH2 0x11CC JUMP JUMPDEST JUMPDEST DUP1 PUSH1 0x40 MSTORE POP SWAP2 SWAP1 POP JUMP JUMPDEST PUSH1 0x0 PUSH8 0xFFFFFFFFFFFFFFFF DUP3 GT ISZERO PUSH2 0x1070 JUMPI PUSH2 0x106F PUSH2 0x11CC JUMP JUMPDEST JUMPDEST PUSH1 0x1F NOT PUSH1 0x1F DUP4 ADD AND SWAP1 POP PUSH1 0x20 DUP2 ADD SWAP1 POP SWAP2 SWAP1 POP JUMP JUMPDEST PUSH1 0x0 DUP2 SWAP1 POP PUSH1 0x20 DUP3 ADD SWAP1 POP SWAP2 SWAP1 POP JUMP JUMPDEST PUSH1 0x0 DUP2 MLOAD SWAP1 POP SWAP2 SWAP1 POP JUMP JUMPDEST PUSH1 0x0 DUP2 MLOAD SWAP1 POP SWAP2 SWAP1 POP JUMP JUMPDEST PUSH1 0x0 PUSH1 0x20 DUP3 ADD SWAP1 POP SWAP2 SWAP1 POP JUMP JUMPDEST PUSH1 0x0 DUP3 DUP3 MSTORE PUSH1 0x20 DUP3 ADD SWAP1 POP SWAP3 SWAP2 POP POP JUMP JUMPDEST PUSH1 0x0 DUP3 DUP3 MSTORE PUSH1 0x20 DUP3 ADD SWAP1 POP SWAP3 SWAP2 POP POP JUMP JUMPDEST PUSH1 0x0 DUP3 DUP3 MSTORE PUSH1 0x20 DUP3 ADD SWAP1 POP SWAP3 SWAP2 POP POP JUMP JUMPDEST PUSH1 0x0 PUSH2 0x10F6 DUP3 PUSH2 0x1109 JUMP JUMPDEST SWAP1 POP SWAP2 SWAP1 POP JUMP JUMPDEST PUSH1 0x0 DUP2 ISZERO ISZERO SWAP1 POP SWAP2 SWAP1 POP JUMP JUMPDEST PUSH1 0x0 PUSH20 0xFFFFFFFFFFFFFFFFFFFFFFFFFFFFFFFFFFFFFFFF DUP3 AND SWAP1 POP SWAP2 SWAP1 POP JUMP JUMPDEST DUP3 DUP2 DUP4 CALLDATACOPY PUSH1 0x0 DUP4 DUP4 ADD MSTORE POP POP POP JUMP JUMPDEST PUSH1 0x0 JUMPDEST DUP4 DUP2 LT ISZERO PUSH2 0x1156 JUMPI DUP1 DUP3 ADD MLOAD DUP2 DUP5 ADD MSTORE PUSH1 0x20 DUP2 ADD SWAP1 POP PUSH2 0x113B JUMP JUMPDEST DUP4 DUP2 GT ISZERO PUSH2 0x1165 JUMPI PUSH1 0x0 DUP5 DUP5 ADD MSTORE JUMPDEST POP POP POP POP JUMP JUMPDEST PUSH1 0x0 PUSH1 0x2 DUP3 DIV SWAP1 POP PUSH1 0x1 DUP3 AND DUP1 PUSH2 0x1183 JUMPI PUSH1 0x7F DUP3 AND SWAP2 POP JUMPDEST PUSH1 0x20 DUP3 LT DUP2 EQ ISZERO PUSH2 0x1197 JUMPI PUSH2 0x1196 PUSH2 0x119D JUMP JUMPDEST JUMPDEST POP SWAP2 SWAP1 POP JUMP JUMPDEST PUSH32 0x4E487B7100000000000000000000000000000000000000000000000000000000 PUSH1 0x0 MSTORE PUSH1 0x22 PUSH1 0x4 MSTORE PUSH1 0x24 PUSH1 0x0 REVERT JUMPDEST PUSH32 0x4E487B7100000000000000000000000000000000000000000000000000000000 PUSH1 0x0 MSTORE PUSH1 0x41 PUSH1 0x4 MSTORE PUSH1 0x24 PUSH1 0x0 REVERT JUMPDEST PUSH1 0x0 PUSH1 0x1F NOT PUSH1 0x1F DUP4 ADD AND SWAP1 POP SWAP2 SWAP1 POP JUMP JUMPDEST PUSH2 0x1215 DUP2 PUSH2 0x10EB JUMP JUMPDEST DUP2 EQ PUSH2 0x1220 JUMPI PUSH1 0x0 DUP1 REVERT JUMPDEST POP JUMP INVALID LOG2 PUSH5 0x6970667358 0x22 SLT KECCAK256 0xA6 0xB2 0xE7 DUP10 0x23 SDIV 0xD8 0x27 DUP13 GT 0xEB 0xD2 0xCE 0xCF 0x27 PUSH30 0x53D553018DB6203CD63BF0EF63BF8A9264736F6C63430008000033000000 "
				},
				"gasEstimates": {
					"creation": {
						"codeDepositCost": "939400",
						"executionCost": "975",
						"totalCost": "940375"
					},
					"external": {
						"addMedicalRecord(string)": "infinite",
						"getRecords(address)": "infinite",
						"grantAccess(address)": "24022",
						"isDoctorAuthorized(address,address)": "infinite",
						"patients(address)": "infinite",
						"registerPatient(address,string)": "infinite",
						"revokeAccess(address)": "25059"
					}
				},
				"methodIdentifiers": {
					"addMedicalRecord(string)": "e671926a",
					"getRecords(address)": "a0076e84",
					"grantAccess(address)": "0ae5e739",
					"isDoctorAuthorized(address,address)": "79a94bd2",
					"patients(address)": "0869cfbc",
					"registerPatient(address,string)": "8048c2f0",
					"revokeAccess(address)": "85e68531"
				}
			},
			"storageLayout": {
				"storage": [
					{
						"astId": 345,
						"contract": "Contracts/ContractPatient.sol:Patient",
						"label": "patients",
						"offset": 0,
						"slot": "0",
						"type": "t_mapping(t_address,t_struct(PatientData)340_storage)"
					}
				],
				"types": {
					"t_address": {
						"encoding": "inplace",
						"label": "address",
						"numberOfBytes": "20"
					},
					"t_array(t_string_storage)dyn_storage": {
						"base": "t_string_storage",
						"encoding": "dynamic_array",
						"label": "string[]",
						"numberOfBytes": "32"
					},
					"t_bool": {
						"encoding": "inplace",
						"label": "bool",
						"numberOfBytes": "1"
					},
					"t_mapping(t_address,t_bool)": {
						"encoding": "mapping",
						"key": "t_address",
						"label": "mapping(address => bool)",
						"numberOfBytes": "32",
						"value": "t_bool"
					},
					"t_mapping(t_address,t_struct(PatientData)340_storage)": {
						"encoding": "mapping",
						"key": "t_address",
						"label": "mapping(address => struct Patient.PatientData)",
						"numberOfBytes": "32",
						"value": "t_struct(PatientData)340_storage"
					},
					"t_string_storage": {
						"encoding": "bytes",
						"label": "string",
						"numberOfBytes": "32"
					},
					"t_struct(PatientData)340_storage": {
						"encoding": "inplace",
						"label": "struct Patient.PatientData",
						"members": [
							{
								"astId": 328,
								"contract": "Contracts/ContractPatient.sol:Patient",
								"label": "patientAddress",
								"offset": 0,
								"slot": "0",
								"type": "t_address"
							},
							{
								"astId": 330,
								"contract": "Contracts/ContractPatient.sol:Patient",
								"label": "name",
								"offset": 0,
								"slot": "1",
								"type": "t_string_storage"
							},
							{
								"astId": 332,
								"contract": "Contracts/ContractPatient.sol:Patient",
								"label": "isRegistered",
								"offset": 0,
								"slot": "2",
								"type": "t_bool"
							},
							{
								"astId": 336,
								"contract": "Contracts/ContractPatient.sol:Patient",
								"label": "authorizedDoctors",
								"offset": 0,
								"slot": "3",
								"type": "t_mapping(t_address,t_bool)"
							},
							{
								"astId": 339,
								"contract": "Contracts/ContractPatient.sol:Patient",
								"label": "recordsHashes",
								"offset": 0,
								"slot": "4",
								"type": "t_array(t_string_storage)dyn_storage"
							}
						],
						"numberOfBytes": "160"
					}
				}
			},
			"userdoc": {
				"kind": "user",
				"methods": {},
				"version": 1
			}
		}
	}
}